:10000000E6C700000C9404080C940408FDC7000027
:10001000FBC70000F9C70000F7C70000F5C70000E4
:10002000F3C70000F1C700000C94B3120C948013C6
:10003000EBC70000E9C70000E7C70000E5C7000004
:10004000E3C70000E1C70000DFC70000DDC7000014
:10005000DBC70000D9C70000D7C70000D5C7000024
:10006000D3C70000D1C70000CFC70000CDC7000034
:10007000CBC70000C9C70000C7C70000C5C7000044
:10008000C3C70000C1C70000BFC70000BDC7000054
:10009000BBC70000B9C70000B7C70000B5C7000064
:1000A000B3C70000B1C70000AFC7000008000000E0
:1000B000BE922449123EABAAAA2ABECDCCCC4C3E5D
:1000C00000000080BEABAAAAAA3E00000000BF004C
:1000D0000000803F0000000000084178D3BB438748
:1000E000D1133D190E3CC3BD4282AD2B3E68EC825C
:1000F00076BED98FE1A93E4C80EFFFBE01C4FF7FE1
:100100003F00000000006E616E00696E66000040F6
:100110007A10F35A00A0724E18090010A5D4E80016
:1001200000E87648170000E40B54020000CA9A3B2E
:10013000000000E1F50500008096980000004042B4
:100140000F000000A0860100000010270000000042
:10015000E803000000006400000000000A00000046
:1001600000000100000000002C76D888DC674F08F2
:1001700023DFC1DFAE59E1B1B796E5E3E453C63AF8
:10018000E651997696E8E6C28426EB898C9B62ED6F
:10019000407C6FFCEFBC9C9F40F2BAA56FA5F49029
:1001A000055A2AF75C936B6CF9676DC11BFCE0E4A0
:1001B0000D47FEF520E6B500D0ED902E03009435F6
:1001C00077050080841E080000204E0A000000C849
:1001D0000C333333330F986E12831141EF8D21149A
:1001E000893BE65516CFFEE6DB18D1844B381BF76A
:1001F0007C1D901DA4BBE424203284725E22810009
:10020000C9F124ECA1E53D27020002000200030031
:1002100003000300040004000500050005000600BB
:100220000600060007000700080008000800090093
:10023000090009000A000A000B000B000B000C006B
:100240000C000C000D000D000D000E000E000F0044
:100250000F000F001000100010001100110012001C
:1002600012001200130013001300140014001500F4
:1002700015001500160016001600170017001800CC
:1002800018001800190019001A001A001A001B00A3
:100290001B001B001C001C001D001D001D001E007B
:1002A0001E001E001F001F00200020002000210053
:1002B000210022002200220023002300230024002A
:1002C0002400250025002500260026002700270001
:1002D0002700280028002800290029002A002A00D9
:1002E0002A002B002B002C002C002C002D002D00B0
:1002F0002E002E002E002F002F002F003000300087
:10030000310031003100320032003300330033005D
:100310003400340035003500350036003600370033
:1003200037003700380038003900390039003A000A
:100330003A003B003B003B003C003C003D003D00E0
:100340003D003E003E003F003F003F0040004000B7
:10035000410041004100420042004300430043008D
:100360004400440045004500450046004600470063
:100370004700480048004800490049004A004A0038
:100380004A004B004B004C004C004C004D004D000F
:100390004E004E004F004F004F00500050005100E3
:1003A00051005100520052005300530054005400B9
:1003B000540055005500560056005700570057008E
:1003C00058005800590059005A005A005A005B0062
:1003D0005B005C005C005D005D005D005E005E0037
:1003E0005F005F006000600060006100610062000B
:1003F00062006300630063006400640065006500E0
:1004000066006600670067006700680068006900B2
:1004100069006A006A006B006B006B006C006C0086
:100420006D006D006E006E006F006F006F00700059
:10043000700071007100720072007300730074002C
:100440007400740075007500760076007700770000
:1004500078007800790079007A007A007A007B00D1
:100460007B007C007C007D007D007E007E007F00A4
:100470007F00800080008100810082008200820075
:100480008300830084008400850085008600860048
:100490008700870088008800890089008A008A0018
:1004A0008B008B008C008C008D008D008E008E00E8
:1004B0008F008F00900090009100910092009200B8
:1004C0009300930094009400950095009600960088
:1004D0009700970098009800990099009A009A0058
:1004E0009B009B009C009C009D009D009E009E0028
:1004F0009F009F00A000A000A100A100A200A300F7
:10050000A300A400A400A500A500A600A600A700C3
:10051000A700A800A800A900A900AA00AB00AB0092
:10052000AC00AC00AD00AD00AE00AE00AF00AF005F
:10053000B000B100B100B200B200B300B300B4002B
:10054000B400B500B600B600B700B700B800B800F8
:10055000B900BA00BA00BB00BB00BC00BC00BD00C3
:10056000BE00BE00BF00BF00C000C000C100C2008E
:10057000C200C300C300C400C500C500C600C60059
:10058000C700C800C800C900C900CA00CB00CB0022
:10059000CC00CC00CD00CE00CE00CF00D000D000EB
:1005A000D100D100D200D300D300D400D500D500B3
:1005B000D600D600D700D800D800D900DA00DA007B
:1005C000DB00DC00DC00DD00DE00DE00DF00DF0041
:1005D000E000E100E100E200E300E300E400552771
:1005E000914B5527914B5527914B5527914B5527AB
:1005F000914BB62F914BC159914B356B914B5A4F43
:10060000914B0F08904B79918D4BE0388B4BD34534
:10061000894B1CB78A4B5EB88D4BB346914BF54D59
:10062000954BBB509B4B5462A14B613CA74B4CB6C6
:10063000AB4B2E0EAD4B98CDAD4B9406AE4B45C794
:10064000AC4B5332AA4B829AA74BC644A54B2A67A0
:10065000A54BAC03A74BE151A94BA25FAC4BB59A9C
:10066000B34B6CD8BB4B826CC44B310FCD4BCFED31
:10067000D44B7381DC4B7FA3E34BBA8FE94B6E50B5
:10068000EC4B9B5DEE4B71B8EF4B5766EF4B465C06
:10069000EC4B27DAE84B3009E54B41F4E04B14B959
:1006A000DC4B5DADD84B2BFCD44B384BD34BACBBA8
:1006B000D34BBE9CD44B26D3D54B9E67D74B3753D9
:1006C000D94B8587DB4B2616DE4BC658E24B9C1672
:1006D000E84B0B0EEE4B791AF44B74AAF94B98B316
:1006E000FE4B6ECD014C8C2F044C6F81064C07B62F
:1006F000084C04B00A4C61540C4CBC860C4CE0A471
:100700000A4C4369084CA2EE054CA743034C92697E
:10071000004C7420FB4B518BF54B6058F04BE7CBF2
:10072000EC4B6E99E94B16C9E64BE262E44B7381E0
:10073000E44BC62AE54B8F0EE64B9D10E74B80E25B
:10074000E74B7F8EE84BCB22E94B3195E94B0C6FA1
:10075000E94B1978E84B9B5CE74B8325E64BD6D8F1
:10076000E44BE05FE34BA4E0E14B285FE04B63DF49
:10077000DE4BB57EDD4B8E2FDC4BE2E7DA4B29A852
:10078000D94B887AD84B646DD74B4F6AD64B597288
:10079000D54B8F86D44BC2DAD34BD446D34B98BFBC
:1007A000D24BC644D24BEBEAD14B4BCBD14B0DB124
:1007B000D14B6497D14B9779D14B6225D14BE3B59F
:1007C000D04BB73CD04BFFB9CF4BCF28CF4B655A5E
:1007D000CE4BA086CD4BF0B0CC4BB7DCCB4B9B25A2
:1007E000CB4B1299CA4B3D0BCA4B8776C94B77D579
:1007F000C84B13D3C74BEB8EC64BD03BC54B6BDC02
:10080000C34B5873C24B6BE9C04B4153BF4BDFB86E
:10081000BD4B7E1BBC4B537CBA4BF2C1B84B81091C
:10082000B74BE25CB54B61C2B34B2A40B24BBBAF96
:10083000B14B4246B14B5CDFB04BF26CB04B34E194
:10084000AF4BF523AE4B6717AC4B45F7A94B48CEE2
:10085000A74BF7A6A54BCCDEA34BF947A24BD9BDBE
:10086000A04B503F9F4B46CB9D4B056C9C4B8E2322
:100870009B4B6BE7994BF5B9984B7B9D974B26AB00
:10088000964B7E54964BE008964B1BC0954B2C72B2
:10089000954B3917954BFC1B944BBBD7924BB287AA
:1008A000914BC631904BBDDB8E4BF3998D4BFFA026
:1008B0008C4BC6B18B4B42CC8A4B6AF0894B351EB0
:1008C000894BEC6B884B77D6874B2B4D874BBED132
:1008D000864BD965864B1E0B864B8440864BF7A30F
:1008E000864B0B0D874BC374874B4CD4874BF92435
:1008F000884B07B3874B841E874BA67C864B73D1EE
:10090000854BD820854BAD6E844BC4F0834BB677B6
:10091000834B4DFA824B1C75824BC9E4814B0F46C9
:10092000814BCA07804BF31B7D4BA0207A4BEE2CEA
:10093000774BD84F744B0298714BB5FE6F4BD5B7C0
:100940006F4B929C6F4BC4A36F4B74C46F4BDFF51E
:100950006F4B752F704B8A2F704B8A2F704B8A2FDD
:10096000704B8A2F704B8A2F704B8A2F704B8A2FB7
:10097000704B8A2F704B8A2F704B8A2F704B8A2FA7
:10098000704B8A2F704B8A2F704B8A2F704B8A2F97
:10099000704B8A2F704B8A2F704B8A2F704B8A2F87
:1009A000704B8A2F704B8A2F704B8A2F704B8A2F77
:1009B000704B8A2F704B8A2F704B8A2F704B8A2F67
:1009C000704B8A2F704B8A2F704B8A2F704B8A2F57
:1009D000704B8A2F704B8A2F704B8A2F704B8A2F47
:1009E000704B8A2F704B8A2F704B8A2F704B8A2F37
:1009F000704B8A2F704B8A2F704B8A2F704B8A2F27
:100A0000704B8A2F704B8A2F704B8A2F704B8A2F16
:100A1000704B8A2F704B8A2F704B8A2F704B8A2F06
:100A2000704B8A2F704B8A2F704B8A2F704B8A2FF6
:100A3000704B8A2F704B8A2F704B8A2F704B8A2FE6
:100A4000704B8A2F704B8A2F704B8A2F704B8A2FD6
:100A5000704B8A2F704B8A2F704B8A2F704B00007F
:100A600098437B142E40C364AABA3A99F2B63FED7C
:100A7000243278A94A2C55565649535350454300C1
:100A8000435031363000435031363032314130320C
:100A90003737390036013701380139013A013B0156
:100AA0003C013D013E013F01400141014201430142
:100AB0004401450146014701480149014A014B01F2
:100AC0004C014D014E014F015001510152015301A2
:100AD0005401550156015701580159015A015B0152
:100AE0005C015D015E015F01600161016201630102
:100AF0006401650166016701680169016A016B01B2
:100B00006C016D016E016F01700171017201730161
:100B10007401750176017701780179017A017B0111
:100B20007C017D017E017F018001810182018301C1
:100B30008401850186018701880189018A018B0171
:100B40008C018D018E018F01900191019201930121
:100B50009401950196019701980199019A019B01D1
:100B60009C019D019E019F01A001A101A201A30181
:100B7000A401A501A601A701A801A901AA01AB0131
:100B8000AC01AD01AE01AF01B001B101B201B301E1
:100B9000B401B501B601B701B801B901BA01BB0191
:100BA000BC01BD01BE01BF01C001C101C201C30141
:100BB000C401C501C601C701C801C901CA01CB01F1
:100BC000CC01CD01CE01CF01D001D101D201D301A1
:100BD000D401D501D601D701D801D901DA01DB0151
:100BE000DC01DD01DE01DF01E001E101E201E30101
:100BF000E401E501E601E701E801E901EA01EB01B1
:100C0000EC01ED01EE01EF01F001F101F201F30160
:100C1000F401F501F601F701F801F901FA01FB0110
:100C2000FC01FD01FE01FF010002010202020302BC
:100C30000402050206020702080209020A020B0268
:100C40000C020D020E020F02100211021202130218
:100C50001402150216021702180219021A021B02C8
:100C60001C021D021E021F02200221022202230278
:100C70002402250226022702280229022A022B0228
:100C80002C022D022E022F023002310232023302D8
:100C90003402350236023702380239023A023B0288
:100CA0003C023D023E023F02400241024202430238
:100CB0004402450246024702480249024A024B02E8
:100CC0004C024D024E024F02500251025202530298
:100CD0005402550256025702580259025A025B0248
:100CE0005C025D025E025F026002610262026302F8
:100CF0006402650266026702680269026A026B02A8
:100D00006C026D026E026F02700271027202730257
:100D10007402750276027702780279027A027B0207
:100D20007C027D027E027F028002810282028302B7
:100D30008402850286028702880289028A028B0267
:100D40008C028D028E028F02900291029202930217
:100D50009402950296029702980299029A029B02C7
:100D60009C029D029E029F02A002A102A202A30277
:100D7000A402A502A602A702A802A902AA02AB0227
:100D8000AC02AD02AE02AF02B002B102B202B302D7
:100D9000B402B502B602B702B802B902BA02BB0287
:100DA000BC02BD02BE02BF02C002C102C202C30237
:100DB000C402C502C602C702C802C902CA02CB02E7
:100DC000CC02CD02CE02CF02D002D102D202D30297
:100DD000D402D502D602D702D802D902DA02DB0247
:100DE000DC02DD02DE02DF02E002E102E202E302F7
:100DF000E402E502E602E702E802E902EA02EB02A7
:100E0000EC02ED02EE02EF02F002F102F202F30256
:100E1000F402F502F602F702F802F902FA02FB0206
:100E2000FC02FD02FE02FF020003010302030303B2
:100E30000403050306030703080309030A030B035E
:100E40000C030D030E030F0310031103120313030E
:100E50001403150316031703180319031A031B03BE
:100E60001C031D031E031F032003360140014A011A
:100E700054015E01680172017C01860190019A01B2
:100E8000A401AE01B801C201CC01D601E001EA0122
:100E9000F401FE01080212021C02260230023A028C
:100EA00044024E02580262026C02760280028A02FA
:100EB00094029E02A802B202BC02C602D002DA026A
:100EC000E402EE02F80202030C031603200317B734
:100ED000D13817B751396F12033A6F12833A6F1234
:100EE000033B0AD7A33B0AD7233C0AD7A33CCDCC6C
:100EF0004C3DCDCCCC3D24034D0069006E00690013
:100F000020005300700065006300740072006F00E1
:100F10006D00650074006500720000000E034F0054
:100F20005000540043004F004D000000040309042A
:100F300009023E00020100C0320904000001020261
:100F40000100052400100104240206052406000106
:100F5000070582030800FF09040100020A000000DF
:100F600007050402100005070583021000051201A1
:100F7000100102000008A321012001000102DC0190
:100F80006364696E6F70737578585B656667454614
:100F90004700616E006E66696E69747900CDCCCCD5
:100FA0003D0AD7233C17B7D13877CC2B329595E63D
:100FB000241FB14F0A000020410000C84200401C1D
:100FC0004620BCBE4CCA1B0E5AAEC59D74001124EF
:100FD0001FBECFEFDAE0DEBFCDBF12E0A0E0B1E090
:100FE000E6E7F6E402C005900D92A832B107D9F702
:100FF00029E0A8E2B2E001C01D92A033B207E1F7F8
:101000000E942C100C9439230C9400004F925F9294
:101010006F927F928F929F92AF92BF92CF92DF9208
:10102000EF92FF92CF93DF93CDB7DEB760970FB605
:10103000F894DEBF0FBECDBFEEE5FAE08590959047
:10104000A590B490E2E6FAE04590559065907490D2
:10105000E6E6FAE0259135914591549129833A834A
:101060004B835C83EAE6FAE02591359145915491F2
:101070002D833E834F835887EEE6FAE02591359124
:101080004591549129873A874B875C87E2E7FAE0DC
:1010900025913591459154912D873E874F87588BE7
:1010A000BC016F5F7F4F072E000C880B990B0E94CD
:1010B0000C186B017C019B01AC01C301B2010E94C1
:1010C0000519A50194010E9409174B015C01A701B4
:1010D000960169817A818B819C810E940519A70103
:1010E00096010E9405199B01AC01C501B4010E9443
:1010F00009174B015C01A70196016D817E818F81EB
:1011000098850E940519A70196010E940519A7015B
:1011100096010E9405199B01AC01C501B4010E9412
:1011200009174B015C01A701960169857A858B85BA
:101130009C850E940519A70196010E940519A70127
:1011400096010E940519A70196010E9405199B01AD
:10115000AC01C501B4010E9409174B015C01A70154
:1011600096016D857E858F8598890E940519A70156
:1011700096010E940519A70196010E940519A70171
:1011800096010E940519A70196010E9405199B016D
:10119000AC01C501B4010E94091760960FB6F8941E
:1011A000DEBF0FBECDBFDF91CF91FF90EF90DF90FC
:1011B000CF90BF90AF909F908F907F906F905F90F7
:1011C0004F9008950895089580E091E00C944115A2
:1011D00080E091E00C945716089500000000000094
:1011E0000000000008958F929F92AF92BF92CF921D
:1011F000DF92EF92FF9280E480937C0080917C00EC
:10120000876080937C0010927B0080917B008093AC
:101210007B0087EC80937A0080917A0086FDFCCF7A
:10122000609178008091790070E0782B7370072EC0
:10123000000C880B990B0E940C1820E030EC4FE753
:1012400054E40E94711720E030E040EA50E40E942C
:1012500005194B015C019B01AC0160E070E080EA84
:1012600090E40E9408176B017C0120E030E0A901A6
:101270000E946D17882369F020E030E44CE156E4C9
:10128000C501B4010E940519A70196010E947117BA
:1012900003C060E070E0CB0120E030E44CE156E4B4
:1012A0000E9471170E94C51820E030EB46E555E416
:1012B0000E9471172FE03FEC4BE55BE30E9409179A
:1012C0009B01AC0160E070E080E89FE30E94711731
:1012D00023E333E948E853E40E940817FF90EF90B6
:1012E000DF90CF90BF90AF909F908F900895D2D60F
:1012F000209A289A0895CF932898000080E0D3D6AA
:10130000C82F80E0D0D6289ACF7140E8C49F9001C2
:1013100011248695A901482BCA01CF910895819A7D
:101320008998859A8D98E0E8F4E0119211921192D3
:10133000119289E0E030F807C1F70895CF92DF926B
:10134000EF92FF920F931F93CF93DF93C0E8D4E007
:10135000FE01119211921192119289E0E030F8078A
:10136000C1F789983ADF899A38DF89988D9A35DFF5
:1013700003E010E0899A31DF89982FDF01501109CD
:10138000C9F7C12CD12C760180911F0190912001C9
:10139000A0912101B0912201C816D906EA06FB06E8
:1013A00054F4899A1ADF899818DF8FEFC81AD80A7F
:1013B000E80AF80AE9CF8D9808E510E0899A0DDF70
:1013C00089980BDF01501109C9F795DFBC0180E056
:1013D00090E00E940A186993799389939993899A66
:1013E000FCDE8998FADE89E0C030D80771F7DF911A
:1013F000CF911F910F91FF90EF90DF90CF900895C4
:10140000CF92DF92EF92FF92CF93DF93C0901B01B8
:10141000D0901C01E0901D01F0901E0120E030E012
:1014200040E252E4C701B6010E94BC181816D4F07D
:10143000A7019601609136027091370280913802BF
:10144000909139020E9408179F77D1E0C0E020E018
:1014500030E040E050E40E94BC1887FDD0E08D2FC2
:101460009C2F02C082E090E0DF91CF91FF90EF903F
:10147000DF90CF90089553DF3ADF84B7877F84BF32
:101480000FB6F894A8958091600088618093600001
:10149000109260000FBE90E080E80FB6F894809341
:1014A0006100909361000FBE0C9496122F923F92B0
:1014B0004F925F926F927F928F929F92AF92BF9264
:1014C000CF92DF92EF92FF920F931F93CF93DF9310
:1014D00000D000D0CDB7DEB780913A0290913B02A8
:1014E000880F991F880F991FFC01ED5DFE4F8080CA
:1014F0009180A280B3809C012253314F3A8329838B
:1015000080E894E09C838B8330E4232E32E0332EFA
:101510000EED15E0F101619171911F01072E000C94
:10152000880B990B0E940C18A50194010E940519C3
:101530009B01AC01EB81FC8160817181828193818F
:101540000E9408176B017C0120E030E0A9010E9495
:101550006D1787FF03C0C12CD12C7601E981FA8178
:101560002591359145915491F8014590559065909C
:101570007490C701B6010E947117A30192010E94E5
:1015800071176B017C012FE530E749E850E30E94B9
:101590006D17EB81FC8187FD05C0C082D182E2829C
:1015A000F38204C010821182128213822B813C814B
:1015B0002C5F3F4F3C832B830C5F1F4F20503940E3
:1015C00009F0A8CF0F900F900F900F90DF91CF915F
:1015D0001F910F91FF90EF90DF90CF90BF90AF9051
:1015E0009F908F907F906F905F904F903F902F9043
:1015F00008956F927F928F929F92AF92BF92CF92F7
:10160000DF92EF92FF920F931F93CF93DF9380911E
:101610003C0290913D02892B09F44EC009E411E08F
:10162000C0E0D0E0CE010197099730F4F801808145
:101630009181A0E0B0E004C082E090E0A0E0B0E0E2
:1016400080931F0190932001A0932101B093220168
:10165000D0933B02C0933A0271DE30E8832E34E02F
:10166000932E612C712CA12CB12CF401C190D1903E
:10167000E190F1904F019301A501C701B6010E94CD
:101680006D1787FD02C036015701F0E08F16F9E0B3
:101690009F0659F720E030E04AE754E4B301C50162
:1016A0000E94BC1887FF35C021960E5F1F4FCA30BD
:1016B000D10509F0B7CF2DC080913A0290913B023D
:1016C00001978930910550F4880F991FFC01E55B63
:1016D000FE4F80819181A0E0B0E004C082E090E004
:1016E000A0E0B0E080931F0190932001A09321011E
:1016F000B0932201DF91CF911F910F91FF90EF9056
:10170000DF90CF90BF90AF909F908F907F906F9021
:1017100015CEDF91CF911F910F91FF90EF90DF9049
:10172000CF90BF90AF909F908F907F906F900895D3
:101730002F923F924F925F926F927F928F929F92E1
:10174000AF92BF92CF92DF92EF92FF920F931F93CF
:10175000CF93DF93CDB7DEB728970FB6F894DEBFEF
:101760000FBECDBF23E231E03A83298389E491E0C3
:101770009E838D838901212C312CC101019709970A
:1017800038F4AD81BE818D919C91A0E0B0E004C0A1
:1017900082E090E0A0E0B0E080931F0190932001F0
:1017A000A0932101B0932201C9DDE0E8F4E0FC83BD
:1017B000EB83F887EF83AF81B8854D905D906D9096
:1017C0007D90B887AF831896CD90DD90ED90FC901A
:1017D0001B9720E030E040E451E46D917D918D91C4
:1017E0009C910E9405194B015C0120E030E040E42F
:1017F00050ECC301B2010E9405199B01AC01C50167
:10180000B4010E9409174B015C0120E030E048E878
:1018100051E4EF81F88564817581868197810E940A
:1018200005199B01AC01C501B4010E9409174B01C8
:101830005C0120E030E040E451E4C701B6010E94C1
:1018400005199B01AC01C501B4010E9409174B01A8
:101850005C0120E030E040E450E4C701B6010E94A2
:1018600005199B01AC01C501B4010E94081720E0D5
:1018700030E04CE052E40E947117AF81B8851496B5
:101880006D937D938D939C931797E0EFF8E0EA17A3
:10189000FB0709F090CF80E090EFAFE7B5E4F801E7
:1018A00080839183A283B38320E432E038872F833F
:1018B00033E02316310461F4AB81BC816D917D91DD
:1018C0008D919C910E94D917EF81F8857183608377
:1018D000AB81BC81CD90DD90ED90FD90BC83AB835E
:1018E000A7019601F80160817181828193810E9434
:1018F000BC18181634F4D801CD92DD92ED92FC920A
:101900001397EF81F8853296F887EF8320E039E06E
:101910008B819C812817390759F69FEF291A390ABC
:101920000C5F1F4FAD81BE811296BE83AD83BAE0BE
:101930002B16310409F021CFC0902F01D090300137
:10194000E0903101F0903201A7019601E981FA811E
:1019500060817181828193810E947117A981BA810E
:101960006D937D938D939D93BA83A983EBE4F1E00E
:10197000EA17FB0749F737DC6093360270933702AA
:10198000809338029093390228960FB6F894DEBF00
:101990000FBECDBFDF91CF911F910F91FF90EF90C0
:1019A000DF90CF90BF90AF909F908F907F906F907F
:1019B0005F904F903F902F90089580E091E00E94BB
:1019C0000516181619069CF420910009309101099A
:1019D000F901EE5FF64F80832F5F3F4F309301098F
:1019E000209300090A9719F481E080932209089551
:1019F0002F923F924F925F926F927F928F929F921F
:101A0000AF92BF92CF92DF92EF92FF920F931F930C
:101A1000CF93DF93CDB7DEB7CE56D1090FB6F8948A
:101A2000DEBF0FBECDBF80912209882309F4FAC220
:101A30001092220945E050E06DE571E082E099E006
:101A40000E940C22892B09F061C0D3DD2FDD60E8F4
:101A5000E62E64E0F62E00E010E078E0672E72E0FB
:101A6000772EECED8E2EE5E09E2EF0E25F2E9E01AD
:101A70002F5F3F4F6901A3E6AA2EA1E0BA2EF30122
:101A80008591949101970817190780F1F4018591C8
:101A9000949101968017910748F1C801B7DAD601F1
:101AA000E52D1D92EA95E9F7D70113962C9113972E
:101AB0002F9312962C9112972F9311962C91119788
:101AC0002F932C912F939F938F937F936F93BF921C
:101AD000AF92DF92CF920E949F22B60180E091E008
:101AE000F5D70FB6F894DEBF0FBECDBF0F5F1F4F07
:101AF000F4E0EF0EF11C003221E0120709F0BFCF35
:101B00006AE080E091E00E94861581C249E050E0E1
:101B10006AE671E082E099E00E940C22892B09F0CC
:101B2000C2C067DDC3DC54E9252E5AE0352E88E0BB
:101B300092E0A9969FAF8EAFA997DE011196A79666
:101B4000BFAFAEAFA797F10125913491AB963FAFF0
:101B50002EAFAB97A996EEADFFADA9970591149165
:101B6000780131E0E31AF108C70150DA4B015C015A
:101B7000C8014CDAAF966CAF7DAF8EAF9FAFAF9719
:101B8000F701EE0FFF1FEE0FFF1FE058FB4F4080E5
:101B9000518062807380000F111F000F111FF80128
:101BA000E058FB4FA3019201608171818281938192
:101BB0000E9408176B017C01AB96AEADBFADAB9731
:101BC000BD01BB0F880B990B0E940C18A501940155
:101BD0000E9408179B01AC01C701B6010E940519BC
:101BE0006B017C01A5019401AF966CAD7DAD8EAD0E
:101BF0009FADAF970E9408179B01AC01C701B601CA
:101C00000E947117A30192010E940917162F072F36
:101C1000F82EE92E20E030E0A9010E946D1787FF21
:101C200004C010E000E0F12CE12CA796EEADFFAD72
:101C3000A79720E211922A95E9F7EF92FF920F936E
:101C40001F93AB963FADAB973F93AA968FADAA97E4
:101C50008F93A3E7B1E0BF93AF9321E030E02C0F67
:101C60003D1F3F932F930E949F22BE016F5F7F4FC6
:101C700080E091E02BD732E0230E311CA9968EAD87
:101C80009FADA9970296A9969FAF8EAFA9970FB661
:101C9000F894DEBF0FBECDBFBAE62B16BEE03B0602
:101CA00009F051CF2DCF43E050E06AE771E082E0C8
:101CB00099E00E940C22892B99F59BDC00E814E046
:101CC00080E0A82E89E0B82E90E1992EFE01319691
:101CD0007F012EE7C22E21E0D22ED701E92D1D92E1
:101CE000EA95E9F7D8016D917D918D919D918D01D6
:101CF0000E94D9177F936F93DF92CF92FF92EF925A
:101D00000E949F22B70180E091E0E0D60F900F90F3
:101D10000F900F900F900F90A016B106F1F6F0CE35
:101D200044E050E062E871E082E099E00E940C2219
:101D3000892B11F4FDDC63C143E050E06CE871E0F5
:101D400082E099E00E940C22892B09F04EC0FE012E
:101D500031961F0184E6DF011D928A95E9F7E2E7DB
:101D6000FAE00591159125913491EEE6FAE045905F
:101D7000559065907490EAE6FAE085909590A5906C
:101D8000B490E6E6FAE0C590D590E590F490E2E6EE
:101D9000FAE04591559165917491EEE5FAE08591EF
:101DA0009591A591B4913F932F931F930F937F9299
:101DB0006F925F924F92BF92AF929F928F92FF92DB
:101DC000EF92DF92CF927F936F935F934F93BF9386
:101DD000AF939F938F9381E991E09F938F933F926D
:101DE0002F920E949F22B10136C043E050E069EA81
:101DF00071E082E099E00E940C22892BA9F58E0106
:101E00000F5F1F4F80E4D8011D928A95E9F78091FA
:101E10003E0290913F02009721F0019721F085E466
:101E200003C082E501C087E590911E019F939091C8
:101E30001D019F9390911C019F9390911B019F9373
:101E40001F928F938DEA91E09F938F931F930F932F
:101E50000E949F22B80180E091E038D60FB6F89436
:101E6000DEBF0FBECDBFD3C044E050E069EB71E0F0
:101E700082E099E00E940C22892B09F0C3C048E05F
:101E800050E06EEB71E082E099E00E940C22892B19
:101E900039F481E090E090933D0280933C02AFC022
:101EA00049E050E067EC71E082E099E00E940C228A
:101EB000892B49F410923D0210923C0210923B0291
:101EC00010923A029CC049E050E061ED71E082E07E
:101ED00099E00E940C22892B39F410923D02109255
:101EE0003C0281E090E087C049E050E06BED71E09A
:101EF00082E099E00E940C22892B39F410923D0275
:101F000010923C0282E090E076C047E050E065EE3F
:101F100071E082E099E00E940C22892B39F4109242
:101F20003D0210923C0283E090E065C047E050E043
:101F30006DEE71E082E099E00E940C22892B39F469
:101F400010923D0210923C0284E090E054C047E0C1
:101F500050E065EF71E082E099E00E940C22892B4D
:101F600039F410923D0210923C0285E090E043C0AB
:101F700048E050E06DEF71E082E099E00E940C22B1
:101F8000892B39F410923D0210923C0286E090E0D9
:101F900032C048E050E066E072E082E099E00E94E2
:101FA0000C22892B39F410923D0210923C0287E0FA
:101FB00090E021C048E050E06FE072E082E099E0FC
:101FC0000E940C22892B39F410923D0210923C029F
:101FD00088E090E010C049E050E068E172E082E003
:101FE00099E00E940C22892B51F410923D0210922C
:101FF0003C0289E090E090933B0280933A0267E8CC
:1020000071E002C062E272E080E091E05FD580E2C0
:10201000E2E0F9E0DF011D928A95E9F710920109EB
:1020200010920009C259DF4F0FB6F894DEBF0FBE01
:10203000CDBFDF91CF911F910F91FF90EF90DF9077
:10204000CF90BF90AF909F908F907F906F905F9058
:102050004F903F902F9008950EDA68E272E080E092
:1020600091E011D678946AD9BED8BDD860931B018F
:1020700070931C0180931D0190931E01C1D9909310
:102080003F0280933E02B4DC98DC80E091E0A7D56B
:10209000DED4EBCF84B1866084B980E58CBD8DB58C
:1020A00081608DBD08958EBD00000DB407FEFDCF8B
:1020B0008EB50895292F33272230310559F023306A
:1020C000310569F021303105E9F482E190E02EE636
:1020D0003FE01CC08EE390E020E33FE017C099276B
:1020E0008130910549F028F0029761F4E6EFFEE0B7
:1020F00005C0ECE2FFE002C0ECE1FFE0849190E07B
:102100009F0104C080E090E020E030E0FA013183DC
:1021100020830895CF92DF92EF92FF920F931F9347
:10212000CF93DF93EC018B017A018DD1811132C005
:10213000E114F10439F0F70180819181081B190B3A
:10214000C80FD91FC12CD12C0115110511F1809197
:10215000E80085FD15C08091E8008E778093E80047
:10216000E114F10449F0F70180819181C80ED91E74
:10217000D182C08285E00EC066D1882329F30AC0CF
:1021800089918093F10001501109FFEFCF1ADF0A06
:10219000DBCF80E0DF91CF911F910F91FF90EF9007
:1021A000DF90CF90089520912E0930912F092617A6
:1021B000370748F06115710539F42091E8002E7752
:1021C0002093E80001C0B901FC0120E06115710510
:1021D00079F1809127098823F1F18530F1F180911F
:1021E000E80083FD3CC08091E80082FD2EC0809114
:1021F000E80080FFEBCF2091F3008091F20090E0A7
:10220000922B6115710551F08830910538F42191B8
:102210002093F100615071090196F3CF21E00897F6
:1022200009F020E08091E8008E778093E800CECF1F
:102230002111CFCF0AC080912709882361F0853012
:1022400061F08091E80083FD0AC08091E80082FF80
:10225000F2CF80E0089582E0089583E0089581E060
:10226000089520912E0930912F092617370748F03D
:102270006115710539F42091E8002E772093E8006C
:1022800001C0B901FC0120E06115710591F1809157
:102290002709882309F440C0853009F43FC08091A4
:1022A000E80083FD3DC08091E80082FD2FC0809151
:1022B000E80080FFE9CF2091F3008091F20090E0E8
:1022C000922B6115710559F08830910540F42491E5
:1022D0002093F1003196615071090196F2CF21E00F
:1022E000089709F020E08091E8008E778093E8005D
:1022F000CBCF2111CCCF0AC080912709882361F070
:10230000853061F08091E80083FD0AC08091E8008B
:1023100082FFF2CF80E0089582E0089583E008957F
:1023200081E00895982F973068F59093E900981709
:1023300039F07091EC002091ED005091F00003C055
:10234000242F762F50E021FD02C09F5FECCF30910B
:10235000EB003E7F3093EB003091ED003D7F3093FA
:10236000ED003091EB0031603093EB007093EC00A6
:102370002093ED005093F0002091EE0027FDE5CF73
:1023800080E008958F708093E90081E008950F93B5
:102390001F93CF93DF93062FEC0110E0101771F11C
:1023A0006881611103C01F5F2596F8CF2C81A98138
:1023B000BA819B81862F8F70873010F080E01FC01C
:1023C000223010F442E001C046E0E8E0F0E020E016
:1023D000EA17FB0720F42F5FEE0FFF1FF9CF2295BE
:1023E000207F422B50E4959F90011124661F6627A1
:1023F000661F622B97DF8111D6CFE0CF81E0DF919E
:10240000CF911F910F9108958091280987FF11C0E6
:102410008091E80082FD05C0809127098111F8CFE5
:1024200011C08091E8008B770BC080912709882329
:1024300049F08091E80080FFF8CF8091E8008E7726
:102440008093E80008952091E4003091E50095E63E
:102450004091EC00842F817040FF23C08091E80000
:1024600080FD1DC080912709882399F0853099F05F
:102470008091EB0085FD11C04091E4005091E50092
:102480002417350729F3915011F09A01E1CF84E028
:10249000089582E0089583E0089581E0089580E042
:1024A00008954091E80042FFDDCF08950F931F93F8
:1024B000CF93DF934BD052D0C8EDD0E088818F7797
:1024C000888388818068888388818F7D888319BC10
:1024D00010922709109223091092250910922409BD
:1024E00000EE10E0F80180818B7F8083888181601D
:1024F000888342E060E080E015DFE1EEF0E080817B
:102500008E7F8083E2EEF0E0808181608083808135
:1025100088608083F80180818E7F808388818061DC
:102520008883DF91CF911F910F910895E8EDF0E03E
:1025300080818F7E8083E7EDF0E080818160808301
:1025400084E082BF81E080932609B0CFE8EDF0E01F
:1025500080818E7F80831092E20008951092DA00CD
:102560001092E10008951F920F920FB60F9211245E
:102570002F933F934F935F936F937F938F939F938B
:10258000AF93BF93EF93FF938091E10082FF0AC066
:102590008091E20082FF06C08091E1008B7F8093F2
:1025A000E10054D28091DA0080FF1FC08091D800F2
:1025B00080FF1BC08091DA008E7F8093DA008091CB
:1025C000D90080FF0DC080E189BD82E189BD09B4D9
:1025D00000FEFDCF81E0809327090E94E20805C03C
:1025E00019BC109227090E94E3088091E10080FF46
:1025F00018C08091E20080FF14C08091E2008E7FBD
:102600008093E2008091E20080618093E2008091FB
:10261000D80080628093D80019BC85E08093270998
:1026200015D28091E10084FF2FC08091E20084FFE9
:102630002BC080E189BD82E189BD09B400FEFDCFD8
:102640008091D8008F7D8093D8008091E1008F7EAB
:102650008093E1008091E2008F7E8093E200809180
:10266000E20081608093E20080912309882311F0C9
:1026700084E007C08091E30087FD02C081E001C0D3
:1026800083E080932709E2D18091E10083FF27C096
:102690008091E20083FF23C08091E100877F8093D7
:1026A000E10082E080932709109223098091E100E4
:1026B0008E7F8093E1008091E2008E7F8093E20024
:1026C0008091E20080618093E20042E060E080E07F
:1026D00029DE8091F00088608093F000B7D1FF91EF
:1026E000EF91BF91AF919F918F917F916F915F918A
:1026F0004F913F912F910F900FBE0F901F90189503
:102700001F920F920FB60F9211242F933F934F9366
:102710005F936F937F938F939F93AF93BF93CF9369
:10272000DF93EF93FF93C091E900CF708091EC00AD
:10273000D82FD17080FDD0E81092E9008091F00090
:10274000877F8093F00078941ED01092E9008091EA
:10275000F00088608093F000CD2BCF70C093E9002B
:10276000FF91EF91DF91CF91BF91AF919F918F91A9
:102770007F916F915F914F913F912F910F900FBE7D
:102780000F901F9018951F93CF93DF93CDB7DEB7AF
:10279000AA970FB6F894DEBF0FBECDBFE8E2F9E00E
:1027A0008091F100819329E0E033F207C9F70E949C
:1027B000E8088091E80083FF31C180912809909159
:1027C0002909953009F483C030F49130A9F168F0FB
:1027D000933091F123C1983009F4EFC0993009F496
:1027E000FBC0963009F01AC194C0803821F08238BD
:1027F00009F014C108C080912409909125099923FA
:1028000089F082600FC080912C098F70873008F0AA
:1028100005C18093E9008091EB0085FB882780F952
:102820001092E9009091E800977F9093E8008093E0
:10283000F1001092F100CCC0282F2D7F09F0EEC0DE
:10284000882319F0823061F0E9C080912A09813033
:1028500009F0E4C0933009F080E0809325092EC090
:1028600080912A0981112AC080912C098F702FEF45
:10287000280F263008F0D2C08093E9002091EB00A9
:1028800020FF1CC0933021F48091EB00806214C0C3
:102890009091EB0090619093EB0021E030E0A90172
:1028A00002C0440F551F8A95E2F74093EA00109248
:1028B000EA008091EB0088608093EB001092E900C1
:1028C0008091E800877F8093E8009EDDA7C081119A
:1028D000A5C010912A091F778091E3008078812B91
:1028E0008093E3008091E800877F8093E8008CDD8F
:1028F0008091E80080FFFCCF8091E30080688093A6
:10290000E300111102C082E001C083E08093270937
:1029100085C08058823008F081C080912A0990914A
:102920002B098C3D53E0950771F583E08A838AE299
:1029300089834FB7F894DE01139620E03EE051E220
:10294000E32FF0E050935700E49120FF03C0E2959D
:10295000EF703F5FEF708E2F90E0EA3010F0C79677
:1029600001C0C0968D939D932F5F243149F74FBFCF
:102970008091E800877F8093E8006AE270E0CE01F2
:10298000019611DC14C060912C0970912D09AE01E3
:102990004F5F5F4F8FDBBC01892B09F43FC09091E3
:1029A000E800977F9093E80089819A815ADC8091B2
:1029B000E8008B778093E80031C0803879F580910A
:1029C000E800877F8093E800809123098093F100DD
:1029D0008091E8008E7777CF811120C080912A09FD
:1029E00090912B0999270297CCF48091E800877F7A
:1029F0008093E80080912A098093230905DD809166
:102A00002309811106C08091E30087FD02C081E0A7
:102A100001C084E0809327090E94E4088091E800C7
:102A200083FF0AC08091E800877F8093E80080914F
:102A3000EB0080628093EB00AA960FB6F894DEBF9D
:102A40000FBECDBFDF91CF911F9108950895CF9311
:102A500080912709882399F0C091E900CF70909167
:102A6000EC00892F817090FD80E8C82B1092E9005E
:102A70008091E80083FD87DECF70C093E900CF919D
:102A80000895CF93DF93EC01FC0170968BE0DF019A
:102A90001D928A95E9F782E08C83898783E08E878F
:102AA00061E0CE01019673DC882361F061E0CE0124
:102AB00006966DDC882331F061E0CE010B96DF9144
:102AC000CF9165CC80E0DF91CF910895DB0120911B
:102AD00027092430C9F4FC0144895589668977891E
:102AE000452B462B472B81F081818F708093E90025
:102AF000FD0101900020E9F73197BF016A1B7B0BB4
:102B000040E050E0CD0106CB82E008950F931F9383
:102B1000CF93209127092430F9F4FC010489158909
:102B200026893789012B022B032BB1F0C62F818117
:102B30008F708093E9008091E80085FF04C0C09306
:102B4000F10080E00AC08091E8008E778093E80071
:102B50007ADC8823A1F301C082E0CF911F910F910D
:102B60000895FB01682F84859585D0DF21E030E052
:102B7000811102C020E030E088279927821B930B47
:102B8000089520912709243041F5FC014489558995
:102B900066897789452B462B472BF9F081818F7009
:102BA0008093E9002091F3008091F20090E0922B55
:102BB000892B89F09091E8008091E8008E778093CE
:102BC000E80095FD08C03FDC811108C08091E80055
:102BD0008E778093E80080E0089582E00895209148
:102BE0002709243089F4FC0144895589668977894D
:102BF000452B462B472B41F021812F702093E90074
:102C00002091E80020FDBDCF0895209127092430B0
:102C100019F08FEF9FEF0895FC014489558966896B
:102C20007789452B462B472BA1F386818F708093A4
:102C3000E9008091E80082FFECCF2091F3008091C1
:102C4000F20090E0922B892B21F02091F10030E0EE
:102C500002C02FEF3FEF4091F3008091F20090E02F
:102C6000942B892B29F48091E8008B778093E800DE
:102C7000C9010895FC0184859585C7DF97FF02C0CF
:102C80008EEF9FEF0895FB012EE0DB011D922A9548
:102C9000E9F723E0238321EB35E1318720872AE31D
:102CA00036E1338722879587848708950895CF93E7
:102CB000DF93EC018091E80083FFA7C0888190E05A
:102CC00020912C0930912D092817390709F09DC052
:102CD00080912909813261F020F4803209F43EC0EC
:102CE00094C0823209F46CC0833209F47EC08DC076
:102CF00080912809813A09F088C08091E800877F97
:102D00008093E8008091E80080FFFCCF8C899D894A
:102D1000AE89BF898093F100492F5A2F6B2F7727F7
:102D20004093F100AD01662777274093F1008B2F88
:102D30009927AA27BB278093F100888D8093F10003
:102D4000898D8093F1008A8D8093F1008091E80055
:102D50008E778093E800DF91CF9156CB8091280940
:102D6000813209F052C08091E800877F8093E800AB
:102D70008091E80082FD05C0809127098111F8CF7C
:102D800044C03091F1002091F1009091F1008091C8
:102D9000F1003C8B2D8B9E8B8F8B8091F100888F67
:102DA0008091F100898F8091F1008A8F8091E800F5
:102DB0008B778093E80028DBCE01DF91CF9176CF2F
:102DC00080912809813209F58091E800877F8093FE
:102DD000E8001ADB80912A0990912B09998B888B46
:102DE000CE01DF91CF910C94EC08809128098132BB
:102DF00061F48091E800877F8093E80005DB6091B3
:102E00002A09CE01DF91CF9151CFDF91CF91089563
:102E10005058BB27AA270ED075C166D130F06BD1B0
:102E200020F031F49F3F11F41EF45BC10EF4E095E5
:102E3000E7FB51C1E92F77D180F3BA176207730717
:102E40008407950718F071F49EF58FC10EF4E09594
:102E50000B2EBA2FA02D0B01B90190010C01CA0154
:102E6000A0011124FF27591B99F0593F50F4503EFF
:102E700068F11A16F040A22F232F342F4427585FF1
:102E8000F3CF469537952795A795F0405395C9F709
:102E90007EF41F16BA0B620B730B840BBAF09150C1
:102EA000A1F0FF0FBB1F661F771F881FC2F70EC060
:102EB000BA0F621F731F841F48F487957795679533
:102EC000B795F7959E3F08F0B3CF9395880F08F01C
:102ED0009927EE0F979587950895D9D008F481E04A
:102EE00008950CD00FC107D140F0FED030F021F48E
:102EF0005F3F19F0F0C0511139C1F3C014D198F3FC
:102F00009923C9F35523B1F3951B550BBB27AA276A
:102F100062177307840738F09F5F5F4F220F331FDC
:102F2000441FAA1FA9F333D00E2E3AF0E0E830D0A8
:102F300091505040E695001CCAF729D0FE2F27D0AB
:102F4000660F771F881FBB1F261737074807AB0779
:102F5000B0E809F0BB0B802DBF01FF2793585F4FEE
:102F60002AF09E3F510568F0B6C000C15F3FECF308
:102F7000983EDCF3869577956795B795F7959F5FB3
:102F8000C9F7880F911D9695879597F90895E1E007
:102F9000660F771F881FBB1F621773078407BA0766
:102FA00020F0621B730B840BBA0BEE1F88F7E095C1
:102FB000089504D06894B111D9C00895BCD088F0A8
:102FC0009F5790F0B92F9927B751A0F0D1F0660F15
:102FD000771F881F991F1AF0BA95C9F712C0B13030
:102FE00081F0C3D0B1E00895C0C0672F782F882743
:102FF000B85F39F0B93FCCF3869577956795B3956F
:10300000D9F73EF490958095709561957F4F8F4FDD
:103010009F4F0895E89409C097FB3EF490958095E2
:10302000709561957F4F8F4F9F4F9923A9F0F92F8E
:1030300096E9BB279395F695879577956795B7950C
:10304000F111F8CFFAF4BB0F11F460FF1BC06F5FF2
:103050007F4F8F4F9F4F16C0882311F096E911C004
:10306000772321F09EE8872F762F05C0662371F025
:1030700096E8862F70E060E02AF09A95660F771F39
:10308000881FDAF7880F9695879597F90895990F15
:103090000008550FAA0BE0E8FEEF16161706E80722
:1030A000F907C0F012161306E407F50798F0621B43
:1030B000730B840B950B39F40A2661F0232B242B18
:1030C000252B21F408950A2609F4A140A6958FEF37
:1030D000811D811D089597F99F6780E870E060E089
:1030E00008959FEF80EC089500240A9416161706A1
:1030F00018060906089500240A94121613061406E9
:1031000005060895092E0394000C11F4882352F04B
:10311000BB0F40F4BF2B11F460FF04C06F5F7F4F03
:103120008F4F9F4F089557FD9058440F551F59F0EA
:103130005F3F71F04795880F97FB991F61F09F3FA4
:1031400079F087950895121613061406551FF2CFCD
:103150004695F1DF08C0161617061806991FF1CF1D
:1031600086957105610508940895E894BB27662744
:103170007727CB0197F908958ADF08F48FEF089538
:103180000EF0A6C0AECF6894A6CFD5DFC8F39923C2
:10319000D1F3C6F3DF93CF931F930F93FF92C92F01
:1031A000DD2788232AF02197660F771F881FDAF71B
:1031B00020E030E040E85FEB9FE3883920F0803E7C
:1031C00030F021968F7725DEECEAF0E003C021DEB7
:1031D000E9EDF0E08BD08B01BE01EC01FB2E6F57C7
:1031E00071097595771F880B990B16DF28E132E777
:1031F00041E35FE316D0AF2D9801AE01FF900F9130
:103200001F91CF91DF9116DE7DCF0BD07BCF6CDF8E
:1032100028F071DF18F0952309F05DCF62CF1124FB
:10322000A5CF81DFA0F3959FD1F3950F50E0551FF7
:10323000629FF001729FBB27F00DB11D639FAA270B
:10324000F00DB11DAA1F649F6627B00DA11D661F5A
:10325000829F2227B00DA11D621F739FB00DA11D7B
:10326000621F839FA00D611D221F749F3327A00D35
:10327000611D231F849F600D211D822F762F6A2FD1
:1032800011249F5750408AF0E1F088234AF0EE0F56
:10329000FF1FBB1F661F771F881F91505040A9F763
:1032A0009E3F510570F017CF61CF5F3FECF3983E22
:1032B000DCF3869577956795B795F795E7959F5FCA
:1032C000C1F7FE2B880F911D9695879597F9089564
:1032D0009F3F31F0915020F4879577956795B7958A
:1032E000880F911D9695879597F90895DF93CF9351
:1032F0001F930F93FF92EF92DF927B018C016894F2
:1033000005C0DA2EEF018DDFFE01E894A59125912D
:10331000359145915591AEF3EF018CDDFE0197019A
:10332000A801DA9479F7DF90EF90FF900F911F9149
:10333000CF91DF910895A0E1B0E0E0EAF9E137C76D
:103340007C011B016A01FC0117821682838181FFC7
:103350002BC39E012F5F3F4F3901F7019381F1018C
:1033600093FD859193FF81911F01882309F418C370
:10337000853239F493FD859193FF81911F01853248
:1033800039F4B70190E00E94632256016501E5CF50
:1033900010E0512C912CFFE1F915D8F08B3279F027
:1033A00038F4803279F08332A1F4F92DF0612EC027
:1033B0008D3261F0803369F4292D21602DC0392DC3
:1033C0003260932E892D8460982E2AC0E92DE86002
:1033D00015C097FC2DC020ED280F2A3088F496FEEA
:1033E00006C03AE0139F200D1124122F19C08AE065
:1033F000589E200D1124522EE92DE0629E2E10C001
:103400008E3231F496FCCCC2F92DF0649F2E08C0A8
:103410008C3621F4292D2068922E02C0883641F482
:10342000F10193FD859193FF81911F018111B3CF2C
:103430009BEB980F933020F4992D9061805E07C02C
:103440009BE9980F933008F059C1992D9F7E96FF04
:1034500016E09F73992E853619F49064992E08C052
:10346000863621F4392F3068932E02C01111115085
:1034700097FE07C01C3350F444244394410E27E0C8
:103480000BC0183038F027E017E005C027E09CE3B8
:10349000492E02C0212F412C560184E0A80EB11CF8
:1034A000F6016081718182819381042DA301B6D6DA
:1034B0006C01F981FC87F0FF02C0F3FF06C091FCAC
:1034C00006C092FE06C000E205C00DE203C00BE29A
:1034D00001C000E08C858C7019F0011143C280C2DC
:1034E00097FE10C04C0CFC85F4FF04C08A81813328
:1034F00009F44A94141474F528E0241578F588E04A
:10350000482E2CC096FC2AC0812F90E08C159D057A
:103510009CF03CEFC3163FEFD30674F0892D806812
:10352000982E0AC0E2E0F0E0EC0FFD1FE10FF11D64
:103530008081803319F411501111F4CF97FE0EC021
:1035400044244394410E812F90E0C816D9062CF4F0
:103550001C1904C04424439401C010E097FE06C027
:103560001C141D0434F4C601019605C085E090E0EA
:1035700002C081E090E001110196112331F0212F6A
:1035800030E02F5F3F4F820F931F252D30E08217D1
:10359000930714F4581A01C0512C892D897041F4F5
:1035A000552031F0B70180E290E08DD75A94F8CFE2
:1035B000002321F0B701802F90E085D793FC08C04D
:1035C000552031F0B70180E390E07DD75A94F8CFD1
:1035D00097FE4AC04601D7FE02C0812C912CC6013D
:1035E00088199909F301E80FF91FFE87ED87960105
:1035F00024193109388B2F87012F10E0119501957F
:1036000011093FEF8316930621F4B7018EE290E093
:103610005AD7C814D9044CF08F8598898815990514
:1036200024F4ED85FE85818101C080E3F1E08F1AED
:1036300091082D853E852F5F3F4F3E872D87801651
:10364000910624F0B70190E03ED7DBCFC814D9042F
:1036500041F49A81963320F4953319F43C8534FF74
:1036600081E3B70190E048C08A81813319F09C85DD
:103670009F7E9C87B70190E026D7111105C094FC6E
:1036800016C085E690E015C0B7018EE290E01BD72A
:103690001E5F82E001E0080FF301E80FF11D808159
:1036A000B70190E010D7802F0113F4CFE8CF85E465
:1036B00090E0B70108D7D7FC06C0C114D10441F48B
:1036C000EC85E4FF05C0D194C194D1088DE201C01E
:1036D0008BE2B70190E0F7D680E32AE0C216D1046E
:1036E0002CF08F5FFAE0CF1AD108F7CFB70190E046
:1036F000EAD6B701C601C096E6D649C1833631F095
:10370000833779F0833509F052C01FC0560132E08B
:10371000A30EB11CF6018081898301E010E06301F2
:1037200011C05601F2E0AF0EB11CF601C080D1808D
:1037300096FE03C0612F70E002C06FEF7FEFC601FD
:1037400079D68C01F92DFF7713C0560122E0A20E25
:10375000B11CF601C080D18096FE03C0612F70E0DD
:1037600002C06FEF7FEFC6014CD68C01F92DF068D7
:103770009F2EF3FD18C0852D90E00817190798F4C7
:10378000B70180E290E09FD65A94F5CFF60197FCFE
:10379000859197FE81916F01B70190E094D6511009
:1037A0005A94015011090115110581F7F0C08436B2
:1037B00011F0893659F5560197FE09C024E0A20E92
:1037C000B11CF60160817181828193810AC0F2E0AF
:1037D000AF0EB11CF60160817181072E000C880BC1
:1037E000990BF92DFF769F2E97FF09C09095809534
:1037F000709561957F4F8F4F9F4FF0689F2E2AE005
:1038000030E0A301D5D6C82EC6183EC0092D853795
:1038100021F40F7E2AE030E01DC0097F8F3691F041
:1038200018F4883559F0BCC0803719F0883711F08A
:10383000B7C0006104FF09C0046007C094FE08C05F
:10384000066006C028E030E005C020E130E002C09C
:1038500020E132E0560107FF09C084E0A80EB11C48
:10386000F601608171818281938108C0F2E0AF0E20
:10387000B11CF6016081718180E090E0A30198D6CF
:10388000C82EC6180F77902E96FE0BC0092D0E7FFE
:10389000C11650F494FE0AC092FC08C0092D0E7E99
:1038A00005C0DC2C092D03C0DC2C01C0D12E04FF87
:1038B0000DC0FE01EC0DF11D8081803311F4097EF5
:1038C00009C002FF06C0D394D39404C0802F867829
:1038D00009F0D39403FD10C000FF06C01C2DD514C1
:1038E00078F4150D1D190CC0D51450F4B70180E201
:1038F00090E0E9D5D394F8CFD51410F45D1801C049
:10390000512C04FF0FC0B70180E390E0DCD502FF2B
:1039100016C001FD03C088E790E002C088E590E092
:10392000B7010CC0802F867851F001FF02C08BE2F6
:1039300001C080E207FD8DE2B70190E0C4D5C11659
:1039400030F4B70180E390E0BED51150F8CFCA94AF
:10395000F301EC0DF11D8081B70190E0B4D5C110E9
:10396000F6CF15C0F4E0F51550F584E0581A93FE33
:103970001EC0011125C02C8523FF27C006E011E0E1
:10398000392D3071932EF8018491811121C0552079
:1039900009F4FCCCB70180E290E095D55A94F7CFBA
:1039A000F7018681978123C08FEF9FEF20C0B70179
:1039B00080E290E088D55A945110F9CFDACF512C9B
:1039C000B701802F90E07FD5D6CF0AE011E0D8CFA5
:1039D00091108052B70190E076D50F5F1F4FD3CF83
:1039E00023E0251510F483E0C1CF512CC4CF60969D
:1039F000E2E1F9C320FD09C0FC0123FD05C022FF5F
:103A000002C07383628351834083089544FD17C0CD
:103A100046FD17C0AB01BC01DA01FB01AA0FBB1FB9
:103A2000EE1FFF1F1094D1F74A0F5B1F6E1F7F1F01
:103A3000CB01BA01660F771F881F991F09C033E0B9
:103A400001C034E0660F771F881F991F3150D1F7EE
:103A5000620F711D811D911D08950F931F93CF93C8
:103A6000DF938C01C801F1D4EC0197FD06C0AED400
:103A7000892BC1F7B801CE0182D5CE01DF91CF915C
:103A80001F910F910895A0E0B0E0E8E4FDE195C337
:103A90007C018B016A01D22FD8D49C0133272B32B1
:103AA000310521F02D32310551F4D0680150110952
:103AB00011F480E064C0C701C8D497FDFACFCD2FC0
:103AC000CD7F2D2F207309F58033F9F4580181E063
:103AD000A81AB10809F440C0C701B7D497FD3CC08B
:103AE0009C012F7D33272835310549F4C2640250EB
:103AF000110991F1C701A9D497FF07C02DC0D6FFC6
:103B000002C0C26001C0C2618501812C912C5401A8
:103B100020ED280F283078F0C4FF03C0B7012FD55F
:103B200018C02A3040F0C6FFF9CF2F7D3FEE320F8C
:103B30003630A0F727504C2FC501B40167DF4B0189
:103B40005C01C2600150110951F0C7017ED497FF9A
:103B5000DFCFC1FD04C0ADCF812C912C5401C7FF34
:103B600008C0B094A09490948094811C911CA11CD6
:103B7000B11C2C2FB501A401C6013CDF81E0CDB7FB
:103B8000DEB7ECE036C3A0E2B0E0E8ECFDE111C343
:103B90005C014B017A018E010F5F1F4F680180E2CB
:103BA000F80111928A95E9F7F501538040E050E061
:103BB000612C90E0712CA1E0B0E0F90153FC8591FB
:103BC00053FE81918F01482E9F01811103C080E037
:103BD00090E094C08E3519F44115510551F1672DCF
:103BE00070E0641775073CF48D3561F18D3219F47E
:103BF000992311F103C0992309F46BC0842D869594
:103C000086958695F601E80FF11D842D87708D014C
:103C100002C0000F111F8A95E2F7C8019081892B1D
:103C20008083641459F0461410F44394E7CF4A9407
:103C3000E5CF7724739403C091E001C090E04F5F1B
:103C40005F4FBBCF992319F08E8180628E837110F4
:103C500003C07724739419C0F6019E012F5D3F4F76
:103C60008081809581932E173F07D1F7F2CFE11421
:103C7000F10431F0F7018083B7016F5F7F4F7B0163
:103C800071E0871A9108712CE9F0C501DED397FD28
:103C900017C0FC01FF2723E0F595E7952A95E1F78A
:103CA000EC0DFD1D208130E0AC014770552702C0AE
:103CB000359527954A95E2F720FDD9CFB5015FD418
:103CC000711085CFE114F10411F0F7011082C801E1
:103CD00015C0682F669566956695F601E60FF11D8D
:103CE000682F67708D0102C0000F111F6A95E2F7FF
:103CF000B8017081672B6083682EA1CFA096E0E1A8
:103D000074C22F923F924F925F926F927F929F92D6
:103D1000AF92BF92CF92DF92EF92FF920F931F93D9
:103D2000CF93DF936C018B011A018FD3EC0199279C
:103D30008B32910529F08D9779F430E8932E01C0EC
:103D4000912C0150110911F480E0FEC0C6017DD311
:103D5000EC0197FF02C0F8CF912CCE013FD38936FA
:103D6000910531F08E36910581F5C2E9DFE002C0A0
:103D7000C5E9DFE02196FE013197B490BB20B1F098
:103D80000150110979F0C60160D37C0197FD0AC08A
:103D900025D39927EB2DF0E08E179F0759F3B60135
:103DA000C701EDD3C859DF4079F603C0C559DF40DC
:103DB00029F080E090E0A0E8BFE704C080E090E058
:103DC000A0ECBFE7BC01CD01AFC0412C512C3201AA
:103DD000E12CF12C2C2F20532A3008F5E92DE2603C
:103DE000BE2E892D887092FE06C081111FC0FFEF84
:103DF000EF1AFF0A1BC0882319F081E0E81AF108C6
:103E000040E2C301B20102DE2B013C01683979496D
:103E10008949994158F0F92DF660BF2E07C02E3F11
:103E200081F493FC0EC0292D2860B22E0150110997
:103E300039F0C6010AD3EC019B2C97FFCBCF01C010
:103E40009B2C91FE81CFCE018F7D992785349105E2
:103E500009F03EC0580181E0A81AB10809F474CFF6
:103E6000C601F3D2EC0197FD6FCF99278B329105F4
:103E700029F08D9761F4E92DE0619E2E5801F2E062
:103E8000AF1AB10809F460CFC601DFD2EC01CE0150
:103E9000C0970A9708F058CF8501A12CB12CB50125
:103EA000BB0C880B990B2C2F205340E2AFDD5B013C
:103EB0000150110931F0C601C8D2EC01C0970A9730
:103EC00070F394FE03C0B194A194B108EA0CFB1CFA
:103ED000012B29F0D7FD03C0B601CE0150D3C30199
:103EE000B20198D8F7FE06C0F194E194F108C1EB55
:103EF000DFE002C0C9ECDFE06E0128E1C21AD108A0
:103F000000E210E0E016F10648F0FE01259135913F
:103F1000459154917AD9E01AF10AF4CF2497169575
:103F20000795CC16DD0671F797FE05C0DC01CB01C5
:103F3000B058BC01CD012114310429F0F101608396
:103F400071838283938381E0DF91CF911F910F91E1
:103F5000FF90EF90DF90CF90BF90AF909F907F90B9
:103F60006F905F904F903F902F900895A0E0B0E049
:103F7000EBEBFFE120C15C01EB014A01FC01178280
:103F80001682612CF5010381FE0103FD859103FF7B
:103F90008191182FEF01882309F400C190E016D217
:103FA000892B19F0C50159DDEDCF153241F4FE0121
:103FB00003FD159103FF1191EF01153271F4C50155
:103FC00044D297FDE9C0412F50E09C0133272417CC
:103FD0003507C1F2B501D3D2E1C01A3241F403FD75
:103FE000159103FF1191EF017724739401C0712C97
:103FF000E12CF12C20ED210F2A3080F4F72DF26016
:104000007F2EB70180E090E040E200DD7B01FE0101
:1040100003FD159103FF1191EF01ECCF71FE04C078
:10402000E114F10421F4BAC0EE24EA94FE2C18360F
:1040300019F01C3661F014C0FE0103FD159103FF59
:104040001191EF01183661F4872D8860782E972D35
:104050009460792EFE0103FD159103FF1191EF018C
:10406000112309F49BC0612F70E080E89FE0BED16E
:10407000892B09F493C070FC07C0F401C080D18083
:10408000C40102964C0102C0C12CD12C1E3649F449
:10409000F5014681578160E070E0272DC601AADC5A
:1040A00071CF1336B1F471FC03C0EE24E394F12C0C
:1040B000C501CBD197FD70C0C114D10429F0F60120
:1040C0008083C60101966C0191E0E91AF10881F73D
:1040D0005FC01B3551F49E01A601B701C50153DD38
:1040E000EC01892B09F054C04EC0C501B6DC97FD28
:1040F00053C01F36C9F140F4143691F11936B9F1A5
:10410000183509F03AC028C01337A9F018F4103751
:1041100019F133C0153721F11837F1F02EC0C11451
:10412000D10429F0F6010083C60101966C0191E0EB
:10413000E91AF10859F0C50188D18C0197FD06C034
:1041400045D1892B61F3B501C80119D2C114D1043D
:10415000F9F0F60110821CC0F72DF0647F2E07C025
:10416000872D8062782E03C0972D9061792E272DA0
:10417000A601B701C50187DC04C0A601B701C501CE
:10418000C0DD811105C0F5018381807329F406C06B
:1041900070FCF8CE6394F6CE662019F0862D90E080
:1041A00002C08FEF9FEFCDB7DEB7EEE020C02F92B9
:1041B0003F924F925F926F927F928F929F92AF92B7
:1041C000BF92CF92DF92EF92FF920F931F93CF9304
:1041D000DF93CDB7DEB7CA1BDB0B0FB6F894DEBF9B
:1041E0000FBECDBF09942A88398848885F846E84C1
:1041F0007D848C849B84AA84B984C884DF80EE800B
:10420000FD800C811B81AA81B981CE0FD11D0FB613
:10421000F894DEBF0FBECDBFED010895283008F041
:1042200027E03327DA01990F311D87FD9160009651
:104230006105710539F432602E5F3D9330E32A95B4
:10424000E1F708959F3F30F080387105610509F06E
:104250003C5F3C5F3D93913008F08068911DDF9397
:10426000CF931F930F93FF92EF92192F987F9695FC
:10427000E92F96959695E90FFF27E859FE4F992764
:104280003327EE24FF24A701E70105900894079443
:1042900028F4360FE71EF81E491F511D660F771FC1
:1042A000881F991F0694A1F70590079428F4E70E3C
:1042B000F81E491F561FC11D770F881F991F661FC3
:1042C0000694A1F70590079428F4F80E491F561F8D
:1042D000C71FD11D880F991F661F771F0694A1F76E
:1042E0000590079420F4490F561FC71FD81F990F38
:1042F000661F771F881F0694A9F784911095177081
:1043000041F0D695C79557954795F794E7941A9538
:10431000C1F7EEE0F1E06894159015913591659143
:10432000959105907FE27395E118F10A430B560BC6
:10433000C90BD009C0F7E10CF11E431F561FC91F5E
:10434000D01D7EF4703311F48A95E6CFE8940150C5
:1043500030F0080F0AF40027021708F4202F2395E5
:10436000022F7A3328F079E37D932A95E9F710C07C
:104370007D932A9589F606949795679537951795B5
:104380001794E118F10A430B560BC90BD00998F0AA
:1043900023957E9173957A3308F070E37C93201314
:1043A000B8F77E9170617D9330F0839571E37D93D2
:1043B00070E32A95E1F71124EF90FF900F911F9180
:1043C000CF91DF91992787FD9095089591114EC166
:1043D000803219F089508550D0F7089591110895D1
:1043E00081548A5108F4805E855A0895FC01059035
:1043F000061621F00020D9F7C00108953197CF01AA
:104400000895FC010590615070400110D8F7809527
:1044100090958E0F9F1F0895FB01DC014150504085
:1044200030F08D910190801919F40020B9F7881BA4
:10443000990B0895FC016150704001900110D8F76C
:10444000809590958E0F9F1F0895CF93DF93EC0179
:104450002B8120FF33C026FF0AC02F7B2B838E8148
:104460009F8101969F838E838A8190E029C022FFDD
:104470000FC0E881F9818081082E000C990B00970C
:1044800019F420622B831AC03196F983E8830EC099
:10449000EA85FB85099597FF09C02B81019611F0EC
:1044A00080E201C080E1822B8B8308C02E813F8196
:1044B0002F5F3F4F3F832E83992702C08FEF9FEFDF
:1044C000DF91CF9108950F931F93CF93DF93FB015B
:1044D000238121FD03C08FEF9FEF2CC022FF16C068
:1044E00046815781248135814217530744F4A081C6
:1044F000B1819D012F5F3F4F318320838C932681B3
:1045000037812F5F3F4F3783268314C08B01EC0127
:10451000FB010084F185E02D0995892BE1F6D80196
:1045200016968D919C911797019617969C938E9352
:104530001697CE01DF91CF911F910F910895AEE0B4
:10454000B0E0E4EAF2E241CE0D891E8986E08C8378
:104550001A8309838FEF9FE79E838D83AE01475EA9
:104560005F4F6F89788DCE0101960E949B19EF8174
:10457000F885E00FF11F10822E96E4E042CEFB0199
:10458000238120FF12C026FD10C08F3F3FEF93070D
:1045900061F082832F7D206423832681378121501F
:1045A000310937832683992708958FEF9FEF089568
:1045B000FA01AA27283051F1203181F1E8946F9354
:1045C0006E7F6E5F7F4F8F4F9F4FAF4FB1E03ED0FA
:1045D000B4E03CD0670F781F891F9A1FA11D680F98
:1045E000791F8A1F911DA11D6A0F711D811D911DCB
:1045F000A11D20D009F468943F912AE0269F112440
:104600003019305D3193DEF6CF010895462F4770A3
:10461000405D4193B3E00FD0C9F7F6CF462F4F70FE
:10462000405D4A3318F0495D31FD4052419302D05C
:10463000A9F7EACFB4E0A695979587957795679502
:10464000BA95C9F700976105710508959B01AC0102
:104650000A2E06945795479537952795BA95C9F729
:10466000620F731F841F951FA01D08959927882727
:064670000895F894FFCF4D
:104676000083100000010410000001820800000100
:1046860000000000802500000000080000C841026C
:104696000000000000803F00000000000000000055
:1046A6000000000000000000000000000000000004
:1046B60000000000000000000000003400CA00C432
:1046C60001B80394095813E026786120C34D45418B
:1046D600530A0025663A25670D004D454153316E54
:1046E6006D0A0025643A25670D005241570025647E
:1046F6000D004441524B0041434B0A005743434689
:1047060000574343462F25673A25673A25673A25DA
:10471600673A25673A25670A0053543F0053542FDA
:1047260025633A252E33660A004558502F00455812
:10473600502F4155544F004558502F313030757326
:10474600004558502F3230307573004558502F357C
:1047560030307573004558502F316D7300455850F1
:104766002F326D73004558502F356D7300455850E4
:104776002F31306D73004558502F32306D73004520
:1047860058502F35306D73004558502F3130306DED
:0847960073004E414B0A0000C4
:00000001FF
