:100000005EC2000078C2000076C2000074C2000028
:1000100072C2000070C200006EC200006CC200001C
:100020006AC2000068C200000C94D40C0C94A10DAC
:1000300062C2000060C200005EC200005CC200003C
:100040005AC2000058C2000056C2000054C200004C
:1000500052C2000050C200004EC200004CC200005C
:100060004AC2000048C2000046C2000044C200006C
:1000700042C2000040C200003EC200003CC200007C
:100080003AC2000038C2000036C2000034C200008C
:1000900032C2000030C200002EC200002CC200009C
:1000A0002AC2000028C2000026C20000080000008A
:1000B000BE922449123EABAAAA2ABECDCCCC4C3E5D
:1000C00000000080BEABAAAAAA3E00000000BF004C
:1000D0000000803F0000000000084178D3BB438748
:1000E000D1133D190E3CC3BD4282AD2B3E68EC825C
:1000F00076BED98FE1A93E4C80EFFFBE01C4FF7FE1
:100100003F00000000006E616E00696E66000040F6
:100110007A10F35A00A0724E18090010A5D4E80016
:1001200000E87648170000E40B54020000CA9A3B2E
:10013000000000E1F50500008096980000004042B4
:100140000F000000A0860100000010270000000042
:10015000E803000000006400000000000A00000046
:1001600000000100000000002C76D888DC674F08F2
:1001700023DFC1DFAE59E1B1B796E5E3E453C63AF8
:10018000E651997696E8E6C28426EB898C9B62ED6F
:10019000407C6FFCEFBC9C9F40F2BAA56FA5F49029
:1001A000055A2AF75C936B6CF9676DC11BFCE0E4A0
:1001B0000D47FEF520E6B500D0ED902E03009435F6
:1001C00077050080841E080000204E0A000000C849
:1001D0000C333333330F986E12831141EF8D21149A
:1001E000893BE65516CFFEE6DB18D1844B381BF76A
:1001F0007C1D901DA4BBE424203284725E22810009
:10020000C9F124ECA1E53D2707000B000F00120007
:1002100016001A001E002200260029002D003100C1
:10022000350039003D004100450049004D005200B5
:1002300056005A005E00630067006C007000750095
:1002400079007E00830087008C00910096009B005F
:10025000A100A600AB00B100B600BC00C200C800FF
:10026000CE00D400DB00E10050CB0F4D50CB0F4D42
:1002700050CB0F4D615E214D4B01204D0C471B4D66
:10028000C2992A4D33DC4A4D61CC5F4D51A7604D78
:10029000BCDC524DF650484D52C0504DC422564D14
:1002A00038FE664DBA38754D9854824DF2F4744D4F
:1002B0006EA5624DA96E584D1CE95B4D22995F4DAC
:1002C00062BC5B4D5476544D1A504F4D7D1C4B4DC6
:1002D000917C484D344A484DE03C464DD250414D0A
:1002E000149B3D4D0F05374DBDB02F4D2942284D74
:1002F000B241264D0C6B1A4DDD52124D1FBD0B4DF8
:10030000329E0A4D3F84024D0D88F94C1C3CF14C45
:1003100019EDF04CC7D1E44CB6CFD74C0CFAC34C16
:100320000CFAC34C0CFAC34C00009C43CDCC2C40BF
:100330001E1B81BA980A1EB7FBDF8C321333B5AC93
:1003400055565649535350454300435031353000BC
:1003500043503135303231413032373836004A017E
:1003600054015E01680172017C01860190019A01CD
:10037000A401AE01B801C201CC01D601E001EA013D
:10038000F401FE01080212021C02260230023A02A7
:1003900044024E02580262026C02760280028A0215
:1003A00094029E02A802B202BC02C602D002DA0285
:1003B000E402EE02F80202030C031603200317B74F
:1003C000D13817B751396F12033A6F12833A6F124F
:1003D000033B0AD7A33B0AD7233C0AD7A33CCDCC87
:1003E0004C3DCDCCCC3D24034D0069006E0069002E
:1003F00020005300700065006300740072006F00FD
:100400006D00650074006500720000000E034F006F
:100410005000540043004F004D0000000403090445
:1004200009023E00020100C032090400000102027C
:100430000100052400100104240206052406000121
:10044000070582030800FF09040100020A000000FA
:1004500007050402100005070583021000051201BC
:10046000100102000008A321012001000102DC01AB
:100470006364696E6F70737578585B65666745462F
:100480004700616E006E66696E69747900CDCCCCF0
:100490003D0AD7233C17B7D13877CC2B329595E658
:1004A000241FB14F0A000020410000C84200401C38
:1004B0004620BCBE4CCA1B0E5AAEC59D740011240A
:1004C0001FBECFEFDAE0DEBFCDBF11E0A0E0B1E0AC
:1004D000E8EBFAE302C005900D92A03FB107D9F70F
:1004E00028E0A0EFB1E001C01D92A83FB207E1F7FC
:1004F000D4D70C945A1D84CD4F925F926F927F9205
:100500008F929F92AF92BF92CF92DF92EF92FF9223
:10051000CF93DF93CDB7DEB760970FB6F894DEBF09
:100520000FBECDBFE8E2F3E085909590A590B49022
:10053000ECE2F3E04590559065907490E0E3F3E0D1
:10054000259135914591549129833A834B835C835E
:10055000E4E3F3E025913591459154912D833E8359
:100560004F835887E8E3F3E0259135914591549105
:1005700029873A874B875C87ECE3F3E02591359137
:10058000459154912D873E874F87588BBC01990F19
:10059000880B990B0E942D126B017C019B01AC0111
:1005A000C301B2010E942613A50194010E942A11E1
:1005B0004B015C01A701960169817A818B819C8145
:1005C0000E942613A70196010E9426139B01AC01ED
:1005D000C501B4010E942A114B015C01A7019601DB
:1005E0006D817E818F8198850E942613A7019601D7
:1005F0000E942613A70196010E9426139B01AC01BD
:10060000C501B4010E942A114B015C01A7019601AA
:1006100069857A858B859C850E942613A7019601A2
:100620000E942613A70196010E942613A701960196
:100630000E9426139B01AC01C501B4010E942A113E
:100640004B015C01A70196016D857E858F85988998
:100650000E942613A70196010E942613A701960166
:100660000E942613A70196010E942613A701960156
:100670000E9426139B01AC01C501B4010E942A11FE
:1006800060960FB6F894DEBF0FBECDBFDF91CF915D
:10069000FF90EF90DF90CF90BF90AF909F908F90A2
:1006A0007F906F905F904F9008950895089580E037
:1006B00091E00C94620F80E091E00C947810089522
:1006C0000000000000000000000008958F929F923B
:1006D000AF92BF92CF92DF92EF92FF9280E480932D
:1006E0007C0080917C00876080937C0010927B006E
:1006F00080917B0080937B0087EC80937A008091CF
:100700007A0086FDFCCF609178008091790070E0DE
:10071000782B7370072E000C880B990B0E942D12FA
:1007200020E030EC4FE754E40E94921120E030E0EA
:1007300040EA50E40E9426134B015C019B01AC018E
:1007400060E070E080EA90E40E9429116B017C0176
:1007500020E030E0A9010E948E11882369F020E09A
:1007600030E44CE156E4C501B4010E942613A70110
:1007700096010E94921103C060E070E0CB0120E07E
:1007800030E44CE156E40E9492110E94E61220E00F
:1007900030EB46E555E40E9492112FE03FEC4BE52B
:1007A0005BE30E942A119B01AC0160E070E080E8ED
:1007B0009FE30E94921123E333E948E853E40E9447
:1007C0002911FF90EF90DF90CF90BF90AF909F9056
:1007D0008F90089580D6209A289A0895CF932898CC
:1007E000000080E081D6C82F80E07ED6289ACF71A5
:1007F00040E8C49F900111248695A901482BCA01A5
:10080000CF910895819A8998859A8D98E8E8F6E0C5
:1008100088EC98E0119211928E179F07D9F7E8ECB7
:10082000F5E028E032E0119211921192119280E0ED
:1008300090E0D901A80FB91F1D921C92805A9F4FBA
:10084000803C43E09407A9F72E5F3F4F86E0E838ED
:10085000F80749F708952F923F924F925F926F9257
:100860007F928F929F92AF92BF92CF92DF92EF9240
:10087000FF920F931F93CF93DF93CDB7DEB72A97E5
:100880000FB6F894DEBF0FBECDBF28E836E03A833E
:10089000298358ECA52E58E0B52EF901119211923A
:1008A00038E0E83CF307D1F789980ADF899A08DF36
:1008B00089988D9A05DF03E010E0899A01DF899815
:1008C000FFDE01501109C9F7C12CD12C76018091AE
:1008D0001F0190912001A0912101B0912201C81621
:1008E000D906EA06FB0654F4899AEADE8998E8DE1E
:1008F0008FEFC81AD80AE80AF80AE9CF8D9808E5F8
:1009000010E0899ADDDE8998DBDE01501109C9F714
:1009100065DFE981FA8181939193FA83E983899A6A
:10092000CFDE8998CDDE29813A81A216B30681F700
:100930000EE513E048E0242E42E0342E88EC95E0EA
:100940009A838983F8012591349138872F83F101A7
:10095000A590B490750131E0E31AF108C701CCDD30
:100960002B013C01C501C8DD6B837C838D839E8395
:10097000F701EE0FFF1FE857F94F80809180F501D6
:10098000EE0FFF1FE857F94F808191819A87898781
:10099000F501EE0FFF1FEC57F94F60817181680D73
:1009A000791D680F791F072E000C880B990B0E9488
:1009B0002D1220E030E040E450E40E9492116B01DF
:1009C0007C01F501EE0FFF1FE657F94F29853A85A7
:1009D000820E931E60817181680D791D072E000CB7
:1009E000880B990B0E942D1220E030E040E450E487
:1009F0000E949211A70196010E9429114B015C01EE
:100A0000EF81F885BF01FF0F880B990B0E942D1213
:100A1000A30192010E9429119B01AC01C501B401FF
:100A20000E9426134B015C01A30192016B817C8122
:100A30008D819E810E9429119B01AC01C501B401E9
:100A40000E949211A70196010E942A116B017C015C
:100A500020E030E0A9010E948E1187FF03C0C12C65
:100A6000D12C7601E981FA81C192D192E192F19281
:100A7000FA83E9830E5F1F4FF2E02F0E311C2EEB3D
:100A800033E02017310709F05DCF2A960FB6F894AE
:100A9000DEBF0FBECDBFDF91CF911F910F91FF90B1
:100AA000EF90DF90CF90BF90AF909F908F907F900E
:100AB0006F905F904F903F902F900895CF92DF926C
:100AC000EF92FF92CF93DF93C0901B01D0901C0157
:100AD000E0901D01F0901E0120E030E040E252E481
:100AE000C701B6010E94DD121816D4F0A7019601C5
:100AF0006091FE017091FF018091000290910102CE
:100B00000E9429119F77D1E0C0E020E030E040E072
:100B100050E40E94DD1287FDD0E08D2F9C2F02C093
:100B200082E090E0DF91CF91FF90EF90DF90CF9047
:100B3000089568DE4FDE84B7877F84BF0FB6F894D0
:100B4000A895809160008861809360001092600099
:100B50000FBE90E080E80FB6F89480936100909308
:100B600061000FBE04C72F923F924F925F926F9227
:100B70007F928F929F92AF92BF92CF92DF92EF922D
:100B8000FF920F931F93CF93DF9380910202909176
:100B900003029C01220F331F220F331FA90142546D
:100BA0005C4F1A01C8ECD5E058E6E52E52E0F52E70
:100BB00020E6289F6001299FD00C112400E010E05E
:100BC000F801EC0DFD1DE85FFD4F60817181072E7E
:100BD000000C880B990B0E942D129B01AC016881BF
:100BE00079818A819B810E9429114B015C0120E05F
:100BF00030E0A9010E948E1187FF03C0812C912C47
:100C00005401F7012591359145915491F101459099
:100C1000559065907490C501B4010E949211A30192
:100C200092010E9492114B015C012FE530E749E8E7
:100C300050E30E948E1187FD05C088829982AA82A6
:100C4000BB8204C0188219821A821B8224960E5F0E
:100C50001F4F54E0E50EF11C0036110509F0B0CF2E
:100C6000DF91CF911F910F91FF90EF90DF90CF9088
:100C7000BF90AF909F908F907F906F905F904F90BC
:100C80003F902F9008956F927F928F929F92AF9294
:100C9000BF92CF92DF92EF92FF920F931F93CF9369
:100CA000DF938091040290910502892B09F447C0DB
:100CB00001E211E0CFEFDFEF82E090E0A0E0B0E0F2
:100CC00080931F0190932001A0932101B0932201F2
:100CD000C2DD38EC832E35E0932E612C712CA12CD3
:100CE000B12CF401C190D190E190F1904F019301AA
:100CF000A501C701B6010E948E1187FD02C0360111
:100D00005701F8E48F16FAE09F0659F720E030E02B
:100D10004AE754E4B301C5010E94DD1287FF3CC0DD
:100D200021960E5F1F4FC930D105B1F1C930D105F1
:100D300018F6F80180819181A0E0B0E0C1CF8091E8
:100D400002029091030201978930910550F4880FB7
:100D5000991FFC01ED5DFE4F80819181A0E0B0E024
:100D600004C082E090E0A0E0B0E080931F01909387
:100D70002001A0932101B0932201DF91CF911F9117
:100D80000F91FF90EF90DF90CF90BF90AF909F902A
:100D90008F907F906F905FCDDF91CF911F910F91DA
:100DA000FF90EF90DF90CF90BF90AF909F908F908B
:100DB0007F906F9008952F923F924F925F926F9223
:100DC0007F928F929F92AF92BF92CF92DF92EF92DB
:100DD000FF920F931F93CF93DF93CDB7DEB7629748
:100DE0000FB6F894DEBF0FBECDBF28E032E03C83E3
:100DF0002B838EE593E098878F83E8E0F2E0FA8713
:100E0000E98721E231E03E832D8322242A94322C8B
:100E100082E090E0A0E0B0E080931F019093200179
:100E2000A0932101B093220116DD1A821982EF816D
:100E3000F88525913491388B2F87E985FA8585913E
:100E400094919A8B898B8C0101501109C80154DB54
:100E50006B017C0189899A894FDB6B877C878D8741
:100E60009E87000F111FF801E857F94F60817181CB
:100E7000072E000C880B990B0E942D124B015C0170
:100E8000E989FA89EE0FFF1FE857F94F60817181F8
:100E9000072E000C880B990B0E942D12A5019401BE
:100EA0000E9429112B013C012F853889B901330F8C
:100EB000880B990B0E942D12A70196010E942911FF
:100EC0009B01AC01C301B2010E9426132B013C011E
:100ED000A70196016B857C858D859E850E942911D1
:100EE0009B01AC01C301B2010E949211A5019401C2
:100EF0000E942A116B017C0120E030E0A9010E94D0
:100F00008E1187FF03C0C12CD12C76018B819C816F
:100F1000E981FA818E0F9F1F9C878B87C701B601DD
:100F20000E94FA11EB85FC857183608329813A81E7
:100F30002E5F3F4F3A8329832036310509F077CF62
:100F40003FEF231A330A8B819C81805A9F4F9C83E9
:100F50008B83EF81F8853296F887EF8329853A8570
:100F60002E5F3F4F3A8729878D819E8102969E830F
:100F70008D8399E02916310461F039E0231631049C
:100F800008F046CFED81FE8180819181A0E0B0E044
:100F900043CF9CDB6093FE017093FF0180930002BE
:100FA0009093010262960FB6F894DEBF0FBECDBFDC
:100FB000DF91CF911F910F91FF90EF90DF90CF9035
:100FC000BF90AF909F908F907F906F905F904F9069
:100FD0003F902F90089580E091E00E94261018160F
:100FE00019069CF42091C8083091C908F901E6530C
:100FF000F74F80832F5F3F4F3093C9082093C80875
:101000000A9719F481E08093EA0808952F923F929D
:101010004F925F926F927F928F929F92AF92BF9208
:10102000CF92DF92EF92FF920F931F93CF93DF93B4
:10103000CDB7DEB7C456D1090FB6F894DEBF0FBEE8
:10104000CDBF8091EA08882309F40DC21092EA0806
:1010500045E050E065E371E08AEC98E00E942D1CC9
:10106000892B09F046C00FDE7EDD2EE5E22E23E05F
:10107000F22E08EC15E030E2932ECE0101966C01C1
:101080004BE3A42E41E0B42EF70185919491D60153
:10109000E92D1D92EA95E9F7D8012C9111963C9122
:1010A000119712964C91129713965C910C5F1F4FFB
:1010B0005F934F933F932F939F938F93BF92AF92E2
:1010C000DF92CF920E94C01CB60180E091E01FD752
:1010D000B2E0EB0EF11C0FB6F894DEBF0FBECDBF31
:1010E000F6E008381F0781F66AE080E091E02FD72C
:1010F000AFC143E050E062E471E08AEC98E00E9406
:101100002D1C892B71F5BFDD08E816E080E1B82EB3
:10111000CE0101967C0196E4C92E91E0D92ED7012B
:10112000EB2D1D92EA95E9F7D8018C9111969C91CF
:101130000E5F1F4F9F938F93DF92CF92FF92EF929C
:101140000E94C01CB70180E091E0E1D60F900F90A3
:101150000F900F900F900F90B8E0083C1B07F9F626
:10116000C3CF44E050E06AE471E08AEC98E00E946A
:101170002D1C892B11F41FDE63C143E050E064E5B0
:1011800071E08AEC98E00E942D1C892B09F04EC07A
:10119000FE0131961F0184E6DF011D928A95E9F771
:1011A000ECE3F3E00591159125913491E8E3F3E048
:1011B0004590559065907490E4E3F3E085909590A8
:1011C000A590B490E0E3F3E0C590D590E590F4905D
:1011D000ECE2F3E04591559165917491E8E2F3E01A
:1011E00085919591A591B4913F932F931F930F9360
:1011F0007F926F925F924F92BF92AF929F928F9227
:10120000FF92EF92DF92CF927F936F935F934F9312
:10121000BF93AF939F938F9389E591E09F938F93B3
:101220003F922F920E94C01CB10136C043E050E0B3
:1012300061E771E08AEC98E00E942D1C892BA9F5EA
:101240008E010F5F1F4F80E4D8011D928A95E9F748
:101250008091060290910702009721F0019721F0FA
:1012600085E403C082E501C087E590911E019F934C
:1012700090911D019F9390911C019F9390911B0150
:101280009F931F928F9385E791E09F938F931F9376
:101290000F930E94C01CB80180E091E038D60FB6D1
:1012A000F894DEBF0FBECDBFD3C044E050E061E88C
:1012B00071E08AEC98E00E942D1C892B09F0C3C0D4
:1012C00048E050E066E871E08AEC98E00E942D1C4E
:1012D000892B39F481E090E0909305028093040219
:1012E000AFC049E050E06FE871E08AEC98E00E94FE
:1012F0002D1C892B49F410920502109204021092C1
:101300000302109202029CC049E050E069E971E0DA
:101310008AEC98E00E942D1C892B39F4109205026A
:101320001092040281E090E087C049E050E063EA57
:1013300071E08AEC98E00E942D1C892B39F4109200
:1013400005021092040282E090E076C047E050E08F
:101350006DEA71E08AEC98E00E942D1C892B39F42B
:10136000109205021092040283E090E065C047E00D
:1013700050E065EB71E08AEC98E00E942D1C892B0F
:1013800039F4109205021092040284E090E054C0F7
:1013900047E050E06DEB71E08AEC98E00E942D1C74
:1013A000892B39F4109205021092040285E090E036
:1013B00043C048E050E065EC71E08AEC98E00E94A0
:1013C0002D1C892B39F4109205021092040286E03C
:1013D00090E032C048E050E06EEC71E08AEC98E0BA
:1013E0000E942D1C892B39F41092050210920402E0
:1013F00087E090E021C048E050E067ED71E08AECC2
:1014000098E00E942D1C892B39F41092050210924D
:10141000040288E090E010C049E050E060EE71E026
:101420008AEC98E00E942D1C892B51F41092050241
:101430001092040289E090E09093030280930202EC
:101440006FE471E002C06AEE71E080E091E05FD588
:1014500080E2EAECF8E0DF011D928A95E9F710924C
:10146000C9081092C808CC59DF4F0FB6F894DEBFF8
:101470000FBECDBFDF91CF911F910F91FF90EF90E5
:10148000DF90CF90BF90AF909F908F907F906F90A4
:101490005F904F903F902F9008954BDB60EF71E08D
:1014A00080E091E011D67894D6D910D90FD9609305
:1014B0001B0170931C0180931D0190931E01FEDAA5
:1014C0009093070280930602A1DD85DD80E091E024
:1014D000A7D5DED4EBCF84B1866084B980E58CBD1E
:1014E0008DB581608DBD08958EBD00000DB407FEE1
:1014F000FDCF8EB50895292F33272230310559F0BD
:101500002330310569F021303105E9F482E190E0C2
:101510002EE534E01CC08EE390E020E234E017C0FA
:1015200099278130910549F028F0029761F4E6EEA1
:10153000F3E005C0ECE1F4E002C0ECE0F4E08491FB
:1015400090E09F0104C080E090E020E030E0FA01EC
:10155000318320830895CF92DF92EF92FF920F9311
:101560001F93CF93DF93EC018B017A018DD1811111
:1015700032C0E114F10439F0F70180819181081B38
:10158000190BC80FD91FC12CD12C0115110511F150
:101590008091E80085FD15C08091E8008E778093EA
:1015A000E800E114F10449F0F70180819181C80E4F
:1015B000D91ED182C08285E00EC066D1882329F36E
:1015C0000AC089918093F10001501109FFEFCF1AF1
:1015D000DF0ADBCF80E0DF91CF911F910F91FF9069
:1015E000EF90DF90CF9008952091F6083091F708A2
:1015F0002617370748F06115710539F42091E80086
:101600002E772093E80001C0B901FC0120E06115AC
:10161000710579F18091EF088823F1F18530F1F1BE
:101620008091E80083FD3CC08091E80082FD2EC0DF
:101630008091E80080FFEBCF2091F3008091F200D1
:1016400090E0922B6115710551F08830910538F4C6
:1016500021912093F100615071090196F3CF21E0AF
:10166000089709F020E08091E8008E778093E800E9
:10167000CECF2111CFCF0AC08091EF08882361F02F
:10168000853061F08091E80083FD0AC08091E80018
:1016900082FFF2CF80E0089582E0089583E008950C
:1016A00081E008952091F6083091F7082617370752
:1016B00048F06115710539F42091E8002E772093E8
:1016C000E80001C0B901FC0120E06115710591F14C
:1016D0008091EF08882309F440C0853009F43FC0A9
:1016E0008091E80083FD3DC08091E80082FD2FC01D
:1016F0008091E80080FFE9CF2091F3008091F20013
:1017000090E0922B6115710559F08830910540F4F5
:1017100024912093F1003196615071090196F2CF26
:1017200021E0089709F020E08091E8008E7780930F
:10173000E800CBCF2111CCCF0AC08091EF088823DD
:1017400061F0853061F08091E80083FD0AC08091EE
:10175000E80082FFF2CF80E0089582E0089583E000
:10176000089581E00895982F973068F59093E900E7
:10177000981739F07091EC002091ED005091F00035
:1017800003C0242F762F50E021FD02C09F5FECCFD5
:101790003091EB003E7F3093EB003091ED003D7FC8
:1017A0003093ED003091EB0031603093EB0070939B
:1017B000EC002093ED005093F0002091EE0027FD07
:1017C000E5CF80E008958F708093E90081E008956F
:1017D0000F931F93CF93DF93062FEC0110E01017A8
:1017E00071F16881611103C01F5F2596F8CF2C81CC
:1017F000A981BA819B81862F8F70873010F080E09D
:101800001FC0223010F442E001C046E0E8E0F0E002
:1018100020E0EA17FB0720F42F5FEE0FFF1FF9CF40
:101820002295207F422B50E4959F90011124661F42
:101830006627661F622B97DF8111D6CFE0CF81E04C
:10184000DF91CF911F910F9108958091F00887FF4C
:1018500011C08091E80082FD05C08091EF088111E0
:10186000F8CF11C08091E8008B770BC08091EF0812
:10187000882349F08091E80080FFF8CF8091E8004C
:101880008E778093E80008952091E4003091E50080
:1018900095E64091EC00842F817040FF23C0809139
:1018A000E80080FD1DC08091EF08882399F0853005
:1018B00099F08091EB0085FD11C04091E4005091BA
:1018C000E5002417350729F3915011F09A01E1CF73
:1018D00084E0089582E0089583E0089581E008950A
:1018E00080E008954091E80042FFDDCF08950F9316
:1018F0001F93CF93DF934BD052D0C8EDD0E08881B7
:101900008F77888388818068888388818F7D8883AA
:1019100019BC1092EF081092EB081092ED0810928B
:10192000EC0800EE10E0F80180818B7F80838881D5
:101930008160888342E060E080E015DFE1EEF0E066
:1019400080818E7F8083E2EEF0E080818160808301
:10195000808188608083F80180818E7F8083888188
:1019600080618883DF91CF911F910F910895E8EDF9
:10197000F0E080818F7E8083E7EDF0E08081816000
:10198000808384E082BF81E08093EE08B0CFE8EDF1
:10199000F0E080818E7F80831092E20008951092A3
:1019A000DA001092E10008951F920F920FB60F9285
:1019B00011242F933F934F935F936F937F938F9354
:1019C0009F93AF93BF93EF93FF938091E10082FFCA
:1019D0000AC08091E20082FF06C08091E1008B7F07
:1019E0008093E10054D28091DA0080FF1FC0809183
:1019F000D80080FF1BC08091DA008E7F8093DA00D0
:101A00008091D90080FF0DC080E189BD82E189BD50
:101A100009B400FEFDCF81E08093EF080E945503DA
:101A200005C019BC1092EF080E9456038091E10096
:101A300080FF18C08091E20080FF14C08091E20016
:101A40008E7F8093E2008091E20080618093E200CB
:101A50008091D80080628093D80019BC85E0809383
:101A6000EF0815D28091E10084FF2FC08091E20041
:101A700084FF2BC080E189BD82E189BD09B400FEED
:101A8000FDCF8091D8008F7D8093D8008091E100B8
:101A90008F7E8093E1008091E2008F7E8093E20050
:101AA0008091E20081608093E2008091EB088823BE
:101AB00011F084E007C08091E30087FD02C081E05F
:101AC00001C083E08093EF08E2D18091E10083FFC1
:101AD00027C08091E20083FF23C08091E100877FCF
:101AE0008093E10082E08093EF081092EB088091F0
:101AF000E1008E7F8093E1008091E2008E7F8093F1
:101B0000E2008091E20080618093E20042E060E0C8
:101B100080E029DE8091F00088608093F000B7D1EA
:101B2000FF91EF91BF91AF919F918F917F916F91B5
:101B30005F914F913F912F910F900FBE0F901F908B
:101B400018951F920F920FB60F9211242F933F9367
:101B50004F935F936F937F938F939F93AF93BF93B5
:101B6000CF93DF93EF93FF93C091E900CF70809103
:101B7000EC00D82FD17080FDD0E81092E900809160
:101B8000F000877F8093F00078941ED01092E900D7
:101B90008091F00088608093F000CD2BCF70C093CF
:101BA000E900FF91EF91DF91CF91BF91AF919F91AC
:101BB0008F917F916F915F914F913F912F910F90F6
:101BC0000FBE0F901F9018951F93CF93DF93CDB743
:101BD000DEB7AA970FB6F894DEBF0FBECDBFE0EF19
:101BE000F8E08091F100819328E0E83FF207C9F71F
:101BF0000E945B038091E80083FF31C18091F0086F
:101C00009091F108953009F483C030F49130A9F136
:101C100068F0933091F123C1983009F4EFC0993006
:101C200009F4FBC0963009F01AC194C0803821F045
:101C3000823809F014C108C08091EC089091ED0839
:101C4000992389F082600FC08091F4088F708730EB
:101C500008F005C18093E9008091EB0085FB88279F
:101C600080F91092E9009091E800977F9093E80046
:101C70008093F1001092F100CCC0282F2D7F09F045
:101C8000EEC0882319F0823061F0E9C08091F2083B
:101C9000813009F0E4C0933009F080E08093ED08D2
:101CA0002EC08091F20881112AC08091F4088F70B3
:101CB0002FEF280F263008F0D2C08093E900209142
:101CC000EB0020FF1CC0933021F48091EB00806278
:101CD00014C09091EB0090619093EB0021E030E014
:101CE000A90102C0440F551F8A95E2F74093EA000C
:101CF0001092EA008091EB0088608093EB001092D4
:101D0000E9008091E800877F8093E8009EDDA7C00E
:101D10008111A5C01091F2081F778091E3008078AF
:101D2000812B8093E3008091E800877F8093E80017
:101D30008CDD8091E80080FFFCCF8091E30080681B
:101D40008093E300111102C082E001C083E0809320
:101D5000EF0885C08058823008F081C08091F20879
:101D60009091F3088C3D53E0950771F583E08A83E9
:101D70008AE289834FB7F894DE01139620E03EE0B3
:101D800051E2E32FF0E050935700E49120FF03C0AD
:101D9000E295EF703F5FEF708E2F90E0EA3010F029
:101DA000C79601C0C0968D939D932F5F243149F74C
:101DB0004FBF8091E800877F8093E8006AE270E07F
:101DC000CE01019611DC14C06091F4087091F50801
:101DD000AE014F5F5F4F8FDBBC01892B09F43FC021
:101DE0009091E800977F9093E80089819A815ADC6E
:101DF0008091E8008B778093E80031C0803879F5D6
:101E00008091E800877F8093E8008091EB088093C1
:101E1000F1008091E8008E7777CF811120C080910A
:101E2000F2089091F30899270297CCF48091E8008A
:101E3000877F8093E8008091F2088093EB0805DDAE
:101E40008091EB08811106C08091E30087FD02C0FC
:101E500081E001C084E08093EF080E9457038091E5
:101E6000E80083FF0AC08091E800877F8093E80044
:101E70008091EB0080628093EB00AA960FB6F894F5
:101E8000DEBF0FBECDBFDF91CF911F9108950895A2
:101E9000CF938091EF08882399F0C091E900CF702B
:101EA0009091EC00892F817090FD80E8C82B1092F2
:101EB000E9008091E80083FD87DECF70C093E900E0
:101EC000CF910895CF93DF93EC01FC0170968BE0E6
:101ED000DF011D928A95E9F782E08C83898783E090
:101EE0008E8761E0CE01019673DC882361F061E0AA
:101EF000CE0106966DDC882331F061E0CE010B96B1
:101F0000DF91CF9165CC80E0DF91CF910895DB0127
:101F10002091EF082430C9F4FC0144895589668971
:101F20007789452B462B472B81F081818F708093D9
:101F3000E900FD0101900020E9F73197BF016A1B1C
:101F40007B0B40E050E0CD0106CB82E008950F937B
:101F50001F93CF932091EF082430F9F4FC010489FA
:101F6000158926893789012B022B032BB1F0C62F47
:101F700081818F708093E9008091E80085FF04C023
:101F8000C093F10080E00AC08091E8008E778093D2
:101F9000E8007ADC8823A1F301C082E0CF911F9191
:101FA0000F910895FB01682F84859585D0DF21E08E
:101FB00030E0811102C020E030E088279927821BA1
:101FC000930B08952091EF08243041F5FC014489DA
:101FD000558966897789452B462B472BF9F08181F6
:101FE0008F708093E9002091F3008091F20090E0DF
:101FF000922B892B89F09091E8008091E8008E77F0
:102000008093E80095FD08C03FDC811108C08091F5
:10201000E8008E778093E80080E0089582E00895DC
:102020002091EF08243089F4FC01448955896689A0
:102030007789452B462B472B41F021812F70209328
:10204000E9002091E80020FDBDCF08952091EF0820
:10205000243019F08FEF9FEF0895FC0144895589D2
:1020600066897789452B462B472BA1F386818F7094
:102070008093E9008091E80082FFECCF2091F3008B
:102080008091F20090E0922B892B21F02091F100B9
:1020900030E002C02FEF3FEF4091F3008091F2005B
:1020A00090E0942B892B29F48091E8008B77809322
:1020B000E800C9010895FC0184859585C7DF97FF75
:1020C00002C08EEF9FEF0895FB012EE0DB011D9211
:1020D0002A95E9F723E0238322ED3FE0318720872B
:1020E0002BE530E13387228795878487089508950B
:1020F000CF93DF93EC018091E80083FFA7C0888134
:1021000090E02091F4083091F5082817390709F07C
:102110009DC08091F108813261F020F4803209F491
:102120003EC094C0823209F46CC0833209F47EC090
:102130008DC08091F008813A09F088C08091E80054
:10214000877F8093E8008091E80080FFFCCF8C8936
:102150009D89AE89BF898093F100492F5A2F6B2F3B
:1021600077274093F100AD01662777274093F10070
:102170008B2F9927AA27BB278093F100888D809306
:10218000F100898D8093F1008A8D8093F100809118
:10219000E8008E778093E800DF91CF9156CB809155
:1021A000F008813209F052C08091E800877F809367
:1021B000E8008091E80082FD05C08091EF08811160
:1021C000F8CF44C03091F1002091F1009091F100DE
:1021D0008091F1003C8B2D8B9E8B8F8B8091F10039
:1021E000888F8091F100898F8091F1008A8F809192
:1021F000E8008B778093E80028DBCE01DF91CF9158
:1022000076CF8091F008813209F58091E800877FD0
:102210008093E8001ADB8091F2089091F308998B83
:10222000888BCE01DF91CF910C945F038091F008F1
:10223000813261F48091E800877F8093E80005DBBC
:102240006091F208CE01DF91CF9151CFDF91CF9114
:1022500008955058BB27AA270ED075C166D130F01B
:102260006BD120F031F49F3F11F41EF45BC10EF4EA
:10227000E095E7FB51C1E92F77D180F3BA176207E8
:1022800073078407950718F071F49EF58FC10EF45B
:10229000E0950B2EBA2FA02D0B01B90190010C0176
:1022A000CA01A0011124FF27591B99F0593F50F48E
:1022B000503E68F11A16F040A22F232F342F4427E6
:1022C000585FF3CF469537952795A795F0405395DE
:1022D000C9F77EF41F16BA0B620B730B840BBAF0AE
:1022E0009150A1F0FF0FBB1F661F771F881FC2F719
:1022F0000EC0BA0F621F731F841F48F4879577952D
:102300006795B795F7959E3F08F0B3CF9395880FE3
:1023100008F09927EE0F979587950895D9D008F47E
:1023200081E008950CD00FC107D140F0FED030F00D
:1023300021F45F3F19F0F0C0511139C1F3C014D13D
:1023400098F39923C9F35523B1F3951B550BBB277C
:10235000AA2762177307840738F09F5F5F4F220F29
:10236000331F441FAA1FA9F333D00E2E3AF0E0E822
:1023700030D091505040E695001CCAF729D0FE2F6E
:1023800027D0660F771F881FBB1F26173707480700
:10239000AB07B0E809F0BB0B802DBF01FF279358B6
:1023A0005F4F2AF09E3F510568F0B6C000C15F3F05
:1023B000ECF3983EDCF3869577956795B795F7959E
:1023C0009F5FC9F7880F911D9695879597F9089596
:1023D000E1E0660F771F881FBB1F62177307840732
:1023E000BA0720F0621B730B840BBA0BEE1F88F741
:1023F000E095089504D06894B111D9C00895BCD077
:1024000088F09F5790F0B92F9927B751A0F0D1F0DD
:10241000660F771F881F991F1AF0BA95C9F712C067
:10242000B13081F0C3D0B1E00895C0C0672F782FDC
:102430008827B85F39F0B93FCCF3869577956795D3
:10244000B395D9F73EF490958095709561957F4F3F
:102450008F4F9F4F0895E89409C097FB3EF49095E5
:102460008095709561957F4F8F4F9F4F9923A9F06D
:10247000F92F96E9BB279395F695879577956795FC
:10248000B795F111F8CFFAF4BB0F11F460FF1BC040
:102490006F5F7F4F8F4F9F4F16C0882311F096E9D3
:1024A00011C0772321F09EE8872F762F05C0662381
:1024B00071F096E8862F70E060E02AF09A95660F3A
:1024C000771F881FDAF7880F9695879597F90895F3
:1024D000990F0008550FAA0BE0E8FEEF1616170635
:1024E000E807F907C0F012161306E407F50798F09D
:1024F000621B730B840B950B39F40A2661F0232BB6
:10250000242B252B21F408950A2609F4A140A69531
:102510008FEF811D811D089597F99F6780E870E016
:1025200060E008959FEF80EC089500240A94161649
:10253000170618060906089500240A9412161306B1
:10254000140605060895092E0394000C11F488233F
:1025500052F0BB0F40F4BF2B11F460FF04C06F5F5B
:102560007F4F8F4F9F4F089557FD9058440F551F31
:1025700059F05F3F71F04795880F97FB991F61F005
:102580009F3F79F087950895121613061406551F7C
:10259000F2CF4695F1DF08C0161617061806991FE8
:1025A000F1CF86957105610508940895E894BB27DD
:1025B00066277727CB0197F908958ADF08F48FEF14
:1025C00008950EF0A6C0AECF6894A6CFD5DFC8F3AD
:1025D0009923D1F3C6F3DF93CF931F930F93FF9209
:1025E000C92FDD2788232AF02197660F771F881FC0
:1025F000DAF720E030E040E85FEB9FE3883920F035
:10260000803E30F021968F7725DEECEAF0E003C0C3
:1026100021DEE9EDF0E08BD08B01BE01EC01FB2E59
:102620006F5771097595771F880B990B16DF28E195
:1026300032E741E35FE316D0AF2D9801AE01FF9082
:102640000F911F91CF91DF9116DE7DCF0BD07BCF05
:102650006CDF28F071DF18F0952309F05DCF62CFB1
:102660001124A5CF81DFA0F3959FD1F3950F50E002
:10267000551F629FF001729FBB27F00DB11D639F34
:10268000AA27F00DB11DAA1F649F6627B00DA11DDA
:10269000661F829F2227B00DA11D621F739FB00D80
:1026A000A11D621F839FA00D611D221F749F3327F0
:1026B000A00D611D231F849F600D211D822F762F89
:1026C0006A2F11249F5750408AF0E1F088234AF086
:1026D000EE0FFF1FBB1F661F771F881F91505040D2
:1026E000A9F79E3F510570F017CF61CF5F3FECF324
:1026F000983EDCF3869577956795B795F795E795BE
:102700009F5FC1F7FE2B880F911D9695879597F9CE
:1027100008959F3F31F0915020F487957795679504
:10272000B795880F911D9695879597F90895DF9332
:10273000CF931F930F93FF92EF92DF927B018C0157
:10274000689405C0DA2EEF018DDFFE01E894A591B3
:102750002591359145915591AEF3EF018CDDFE0148
:102760009701A801DA9479F7DF90EF90FF900F912D
:102770001F91CF91DF910895A0E1B0E0E1ECF3E18A
:1027800037C77C011B016A01FC0117821682838115
:1027900081FF2BC39E012F5F3F4F3901F7019381CA
:1027A000F10193FD859193FF81911F01882309F425
:1027B00018C3853239F493FD859193FF81911F01F0
:1027C000853239F4B70190E00E94841C56016501FE
:1027D000E5CF10E0512C912CFFE1F915D8F08B32A8
:1027E00079F038F4803279F08332A1F4F92DF06178
:1027F0002EC08D3261F0803369F4292D21602DC007
:10280000392D3260932E892D8460982E2AC0E92DAF
:10281000E86015C097FC2DC020ED280F2A3088F401
:1028200096FE06C03AE0139F200D1124122F19C006
:102830008AE0589E200D1124522EE92DE0629E2E32
:1028400010C08E3231F496FCCCC2F92DF0649F2E6C
:1028500008C08C3621F4292D2068922E02C08836BB
:1028600041F4F10193FD859193FF81911F01811145
:10287000B3CF9BEB980F933020F4992D9061805E3D
:1028800007C09BE9980F933008F059C1992D9F7E9E
:1028900096FF16E09F73992E853619F49064992E51
:1028A00008C0863621F4392F3068932E02C01111EA
:1028B000115097FE07C01C3350F444244394410E3A
:1028C00027E00BC0183038F027E017E005C027E0FC
:1028D0009CE3492E02C0212F412C560184E0A80E12
:1028E000B11CF6016081718182819381042DA30165
:1028F000B6D66C01F981FC87F0FF02C0F3FF06C079
:1029000091FC06C092FE06C000E205C00DE203C0C5
:102910000BE201C000E08C858C7019F0011143C2FC
:1029200080C297FE10C04C0CFC85F4FF04C08A8165
:10293000813309F44A94141474F528E0241578F5C9
:1029400088E0482E2CC096FC2AC0812F90E08C1580
:102950009D059CF03CEFC3163FEFD30674F0892D24
:102960008068982E0AC0E2E0F0E0EC0FFD1FE10F56
:10297000F11D8081803319F411501111F4CF97FEAD
:102980000EC044244394410E812F90E0C816D9060E
:102990002CF41C1904C04424439401C010E097FE99
:1029A00006C01C141D0434F4C601019605C085E060
:1029B00090E002C081E090E001110196112331F016
:1029C000212F30E02F5F3F4F820F931F252D30E0E6
:1029D0008217930714F4581A01C0512C892D89705D
:1029E00041F4552031F0B70180E290E08DD75A9440
:1029F000F8CF002321F0B701802F90E085D793FC1A
:102A000008C0552031F0B70180E390E07DD75A949B
:102A1000F8CF97FE4AC04601D7FE02C0812C912C08
:102A2000C60188199909F301E80FF91FFE87ED87A0
:102A3000960124193109388B2F87012F10E0119549
:102A4000019511093FEF8316930621F4B7018EE239
:102A500090E05AD7C814D9044CF08F85988988150E
:102A6000990524F4ED85FE85818101C080E3F1E0C4
:102A70008F1A91082D853E852F5F3F4F3E872D870A
:102A80008016910624F0B70190E03ED7DBCFC81442
:102A9000D90441F49A81963320F4953319F43C8596
:102AA00034FF81E3B70190E048C08A81813319F097
:102AB0009C859F7E9C87B70190E026D7111105C0A9
:102AC00094FC16C085E690E015C0B7018EE290E058
:102AD0001BD71E5F82E001E0080FF301E80FF11D34
:102AE0008081B70190E010D7802F0113F4CFE8CF99
:102AF00085E490E0B70108D7D7FC06C0C114D10423
:102B000041F4EC85E4FF05C0D194C194D1088DE275
:102B100001C08BE2B70190E0F7D680E32AE0C2164D
:102B2000D1042CF08F5FFAE0CF1AD108F7CFB701AC
:102B300090E0EAD6B701C601C096E6D649C1833611
:102B400031F0833779F0833509F052C01FC0560148
:102B500032E0A30EB11CF6018081898301E010E010
:102B6000630111C05601F2E0AF0EB11CF601C08046
:102B7000D18096FE03C0612F70E002C06FEF7FEF3F
:102B8000C60179D68C01F92DFF7713C0560122E0DA
:102B9000A20EB11CF601C080D18096FE03C0612F49
:102BA00070E002C06FEF7FEFC6014CD68C01F92DAB
:102BB000F0689F2EF3FD18C0852D90E008171907C7
:102BC00098F4B70180E290E09FD65A94F5CFF601D1
:102BD00097FC859197FE81916F01B70190E094D6A3
:102BE00051105A94015011090115110581F7F0C0D7
:102BF000843611F0893659F5560197FE09C024E054
:102C0000A20EB11CF60160817181828193810AC09C
:102C1000F2E0AF0EB11CF60160817181072E000C4D
:102C2000880B990BF92DFF769F2E97FF09C0909581
:102C30008095709561957F4F8F4F9F4FF0689F2EC5
:102C40002AE030E0A301D5D6C82EC6183EC0092D13
:102C5000853721F40F7E2AE030E01DC0097F8F36D2
:102C600091F018F4883559F0BCC0803719F08837D6
:102C700011F0B7C0006104FF09C0046007C094FEF2
:102C800008C0066006C028E030E005C020E130E062
:102C900002C020E132E0560107FF09C084E0A80E1F
:102CA000B11CF601608171818281938108C0F2E0DC
:102CB000AF0EB11CF6016081718180E090E0A3014C
:102CC00098D6C82EC6180F77902E96FE0BC0092DE9
:102CD0000E7FC11650F494FE0AC092FC08C0092D64
:102CE0000E7E05C0DC2C092D03C0DC2C01C0D12ECA
:102CF00004FF0DC0FE01EC0DF11D8081803311F445
:102D0000097E09C002FF06C0D394D39404C0802F6B
:102D1000867809F0D39403FD10C000FF06C01C2D77
:102D2000D51478F4150D1D190CC0D51450F4B70145
:102D300080E290E0E9D5D394F8CFD51410F45D1873
:102D400001C0512C04FF0FC0B70180E390E0DCD537
:102D500002FF16C001FD03C088E790E002C088E5CD
:102D600090E0B7010CC0802F867851F001FF02C0BF
:102D70008BE201C080E207FD8DE2B70190E0C4D58F
:102D8000C11630F4B70180E390E0BED51150F8CF02
:102D9000CA94F301EC0DF11D8081B70190E0B4D528
:102DA000C110F6CF15C0F4E0F51550F584E0581ABF
:102DB00093FE1EC0011125C02C8523FF27C006E00D
:102DC00011E0392D3071932EF8018491811121C0C9
:102DD000552009F4FCCCB70180E290E095D55A94D7
:102DE000F7CFF7018681978123C08FEF9FEF20C037
:102DF000B70180E290E088D55A945110F9CFDACF2C
:102E0000512CB701802F90E07FD5D6CF0AE011E09A
:102E1000D8CF91108052B70190E076D50F5F1F4F49
:102E2000D3CF23E0251510F483E0C1CF512CC4CFBC
:102E30006096E2E1F9C320FD09C0FC0123FD05C055
:102E400022FF02C07383628351834083089544FD4F
:102E500017C046FD17C0AB01BC01DA01FB01AA0F88
:102E6000BB1FEE1FFF1F1094D1F74A0F5B1F6E1F91
:102E70007F1FCB01BA01660F771F881F991F09C0FA
:102E800033E001C034E0660F771F881F991F31506F
:102E9000D1F7620F711D811D911D08950F931F932E
:102EA000CF93DF938C01C801F1D4EC0197FD06C0EC
:102EB000AED4892BC1F7B801CE0182D5CE01DF9106
:102EC000CF911F910F910895A0E0B0E0E9E6F7E1FE
:102ED00095C37C018B016A01D22FD8D49C01332782
:102EE0002B32310521F02D32310551F4D0680150DB
:102EF000110911F480E064C0C701C8D497FDFACF6E
:102F0000CD2FCD7F2D2F207309F58033F9F4580193
:102F100081E0A81AB10809F440C0C701B7D497FDF1
:102F20003CC09C012F7D33272835310549F4C2640C
:102F30000250110991F1C701A9D497FF07C02DC014
:102F4000D6FF02C0C26001C0C2618501812C912CF4
:102F5000540120ED280F283078F0C4FF03C0B701DA
:102F60002FD518C02A3040F0C6FFF9CF2F7D3FEE95
:102F7000320F3630A0F727504C2FC501B40167DF60
:102F80004B015C01C2600150110951F0C7017ED4B0
:102F900097FFDFCFC1FD04C0ADCF812C912C540130
:102FA000C7FF08C0B094A09490948094811C911C99
:102FB000A11CB11C2C2FB501A401C6013CDF81E08E
:102FC000CDB7DEB7ECE036C3A0E2B0E0E9EEF7E162
:102FD00011C35C014B017A018E010F5F1F4F680125
:102FE00080E2F80111928A95E9F7F501538040E0FB
:102FF00050E0612C90E0712CA1E0B0E0F90153FCAD
:10300000859153FE81918F01482E9F01811103C04C
:1030100080E090E094C08E3519F44115510551F1CE
:10302000672D70E0641775073CF48D3561F18D32C2
:1030300019F4992311F103C0992309F46BC0842D6D
:10304000869586958695F601E80FF11D842D87708B
:103050008D0102C0000F111F8A95E2F7C80190810F
:10306000892B8083641459F0461410F44394E7CFFD
:103070004A94E5CF7724739403C091E001C090E0B7
:103080004F5F5F4FBBCF992319F08E8180628E8393
:10309000711003C07724739419C0F6019E012F5D4F
:1030A0003F4F8081809581932E173F07D1F7F2CF54
:1030B000E114F10431F0F7018083B7016F5F7F4FB6
:1030C0007B0171E0871A9108712CE9F0C501DED30C
:1030D00097FD17C0FC01FF2723E0F595E7952A959A
:1030E000E1F7EC0DFD1D208130E0AC014770552764
:1030F00002C0359527954A95E2F720FDD9CFB50155
:103100005FD4711085CFE114F10411F0F701108242
:10311000C80115C0682F669566956695F601E60F9D
:10312000F11D682F67708D0102C0000F111F6A9595
:10313000E2F7B8017081672B6083682EA1CFA0965B
:10314000E0E174C22F923F924F925F926F927F9212
:103150009F92AF92BF92CF92DF92EF92FF920F9326
:103160001F93CF93DF936C018B011A018FD3EC0176
:1031700099278B32910529F08D9779F430E8932EB9
:1031800001C0912C0150110911F480E0FEC0C6016C
:103190007DD3EC0197FF02C0F8CF912CCE013FD335
:1031A0008936910531F08E36910581F5C2E8D4E07B
:1031B00002C0C5E8D4E02196FE013197B490BB204F
:1031C000B1F00150110979F0C60160D37C0197FD7F
:1031D0000AC025D39927EB2DF0E08E179F0759F3EE
:1031E000B601C701EDD3C858D44079F603C0C5581D
:1031F000D44029F080E090E0A0E8BFE704C080E080
:1032000090E0A0ECBFE7BC01CD01AFC0412C512C38
:103210003201E12CF12C2C2F20532A3008F5E92D16
:10322000E260BE2E892D887092FE06C081111FC0FB
:10323000FFEFEF1AFF0A1BC0882319F081E0E81A9C
:10324000F10840E2C301B20102DE2B013C01683902
:1032500079498949994158F0F92DF660BF2E07C088
:103260002E3F81F493FC0EC0292D2860B22E015010
:10327000110939F0C6010AD3EC019B2C97FFCBCF83
:1032800001C09B2C91FE81CFCE018F7D9927853483
:10329000910509F03EC0580181E0A81AB10809F46F
:1032A00074CFC601F3D2EC0197FD6FCF99278B3213
:1032B000910529F08D9761F4E92DE0619E2E58016A
:1032C000F2E0AF1AB10809F460CFC601DFD2EC0119
:1032D000CE01C0970A9708F058CF8501A12CB12CD8
:1032E000B501BB0C880B990B2C2F205340E2AFDDAE
:1032F0005B010150110931F0C601C8D2EC01C09741
:103300000A9770F394FE03C0B194A194B108EA0C3B
:10331000FB1C012B29F0D7FD03C0B601CE0150D311
:10332000C301B20198D8F7FE06C0F194E194F10808
:10333000C1EAD4E002C0C9EBD4E06E0128E1C21AB0
:10334000D10800E210E0E016F10648F0FE012591F8
:103350003591459154917AD9E01AF10AF4CF249726
:1033600016950795CC16DD0671F797FE05C0DC01B2
:10337000CB01B058BC01CD012114310429F0F10179
:10338000608371838283938381E0DF91CF911F916A
:103390000F91FF90EF90DF90CF90BF90AF909F90F4
:1033A0007F906F905F904F903F902F900895A0E096
:1033B000B0E0ECEDF9E120C15C01EB014A01FC0158
:1033C00017821682612CF5010381FE0103FD8591B0
:1033D00003FF8191182FEF01882309F400C190E0C9
:1033E00016D2892B19F0C50159DDEDCF153241F404
:1033F000FE0103FD159103FF1191EF01153271F4E8
:10340000C50144D297FDE9C0412F50E09C0133270C
:1034100024173507C1F2B501D3D2E1C01A3241F405
:1034200003FD159103FF1191EF017724739401C0FF
:10343000712CE12CF12C20ED210F2A3080F4F72D96
:10344000F2607F2EB70180E090E040E200DD7B017A
:10345000FE0103FD159103FF1191EF01ECCF71FE09
:1034600004C0E114F10421F4BAC0EE24EA94FE2C65
:10347000183619F01C3661F014C0FE0103FD1591D9
:1034800003FF1191EF01183661F4872D8860782EC3
:10349000972D9460792EFE0103FD159103FF119184
:1034A000EF01112309F49BC0612F70E080E794E0E5
:1034B000BED1892B09F493C070FC07C0F401C08011
:1034C000D180C40102964C0102C0C12CD12C1E3601
:1034D00049F4F5014681578160E070E0272DC6016F
:1034E000AADC71CF1336B1F471FC03C0EE24E3946F
:1034F000F12CC501CBD197FD70C0C114D10429F0C6
:10350000F6018083C60101966C0191E0E91AF10889
:1035100081F75FC01B3551F49E01A601B701C501BB
:1035200053DDEC01892B09F054C04EC0C501B6DC57
:1035300097FD53C01F36C9F140F4143691F1193686
:10354000B9F1183509F03AC028C01337A9F018F4BA
:10355000103719F133C0153721F11837F1F02EC0AB
:10356000C114D10429F0F6010083C60101966C0153
:1035700091E0E91AF10859F0C50188D18C0197FD55
:1035800006C045D1892B61F3B501C80119D2C11418
:10359000D104F9F0F60110821CC0F72DF0647F2EE3
:1035A00007C0872D8062782E03C0972D9061792EF9
:1035B000272DA601B701C50187DC04C0A601B7010C
:1035C000C501C0DD811105C0F5018381807329F437
:1035D00006C070FCF8CE6394F6CE662019F0862DF6
:1035E00090E002C08FEF9FEFCDB7DEB7EEE020C0D6
:1035F0002F923F924F925F926F927F928F929F9203
:10360000AF92BF92CF92DF92EF92FF920F931F93F0
:10361000CF93DF93CDB7DEB7CA1BDB0B0FB6F894A1
:10362000DEBF0FBECDBF09942A88398848885F84E1
:103630006E847D848C849B84AA84B984C884DF8052
:10364000EE80FD800C811B81AA81B981CE0FD11D36
:103650000FB6F894DEBF0FBECDBFED010895283040
:1036600008F027E03327DA01990F311D87FD9160BB
:1036700000966105710539F432602E5F3D9330E3A9
:103680002A95E1F708959F3F30F080387105610574
:1036900009F03C5F3C5F3D93913008F08068911DDC
:1036A000DF93CF931F930F93FF92EF92192F987F81
:1036B0009695E92F96959695E90FFF27E859FE4FC5
:1036C00099273327EE24FF24A701E70105900894EA
:1036D000079428F4360FE71EF81E491F511D660F88
:1036E000771F881F991F0694A1F70590079428F467
:1036F000E70EF81E491F561FC11D770F881F991F1F
:10370000661F0694A1F70590079428F4F80E491F48
:10371000561FC71FD11D880F991F661F771F06945C
:10372000A1F70590079420F4490F561FC71FD81F13
:10373000990F661F771F881F0694A9F7849110952B
:10374000177041F0D695C79557954795F794E7942C
:103750001A95C1F7EEE0F1E0689415901591359156
:103760006591959105907FE27395E118F10A430BFD
:10377000560BC90BD009C0F7E10CF11E431F561FB1
:10378000C91FD01D7EF4703311F48A95E6CFE894FA
:10379000015030F0080F0AF40027021708F4202F18
:1037A0002395022F7A3328F079E37D932A95E9F760
:1037B00010C07D932A9589F606949795679537955D
:1037C00017951794E118F10A430B560BC90BD00952
:1037D00098F023957E9173957A3308F070E37C938B
:1037E0002013B8F77E9170617D9330F0839571E37B
:1037F0007D9370E32A95E1F71124EF90FF900F91EC
:103800001F91CF91DF91992787FD90950895911190
:103810004EC1803219F089508550D0F7089591112A
:10382000089581548A5108F4805E855A0895FC01F8
:103830000590061621F00020D9F7C00108953197B0
:10384000CF010895FC010590615070400110D8F738
:10385000809590958E0F9F1F0895FB01DC014150CC
:10386000504030F08D910190801919F40020B9F783
:10387000881B990B0895FC01615070400190011064
:10388000D8F7809590958E0F9F1F0895CF93DF9363
:10389000EC012B8120FF33C026FF0AC02F7B2B8336
:1038A0008E819F8101969F838E838A8190E029C0BB
:1038B00022FF0FC0E881F9818081082E000C990B4E
:1038C000009719F420622B831AC03196F983E8839C
:1038D0000EC0EA85FB85099597FF09C02B810196EB
:1038E00011F080E201C080E1822B8B8308C02E8121
:1038F0003F812F5F3F4F3F832E83992702C08FEF79
:103900009FEFDF91CF9108950F931F93CF93DF9394
:10391000FB01238121FD03C08FEF9FEF2CC022FF0D
:1039200016C046815781248135814217530744F4DC
:10393000A081B1819D012F5F3F4F318320838C9304
:10394000268137812F5F3F4F3783268314C08B0139
:10395000EC01FB010084F185E02D0995892BE1F64E
:10396000D80116968D919C911797019617969C9366
:103970008E931697CE01DF91CF911F910F910895ED
:10398000AEE0B0E0E5ECFCE141CE0D891E8986E0B9
:103990008C831A8309838FEF9FE79E838D83AE010B
:1039A000475E5F4F6F89788DCE0101960E94BC13F0
:1039B000EF81F885E00FF11F10822E96E4E042CEF1
:1039C000FB01238120FF12C026FD10C08F3F3FEF77
:1039D000930761F082832F7D2064238326813781C2
:1039E0002150310937832683992708958FEF9FEF60
:1039F0000895FA01AA27283051F1203181F1E89485
:103A00006F936E7F6E5F7F4F8F4F9F4FAF4FB1E0D1
:103A10003ED0B4E03CD0670F781F891F9A1FA11DCC
:103A2000680F791F8A1F911DA11D6A0F711D811DCD
:103A3000911DA11D20D009F468943F912AE0269F92
:103A400011243019305D3193DEF6CF010895462FF1
:103A50004770405D4193B3E00FD0C9F7F6CF462FD2
:103A60004F70405D4A3318F0495D31FD405241933B
:103A700002D0A9F7EACFB4E0A695979587957795F8
:103A80006795BA95C9F700976105710508959B017F
:103A9000AC010A2E06945795479537952795BA9508
:103AA000C9F7620F731F841F951FA01D08959927E2
:083AB00088270895F894FFCF68
:103AB80000831000000104100000018208000001CA
:103AC80000000000802500000000080000C8410236
:103AD8000000003400CA00C401B80394095813F068
:103AE8004D786120C34D4541530A0025643A256746
:103AF8000D005241570025640D004441524B0041CE
:103B0800434B0A005743434600574343462F256714
:103B18003A25673A25673A25673A25673A25670AB5
:103B28000053543F0053542F25633A252E33660A19
:103B3800004558502F004558502F4155544F0045C7
:103B480058502F3130307573004558502F3230306F
:103B58007573004558502F353030757300455850EF
:103B68002F316D73004558502F326D7300455850F2
:103B78002F356D73004558502F31306D73004558FF
:103B8800502F32306D73004558502F35306D73000B
:103B98004558502F3130306D73004E414B0A0000AC
:00000001FF
