:10000000C8C70000E3C70000E1C70000DFC7000069
:10001000DDC70000DBC70000D9C70000D7C700005C
:10002000D5C70000D3C700000C94D9160C94A617AE
:10003000CDC70000CBC70000C9C70000C7C700007C
:10004000C5C70000C3C70000C1C70000BFC700008C
:10005000BDC70000BBC70000B9C70000B7C700009C
:10006000B5C70000B3C70000B1C70000AFC70000AC
:10007000ADC70000ABC70000A9C70000A7C70000BC
:10008000A5C70000A3C70000A1C700009FC70000CC
:100090009DC700009BC7000099C7000097C70000DC
:1000A00095C7000093C7000091C70000080000003A
:1000B000BE922449123EABAAAA2ABECDCCCC4C3E5D
:1000C00000000080BEABAAAAAA3E00000000BF004C
:1000D0000000803F0000000000084178D3BB438748
:1000E000D1133D190E3CC3BD4282AD2B3E68EC825C
:1000F00076BED98FE1A93E4C80EFFFBE01C4FF7FE1
:100100003F00000000006E616E00696E66000040F6
:100110007A10F35A00A0724E18090010A5D4E80016
:1001200000E87648170000E40B54020000CA9A3B2E
:10013000000000E1F50500008096980000004042B4
:100140000F000000A0860100000010270000000042
:10015000E803000000006400000000000A00000046
:1001600000000100000000002C76D888DC674F08F2
:1001700023DFC1DFAE59E1B1B796E5E3E453C63AF8
:10018000E651997696E8E6C28426EB898C9B62ED6F
:10019000407C6FFCEFBC9C9F40F2BAA56FA5F49029
:1001A000055A2AF75C936B6CF9676DC11BFCE0E4A0
:1001B0000D47FEF520E6B500D0ED902E03009435F6
:1001C00077050080841E080000204E0A000000C849
:1001D0000C333333330F986E12831141EF8D21149A
:1001E000893BE65516CFFEE6DB18D1844B381BF76A
:1001F0007C1D901DA4BBE424203284725E22810009
:10020000C9F124ECA1E53D27060006000600070021
:1002100007000800080008000900090009000A009A
:100220000A000B000B000B000C000C000C000D0072
:100230000D000E000E000E000F000F000F0010004A
:100240001000110011001100120012001200130022
:1002500013001400140014001500150016001600F9
:1002600016001700170017001800180019001900D1
:1002700019001A001A001A001B001B001C001C00A9
:100280001C001D001D001E001E001E001F001F0080
:100290001F00200020002100210021002200220058
:1002A000230023002300240024002400250025002F
:1002B0002600260026002700270028002800280006
:1002C000290029002A002A002A002B002B002B00DD
:1002D0002C002C002D002D002D002E002E002F00B4
:1002E0002F002F003000300031003100310032008B
:1002F0003200330033003300340034003500350061
:100300003500360036003700370037003800380037
:100310003900390039003A003A003B003B003B000D
:100320003C003C003D003D003D003E003E003F00E3
:100330003F003F00400040004100410041004200BA
:100340004200430043004300440044004500450090
:100350004500460046004700470048004800480066
:10036000490049004A004A004A004B004B004C003B
:100370004C004C004D004D004E004E004F004F0011
:100380004F005000500051005100510052005200E7
:1003900053005300540054005400550055005600BB
:1003A0005600570057005700580058005900590090
:1003B0005A005A005A005B005B005C005C005D0064
:1003C0005D005D005E005E005F005F006000600039
:1003D000600061006100620062006300630063000E
:1003E00064006400650065006600660067006700E1
:1003F000670068006800690069006A006A006B00B5
:100400006B006B006C006C006D006D006E006E0088
:100410006F006F006F00700070007100710072005B
:10042000720073007300740074007400750075002E
:100430007600760077007700780078007900790000
:100440007A007A007B007B007B007C007C007D00D2
:100450007D007E007E007F007F00800080008100A4
:100460008100820082008300830083008400840076
:100470008500850086008600870087008800880048
:10048000890089008A008A008B008B008C008C0018
:100490008D008D008E008E008F008F0090009000E8
:1004A00091009100920092009300930094009400B8
:1004B0009500950096009600970097009800980088
:1004C000990099009A009A009B009B009C009C0058
:1004D0009D009D009E009E009F009F00A000A10027
:1004E000A100A200A200A300A300A400A400A500F4
:1004F000A500A600A600A700A700A800A800A900C4
:10050000AA00AA00AB00AB00AC00AC00AD00AD008F
:10051000AE00AE00AF00B000B000B100B100B2005C
:10052000B200B300B300B400B500B500B600B60029
:10053000B700B700B800B900B900BA00BA00BB00F4
:10054000BB00BC00BD00BD00BE00BE00BF00C000BF
:10055000C000C100C100C200C200C300C400C4008A
:10056000C500C500C600C700C700C800C800C90054
:10057000CA00CA00CB00CC00CC00CD00CD00CE001C
:10058000CF00CF00D000D000D100D200D200D300E5
:10059000D400D400D500D600D600D700D700D800AC
:1005A000D900D900DA00DB00DB00DC00DD00DD0073
:1005B000DE00DF00DF00000000000000000000009F
:1005C000000000000000000000000000000000002B
:1005D0000000000000000000000000000000785A49
:1005E0000C4B785A0C4B785A0C4B785A0C4B785A67
:1005F0000C4B785A0C4B785A0C4B785A0C4B785A57
:100600000C4BCF040F4B768E134B2FE2184BD79623
:100610001E4B7131244B373C294BF6902D4BEBE1AF
:10062000304B3214324B594C314B49962F4BFE48CC
:100630002D4B9F582A4B0385274B2C7F254B33D4BA
:10064000244BB1A5274BF8522C4B858E324B4A4395
:100650003A4B0EE1434B1C0C4E4BDC32584B4C8753
:10066000614BFB35694B08A56F4B29A0744B458145
:10067000774B3A19784B763F774B552E754BEBE11C
:10068000714B7CB56D4BE144694B04F6644B2B5CBC
:10069000614B32B55E4B922C5D4BD2075D4B76DDE4
:1006A0005F4B73A4644BFB586A4B3F84704BEB93D6
:1006B000754BD1457A4B63147F4B210F824B6330CE
:1006C000854B0081884B8DB98B4B6EB28E4B58D0C9
:1006D000904B206C924B6BB9934B40CA944B802D3E
:1006E000964B7D73974BFE43984B9072984B9915A0
:1006F000974B62AC944B05CB914B5BAB8E4BB6C822
:100700008B4B7730894B02C3864BA78F844BADB898
:10071000824BE449814B782C804BE4C07E4B9CE9B2
:100720007D4BA3F37D4B6E727E4BD3427F4B3F20BC
:10073000804BAC9C804B4212814BB973814BF7B319
:10074000814B858C814BE731814BE4BA804B0E3273
:10075000804BF3577F4B0C5C7E4B55677D4BD681AE
:100760007C4B1ABA7B4B97277B4B8AAF7A4BAD4FAA
:100770007A4BC3057A4B9CCA794B88A1794B598B2C
:10078000794BCB87794B0E95794B93B2794B9DE39F
:10079000794B12297A4BD6837A4BFE1F7B4B15CAB5
:1007A0007B4B7B707C4B01067D4B34727D4B71A47F
:1007B0007D4BACAB7D4B22847D4B262A7D4B216E3D
:1007C0007C4BB8787B4BE1627A4BCF38794B0C117C
:1007D000784B282F774B1643764B5F42754BB922E7
:1007E000744B3AC1724B0C10714BE9386F4BF141AD
:1007F0006D4B28316B4B391F694BA005674BEDD60C
:10080000644B2291624B4E32604B51755D4B369872
:100810005A4BDBC3574B020C554B1184524B7FE1B3
:10082000504BBD8B4F4BA4454E4BC1F24C4B2D77DB
:100830004B4B1EFD484B882A464B3341434B4A5B8A
:10084000404B75923D4BD16C3B4B86A3394B3506E3
:10085000384BC18B364B392B354B60B2334BFF2AAB
:10086000324B40BD304BA3702F4B814C2E4B9A80A6
:100870002D4B33432D4B491D2D4B23F92C4B79C167
:100880002C4B76612C4B8A302B4B1FC2294BB12F3E
:10089000284B3286264B52D2244BFE40234BDCDDC4
:1008A000214B5F80204BA5261F4BD5CE1D4B2377B8
:1008B0001C4B2FE11A4B2B4B194BF1C8174B8D6575
:1008C000164BCD2B154B0944144B6B14144BEE0AED
:1008D000144B8315144B7E22144B9620144B50D18D
:1008E000134BE10D134B3D27124B0E22114BE80227
:1008F000104B42CE0E4BB0A00D4BF2810C4B264D4F
:100900000B4B68FD094BF58D084B23FA064B7D1602
:10091000054B1DC5024BDD59004BB7C2FB4ADBCF6F
:10092000F64A44F3F14A055FED4AFAB7E94A4C4901
:10093000E64A660BE34ADCF6DF4A6E04DD4A022D26
:10094000DA4AC946D74AB067D44A079BD14AB9E0C8
:10095000CE4AB038CC4AD8A2C94AD8A2C94AD8A2ED
:10096000C94AD8A2C94AD8A2C94AD8A2C94AD8A253
:10097000C94AD8A2C94AD8A2C94AD8A2C94AD8A243
:10098000C94AD8A2C94AD8A2C94AD8A2C94AD8A233
:10099000C94AD8A2C94AD8A2C94AD8A2C94AD8A223
:1009A000C94AD8A2C94AD8A2C94AD8A2C94AD8A213
:1009B000C94AD8A2C94AD8A2C94AD8A2C94AD8A203
:1009C000C94AD8A2C94AD8A2C94AD8A2C94AD8A2F3
:1009D000C94AD8A2C94AD8A2C94AD8A2C94AD8A2E3
:1009E000C94AD8A2C94AD8A2C94AD8A2C94AD8A2D3
:1009F000C94AD8A2C94AD8A2C94AD8A2C94AD8A2C3
:100A0000C94AD8A2C94AD8A2C94AD8A2C94AD8A2B2
:100A1000C94AD8A2C94AD8A2C94AD8A2C94AD8A2A2
:100A2000C94AD8A2C94AD8A2C94AD8A2C94AD8A292
:100A3000C94AD8A2C94AD8A2C94AD8A2C94AD8A282
:100A4000C94AD8A2C94AD8A2C94AD8A2C94AD8A272
:100A5000C94AD8A2C94AD8A2C94AD8A2C94AD2BB4F
:100A60009C43B69D2B40591958BAFFB525B7E07D78
:100A70008732A26F0CAC43503135303232473032BE
:100A80003638390055565649535350454300435064
:100A9000313530004A014B014C014D014E014F01EF
:100AA00050015101520153015401550156015701A2
:100AB000580159015A015B015C015D015E015F0152
:100AC0006001610162016301640165016601670102
:100AD000680169016A016B016C016D016E016F01B2
:100AE0007001710172017301740175017601770162
:100AF000780179017A017B017C017D017E017F0112
:100B000080018101820183018401850186018701C1
:100B1000880189018A018B018C018D018E018F0171
:100B20009001910192019301940195019601970121
:100B3000980199019A019B019C019D019E019F01D1
:100B4000A001A101A201A301A401A501A601A70181
:100B5000A801A901AA01AB01AC01AD01AE01AF0131
:100B6000B001B101B201B301B401B501B601B701E1
:100B7000B801B901BA01BB01BC01BD01BE01BF0191
:100B8000C001C101C201C301C401C501C601C70141
:100B9000C801C901CA01CB01CC01CD01CE01CF01F1
:100BA000D001D101D201D301D401D501D601D701A1
:100BB000D801D901DA01DB01DC01DD01DE01DF0151
:100BC000E001E101E201E301E401E501E601E70101
:100BD000E801E901EA01EB01EC01ED01EE01EF01B1
:100BE000F001F101F201F301F401F501F601F70161
:100BF000F801F901FA01FB01FC01FD01FE01FF0111
:100C000000020102020203020402050206020702B8
:100C1000080209020A020B020C020D020E020F0268
:100C20001002110212021302140215021602170218
:100C3000180219021A021B021C021D021E021F02C8
:100C40002002210222022302240225022602270278
:100C5000280229022A022B022C022D022E022F0228
:100C600030023102320233023402350236023702D8
:100C7000380239023A023B023C023D023E023F0288
:100C80004002410242024302440245024602470238
:100C9000480249024A024B024C024D024E024F02E8
:100CA0005002510252025302540255025602570298
:100CB000580259025A025B025C025D025E025F0248
:100CC00060026102620263026402650266026702F8
:100CD000680269026A026B026C026D026E026F02A8
:100CE0007002710272027302740275027602770258
:100CF000780279027A027B027C027D027E027F0208
:100D000080028102820283028402850286028702B7
:100D1000880289028A028B028C028D028E028F0267
:100D20009002910292029302940295029602970217
:100D3000980299029A029B029C029D029E029F02C7
:100D4000A002A102A202A302A402A502A602A70277
:100D5000A802A902AA02AB02AC02AD02AE02AF0227
:100D6000B002B102B202B302B402B502B602B702D7
:100D7000B802B902BA02BB02BC02BD02BE02BF0287
:100D8000C002C102C202C302C402C502C602C70237
:100D9000C802C902CA02CB02CC02CD02CE02CF02E7
:100DA000D002D102D202D302D402D502D602D70297
:100DB000D802D902DA02DB02DC02DD02DE02DF0247
:100DC000E002E102E202E302E402E502E602E702F7
:100DD000E802E902EA02EB02EC02ED02EE02EF02A7
:100DE000F002F102F202F302F402F502F602F70257
:100DF000F802F902FA02FB02FC02FD02FE02FF0207
:100E000000030103020303030403050306030703AE
:100E1000080309030A030B030C030D030E030F035E
:100E2000100311031203130314031503160317030E
:100E3000180319031A031B031C031D031E031F03BE
:100E400020034A0154015E01680172017C018601A0
:100E500090019A01A401AE01B801C201CC01D601F2
:100E6000E001EA01F401FE01080212021C0226025E
:100E700030023A0244024E02580262026C027602CA
:100E800080028A0294029E02A802B202BC02C6023A
:100E9000D002DA02E402EE02F80202030C031603A7
:100EA000200317B7D13817B751396F12033A6F12B1
:100EB000833A6F12033B0AD7A33B0AD7233C0AD7D6
:100EC000A33CCDCC4C3DCDCCCC3D140355005600BD
:100ED00056004900530053005000450043000000F5
:100EE0000E034F005000540043004F004D0000001F
:100EF0000403090409023E00020100C03209040093
:100F0000000102020100052400100104240206056C
:100F100024060001070582030800FF0904010002FE
:100F20000A000000070504021000050705830210EF
:100F300000051201100102000008A3210120010098
:100F40000102DC016364696E6F70737578585B65CC
:100F5000666745464700616E006E66696E69747922
:100F600000CDCCCC3D0AD7233C17B7D13877CC2B5A
:100F7000329595E6241FB14F0A000020410000C8B9
:100F80004200401C4620BCBE4CCA1B0E5AAEC59D3A
:100F9000740011241FBECFEFDAE0DEBFCDBF12E038
:100FA000A0E0B1E0E2ECFEE402C005900D92AC35A9
:100FB000B107D9F729E0ACE5B2E001C01D92A43633
:100FC000B207E1F70E944D140C945F2719C84F92A5
:100FD0005F926F927F928F929F92AF92BF92CF92C9
:100FE000DF92EF92FF92CF93DF93CDB7DEB760979A
:100FF0000FB6F894DEBF0FBECDBFEEE5FAE08590E8
:101000009590A590B490E2E6FAE0459055906590F1
:101010007490E6E6FAE02591359145915491298343
:101020003A834B835C83EAE6FAE02591359145915A
:1010300054912D833E834F835887EEE6FAE0259145
:1010400035914591549129873A874B875C87E2E730
:10105000FAE025913591459154912D873E874F8730
:10106000588BBC016F5F7F4F072E000C880B990BCC
:101070000E94321C6B017C019B01AC01C301B201D7
:101080000E942B1DA50194010E942F1B4B015C01A6
:10109000A701960169817A818B819C810E942B1D19
:1010A000A70196010E942B1D9B01AC01C501B40153
:1010B0000E942F1B4B015C01A70196016D817E816F
:1010C0008F8198850E942B1DA70196010E942B1DE0
:1010D000A70196010E942B1D9B01AC01C501B40123
:1010E0000E942F1B4B015C01A701960169857A853F
:1010F0008B859C850E942B1DA70196010E942B1DAC
:10110000A70196010E942B1DA70196010E942B1D8D
:101110009B01AC01C501B4010E942F1B4B015C0176
:10112000A70196016D857E858F8598890E942B1D6C
:10113000A70196010E942B1DA70196010E942B1D5D
:10114000A70196010E942B1DA70196010E942B1D4D
:101150009B01AC01C501B4010E942F1B60960FB624
:10116000F894DEBF0FBECDBFDF91CF91FF90EF901F
:10117000DF90CF90BF90AF909F908F907F906F90B7
:101180005F904F9008950895089580E091E00C9449
:10119000671980E091E00C947D1A0895000000002A
:1011A00000000000000008958F929F92AF92BF92BE
:1011B000CF92DF92EF92FF9280E480937C00809147
:1011C0007C00876080937C0010927B0080917B0084
:1011D00080937B0087EC80937A0080917A0086FD73
:1011E000FCCF609178008091790070E0782B73706B
:1011F000072E000C880B990B0E94321C20E030EC6B
:101200004FE754E40E94971B20E030E040EA50E4AE
:101210000E942B1D4B015C019B01AC0160E070E062
:1012200080EA90E40E942E1B6B017C0120E030E0FC
:10123000A9010E94931B882369F020E030E44CE16F
:1012400056E4C501B4010E942B1DA70196010E941E
:10125000971B03C060E070E0CB0120E030E44CE17C
:1012600056E40E94971B0E94EB1C20E030EB46E501
:1012700055E40E94971B2FE03FEC4BE55BE30E9497
:101280002F1B9B01AC0160E070E080E89FE30E94AF
:10129000971B23E333E948E853E40E942E1BFF9099
:1012A000EF90DF90CF90BF90AF909F908F90089578
:1012B0000E947014209A289A0895CF9328980000CD
:1012C00080E00E947914C82F80E00E947914289A47
:1012D000CF7140E8C49F900111248695A901482B45
:1012E000CA01CF910895819A8998859A8D98E4EBE7
:1012F000F4E0119211921192119289E0E433F8070F
:10130000C1F70895CF92DF92EF92FF920F931F9350
:10131000CF93DF93C4EBD4E004E319E0FE01119214
:101320001192119211920E171F07C9F7899836DF93
:10133000899A34DF89988D9A31DFC12CD12C7601BE
:1013400080911F0190912001A0912101B091220173
:10135000C816D906EA06FB0654F4899A1FDF899855
:101360001DDF8FEFC81AD80AE80AF80AE9CF8D986E
:1013700028E5E22EF12C899A11DF89980FDFE1E050
:10138000EE1AF108C1F794EBE92E94E0F92E95DFFF
:10139000BC0180E090E00E94301CF70161937193E2
:1013A000819391937F01899AF9DE8998F7DE0E1572
:1013B0001F0569F780E2E82EF12C899AEFDE899803
:1013C000EDDEF1E0EF1AF108C1F720E030E243E78B
:1013D00055E4688179818A819B810E94E21C1816FC
:1013E00044F480E090E2A3E7B5E488839983AA837C
:1013F000BB8324960C171D0741F7DF91CF911F91F6
:101400000F91FF90EF90DF90CF900895CF92DF92F1
:10141000EF92FF92CF93DF93C0901B01D0901C01FD
:10142000E0901D01F0901E0120E030E040E252E427
:10143000C701B6010E94E21C1816D4F0A70196015C
:1014400060916A0270916B0280916C0290916D02C2
:101450000E942E1B9F77D1E0C0E020E030E040E00A
:1014600050E40E94E21C87FDD0E08D2F9C2F02C02B
:1014700082E090E0DF91CF91FF90EF90DF90CF90EE
:10148000089531DF15DF84B7877F84BF0FB6F894E6
:10149000A895809160008861809360001092600040
:1014A0000FBE90E080E80FB6F894809361009093AF
:1014B00061000FBE0C94BC162F923F924F925F9228
:1014C0006F927F928F929F92AF92BF92CF92DF9254
:1014D000EF92FF920F931F93CF93DF9300D000D032
:1014E000CDB7DEB780906E0290906F02880C991C89
:1014F000880C991CC4018E55914F5C01EEEDF5E00E
:10150000FC83EB832EE5622E2AE0722E8F01312CB4
:10151000212CF0E8F9838FE38A83F5012591359139
:1015200045915491F801C590D590E590F49060E014
:1015300070E283E795E40E94971BA70196010E9441
:10154000971B232D322D49815A810E94E21C1816C7
:10155000C4F0F5012591359145915491F801C5905C
:10156000D590E590F49060E070E283E795E40E9406
:10157000971BA70196010E94971B362E272E898361
:101580009A830C5F1F4F6016710609F0C6CFF401F5
:10159000ED5DFE4F408051806280738084E7882E2D
:1015A00082E0982E04EB14E0F401619171914F01F7
:1015B000F501C590D590E590F490072E000C880BAE
:1015C000990B0E94321CA30192010E942B1D9B01CA
:1015D000AC01F80160817181828193810E942E1B90
:1015E000A70196010E94971BEB81FC812591359103
:1015F000459154910E94971B6B017C012FE530E7C8
:1016000049E850E30E94931B87FF03C0C12CD12CF3
:101610007601232D322D49815A81C701B6010E94DE
:10162000E21C181624F4C32CD22CE980FA80F801AD
:10163000C192D192E192F1928F018B819C810496AB
:101640009C838B8394EB891694E0990609F0ACCFC8
:101650000F900F900F900F90DF91CF911F910F91EE
:10166000FF90EF90DF90CF90BF90AF909F908F90C2
:101670007F906F905F904F903F902F9008950197CB
:101680008930910598F4FC01EE0FFF1F8E0F9F1F0C
:10169000FC01E55BFE4F80819181A2819C014A2F74
:1016A000042E000C550BCA01B901089564E370E0E3
:1016B00080E090E008956F927F928F929F92AF9218
:1016C000BF92CF92DF92EF92FF920F931F93CF932F
:1016D000DF938091700290917102892B09F43DC0D3
:1016E000C0E0D0E004E319E0CE01C9DF60931F0140
:1016F000709320018093210190932201D0936F0277
:10170000C0936E02FFDD84EB882E84E0982E612C5E
:10171000712CA12CB12CF401C190D190E190F190E9
:101720004F019301A501C701B6010E94931B87FDDC
:1017300002C0360157010815190569F720E030E0AD
:101740004FEA54E4B301C5010E94E21C87FF21C0A7
:101750002196CA30D10541F61CC080916E0290914D
:101760006F028DDF60931F01709320018093210130
:1017700090932201DF91CF911F910F91FF90EF90F5
:10178000DF90CF90BF90AF909F908F907F906F90A1
:10179000B9CDDF91CF911F910F91FF90EF90DF9026
:1017A000CF90BF90AF909F908F907F906F90089553
:1017B0002F923F924F925F926F927F928F929F9261
:1017C000AF92BF92CF92DF92EF92FF920F931F934F
:1017D000CF93DF9383E2C82E81E0D82E1601E12C4F
:1017E000F12CC7014CDF60931F017093200180939F
:1017F00021019093220186DDCCEAD4E000E010E0E4
:101800000115110509F06BC08090B4049090B504E7
:10181000A090B604B090B70420E030E040E450EC73
:10182000C501B4010E942B1D2B013C0120E030E0DA
:1018300040E451E4C501B4010E942B1D9B01AC01A1
:10184000C301B2010E942F1B2B013C0120E030E0BC
:1018500048E851E4C501B4010E942B1D9B01AC0175
:10186000C301B2010E942F1B4B015C0120E030E05C
:1018700040E451E46091B8047091B9048091BA04D5
:101880009091BB040E942B1D9B01AC01C501B401CA
:101890000E942F1B4B015C0120E030E040E450E44B
:1018A0006091BC047091BD048091BE049091BF040E
:1018B0000E942B1D9B01AC01C501B4010E942E1B8F
:1018C00020E030E04CE052E40E94971B6093B404A7
:1018D0007093B5048093B6049093B704B7C10130F8
:1018E000110509F071C08090B4049090B504A090E7
:1018F000B604B090B70420E030E040E450ECC501FD
:10190000B4010E942B1D2B013C0120E030E040E49B
:1019100051E4C501B4010E942B1D9B01AC01C30120
:10192000B2010E942F1B4B015C0120E030E048E82F
:1019300051E46091B8047091B9048091BA04909117
:10194000BB040E942B1D9B01AC01C501B4010E9488
:101950002F1B4B015C0120E030E040E451E460913A
:10196000BC047091BD048091BE049091BF040E949C
:101970002B1D9B01AC01C501B4010E942F1B4B0123
:101980005C0120E030E040E450E46091C0047091DC
:10199000C1048091C2049091C3040E942B1D9B013D
:1019A000AC01C501B4010E942E1B20E030E04CE0E8
:1019B00052E40E94971B6093B8047093B90480931B
:1019C000BA049093BB0442C10E3181E0180709F0BC
:1019D00071C08090300990903109A0903209B09088
:1019E000330920E030E040E450EC6091240970912C
:1019F000250980912609909127090E942B1D2B0112
:101A00003C0120E030E040E451E46091280970910D
:101A1000290980912A0990912B090E942B1D9B0175
:101A2000AC01C301B2010E942F1B2B013C0120E03D
:101A300030E048E851E460912C0970912D098091C3
:101A40002E0990912F090E942B1D9B01AC01C3010F
:101A5000B2010E942F1B2B013C0120E030E040E44A
:101A600051E4C501B4010E942B1D9B01AC01C301CF
:101A7000B2010E942F1B2B013C0120E030E040E42A
:101A800050E4C501B4010E942B1D9B01AC01C301B0
:101A9000B2010E942E1B20E030E04CE052E40E9494
:101AA000971B60932C0970932D0980932E099093B6
:101AB0002F09CCC00F3191E0190709F06BC080905D
:101AC000300990903109A0903209B090330920E09C
:101AD00030E040E450EC6091280970912909809130
:101AE0002A0990912B090E942B1D2B013C0120E01B
:101AF00030E040E451E460912C0970912D0980910F
:101B00002E0990912F090E942B1D9B01AC01C3014E
:101B1000B2010E942F1B2B013C0120E030E048E87D
:101B200051E4C501B4010E942B1D9B01AC01C3010E
:101B3000B2010E942F1B2B013C0120E030E040E469
:101B400051E4C501B4010E942B1D9B01AC01C301EE
:101B5000B2010E942F1B2B013C0120E030E040E449
:101B600050E4C501B4010E942B1D9B01AC01C301CF
:101B7000B2010E942E1B20E030E04CE052E40E94B3
:101B8000971B6093300970933109809332099093C9
:101B900033095CC020E030E040E450EC688179819A
:101BA0008A819B810E942B1D4B015C0120E030E06B
:101BB00040E451E46C817D818E819F810E942B1DC8
:101BC0009B01AC01C501B4010E942F1B4B015C01BC
:101BD00020E030E048E851E4688579858A859B8576
:101BE0000E942B1D9B01AC01C501B4010E942F1B5B
:101BF0004B015C0120E030E040E451E46C857D85E0
:101C00008E859F850E942B1D9B01AC01C501B401EF
:101C10000E942F1B4B015C0120E030E040E450E4C7
:101C2000688979898A899B890E942B1D9B01AC0157
:101C3000C501B4010E942E1B20E030E04CE052E4CC
:101C40000E94971B688779878A879B870F5F1F4F42
:101C500024960032E1E01E0709F0D2CDF101108296
:101C6000118212821382C4EBD4E004E712E0812CCB
:101C7000912C5401F3E0EF16F10449F46881798165
:101C80008A819B810E94FF1BF801718360832991E7
:101C9000399149915991C501B4010E942F1B4B0103
:101CA0005C010E5F1F4F84E399E08C179D0711F7CD
:101CB000F10181929192A192B1921F01FFEFEF1A6F
:101CC000FF0A8AE0E816F10409F08BCD80902F011D
:101CD00090903001A0903101B0903201CBE4D1E07E
:101CE000A5019401F60160817181828193810E9436
:101CF000971BF60161937193819391936F01CE17B6
:101D0000DF0771F751DA60936A0270936B02809378
:101D10006C0290936D02DF91CF911F910F91FF9014
:101D2000EF90DF90CF90BF90AF909F908F907F907B
:101D30006F905F904F903F902F90089580E091E0DA
:101D40000E942B1A181619069CF420913409309120
:101D50003509F901EA5CF64F80832F5F3F4F3093DE
:101D60003509209334090A9719F481E080935609C4
:101D700008952F923F924F925F926F927F928F922F
:101D80009F92AF92BF92CF92DF92EF92FF920F930A
:101D90001F93CF93DF93CDB7DEB7CC58D1090FB6E1
:101DA000F894DEBF0FBECDBF80915609882309F499
:101DB0005AC51092560945E050E066E671E086E3A8
:101DC00099E00E943226892B09F060C074DC74DB34
:101DD00064EBE62E64E0F62E00E010E078E0672E7B
:101DE00072E0772EE4EB8E2EE5E09E2EF0E25F2E81
:101DF000CE0101966C01ACE6AA2EA1E0BA2EF30149
:101E00008591949101970817190780F1F401859144
:101E100094918017910750F1C801D9D8D601E52DCA
:101E20001D92EA95E9F7D70113962C9113972F93FA
:101E300012962C9112972F9311962C9111972F9304
:101E40002C912F939F938F937F936F93BF92AF9219
:101E5000DF92CF920E94C526B60180E091E00E94F9
:101E60008C190FB6F894DEBF0FBECDBF0F5F1F4FAA
:101E7000F4E0EF0EF11C003221E0120709F0BFCFB1
:101E80006AE080E091E00E94AC19E2C449E050E0D1
:101E900063E771E086E399E00E943226892B09F01E
:101EA000C5C209DC09DB84E99AE0E9969FAF8EAFF1
:101EB000E997A8E0B2E0ED96BFAFAEAFED97EB9635
:101EC0001FAE1EAEEB97FE013196A796FFAFEEAFA9
:101ED000A797E996EEADFFADE99765917491ED9600
:101EE000EEADFFADED9725903490EB968EAD9FADA6
:101EF000EB9702974CF46091B4047091B504009193
:101F0000B604F090B70443C280E090E00E94301C19
:101F10006B017C01810102501109C80158D8AB96B0
:101F20006CAF7DAF8EAF9FAFAB97D1011197CB5701
:101F3000DF4FB983A883C558D040CD0148D8AF96AC
:101F40006CAF7DAF8EAF9FAFAF97C10140D8E39626
:101F50006CAF7DAF8EAF9FAFE397F1013196C9575C
:101F6000DF4FF983E883C758D040CF0130D8E796D8
:101F70006CAF7DAF8EAF9FAFE797AF962CAD3DAD09
:101F80004EAD5FADAF97C701B6010E942E1B4B014E
:101F90005C01E3962CAD3DAD4EAD5FADE397C7015F
:101FA000B6010E942E1BC358DF4F688379838A8352
:101FB0009B83CD57D040E7962CAD3DAD4EAD5FAD88
:101FC000E797C701B6010E942E1BCF57DF4F6883EA
:101FD00079838A839B83C158D040AB962CAD3DADAD
:101FE0004EAD5FADAB97C701B6010E942E1B6B01D2
:101FF0007C019B01AC01C501B4010E942B1DC75798
:10200000DF4F688379838A839B83C958D040C35844
:10201000DF4F288139814A815B81CD57D040C5018E
:10202000B4010E942B1DCF57DF4F288139814A818F
:102030005B81C158D0400E942B1D4B015C01AF96C3
:102040002CAD3DAD4EAD5FADAF97AB966CAD7DADFC
:102050008EAD9FADAB970E942E1B2B013C01E396EA
:102060002CAD3DAD4EAD5FADE397AB966CAD7DADA8
:102070008EAD9FADAB970E942E1B9B01AC01C3019F
:10208000B2010E942B1D2B013C01E7962CAD3DAD0A
:102090004EAD5FADE797AB966CAD7DAD8EAD9FADB0
:1020A000AB970E942E1B9B01AC01C301B2010E94A1
:1020B0002B1D9B01AC01C501B4010E94971B000FB1
:1020C000111F000F111FF801EC54FB4F20813181CB
:1020D000428153810E942B1D4B015C01A701960197
:1020E000C358DF4F688179818A819B81CD57D04069
:1020F0000E942B1DCF57DF4F288139814A815B8198
:10210000C158D0400E942B1D6B017C01AB962CADB9
:102110003DAD4EAD5FADAB97AF966CAD7DAD8EADC9
:102120009FADAF970E942E1B2B013C01E3962CAD77
:102130003DAD4EAD5FADE397AF966CAD7DAD8EAD71
:102140009FADAF970E942E1B9B01AC01C301B20152
:102150000E942B1D2B013C01E7962CAD3DAD4EADF1
:102160005FADE797AF966CAD7DAD8EAD9FADAF9790
:102170000E942E1B9B01AC01C301B2010E942B1DCA
:102180009B01AC01C701B6010E94971BCB57DF4FE3
:10219000E881F981C558D040EE0FFF1FEE0FFF1FF9
:1021A000EC54FB4F20813181428153810E942B1DD1
:1021B0009B01AC01C501B4010E942F1B6B017C0186
:1021C000C757DF4F288139814A815B81C958D04088
:1021D000CF57DF4F688179818A819B81C158D04078
:1021E0000E942B1D4B015C01AB962CAD3DAD4EAD5D
:1021F0005FADAB97E3966CAD7DAD8EAD9FADE397D4
:102200000E942E1B2B013C01AF962CAD3DAD4EAD77
:102210005FADAF97E3966CAD7DAD8EAD9FADE397AF
:102220000E942E1B9B01AC01C301B2010E942B1D19
:102230002B013C01E7962CAD3DAD4EAD5FADE79770
:10224000E3966CAD7DAD8EAD9FADE3970E942E1BE6
:102250009B01AC01C301B2010E942B1D9B01AC018B
:10226000C501B4010E94971BF101EE0FFF1FEE0F95
:10227000FF1FEC54FB4F20813181428153810E942A
:102280002B1D9B01AC01C701B6010E942F1B6B01E6
:102290007C01C757DF4F288139814A815B81C9584A
:1022A000D040C358DF4F688179818A819B81CD57A7
:1022B000D0400E942B1D4B015C01AB962CAD3DAD77
:1022C0004EAD5FADAB97E7966CAD7DAD8EAD9FAD7E
:1022D000E7970E942E1B2B013C01AF962CAD3DAD24
:1022E0004EAD5FADAF97E7966CAD7DAD8EAD9FAD5A
:1022F000E7970E942E1B9B01AC01C301B2010E9413
:102300002B1D2B013C01E3962CAD3DAD4EAD5FADD9
:10231000E397E7966CAD7DAD8EAD9FADE7970E94DC
:102320002E1B9B01AC01C301B2010E942B1D9B011E
:10233000AC01C501B4010E94971BC957DF4FE8816A
:10234000F981C758D040EE0FFF1FEE0FFF1FEC546E
:10235000FB4F20813181428153810E942B1D9B01C3
:10236000AC01C701B6010E942F1B162FE72E082FC4
:10237000F92E20E030E0A9010E94931B87FF05C0E1
:1023800060E070E000E0F12C02C0612F7E2DE99644
:10239000EEADFFADE99785919491A796AEADBFAD37
:1023A000A797E0E21D92EA95E9F7FF920F937F93DA
:1023B0006F939F938F938CE791E09F938F93E1E0CE
:1023C000F0E0EC0FFD1FFF93EF930E94C526BE01C6
:1023D0006F5F7F4F80E091E09FD7EB968EAD9FAD12
:1023E000EB970196EB969FAF8EAFEB97E996AEAD6C
:1023F000BFADE9971296E996BFAFAEAFE997ED96FC
:10240000EEADFFADED973296ED96FFAFEEAFED97E7
:102410000FB6F894DEBF0FBECDBFEB96AEADBFAD2D
:10242000EB97A73DB14009F054CD2ACD43E050E0F1
:1024300063E871E086E399E00E943226892B81F5FA
:102440003AD904EB14E080E1B82ECE0101967C016C
:1024500097E8C92E91E0D92ED701EB2D1D92EA9570
:10246000E9F7D8016D917D918D919D918D010E942B
:10247000FF1B7F936F93DF92CF92FF92EF920E94A8
:10248000C526B70180E091E047D70F900F900F90DD
:102490000F900F900F90B9E004331B07E9F6F0CCD2
:1024A00044E050E06BE871E086E399E00E94322658
:1024B000892B11F47DD9C4C146E050E065E971E093
:1024C00086E399E00E943226892B89F48E010F5F02
:1024D0001F4F80E2F80111928A95E9F7EEE8FAE0E1
:1024E000859194919F938F938CE991E035C045E05D
:1024F00050E066EA71E086E399E00E943226892B7B
:1025000089F48E010F5F1F4F80E2D8011D928A95DA
:10251000E9F7E4E8FAE0859194919F938F938CEA30
:1025200091E01AC043E050E065EB71E086E399E08A
:102530000E943226892B09F58E010F5F1F4F80E222
:10254000F80111928A95E9F7E6E7FAE0859194910E
:102550009F938F9389EB91E09F938F931F930F939A
:102560000E94C526B80180E091E0D6D60F900F906A
:102570000F900F900F900F906BC143E050E060EC14
:1025800071E086E399E00E943226892B09F04EC063
:10259000CE0101961C0184E6D1011D928A95E9F7CE
:1025A000E2E7FAE00591159125913491EEE6FAE023
:1025B0004590559065907490EAE6FAE08590959084
:1025C000A590B490E6E6FAE0C590D590E590F49039
:1025D000E2E6FAE04591559165917491EEE5FAE0F5
:1025E00085919591A591B4913F932F931F930F934C
:1025F0007F926F925F924F92BF92AF929F928F9213
:10260000FF92EF92DF92CF927F936F935F934F93FE
:10261000BF93AF939F938F9385EC91E09F938F939C
:102620003F922F920E94C526B10136C043E050E090
:102630006DED71E086E399E00E943226892BA9F5C1
:102640008E010F5F1F4F80E4D8011D928A95E9F734
:102650008091720290917302009721F0019721F00E
:1026600085E403C082E501C087E590911E019F9338
:1026700090911D019F9390911C019F9390911B013C
:102680009F931F928F9381EE91E09F938F931F935F
:102690000F930E94C526B80180E091E03DD60FB6A9
:1026A000F894DEBF0FBECDBFD3C044E050E06DEE66
:1026B00071E086E399E00E943226892B09F0C3C0BD
:1026C00048E050E062EF71E086E399E00E94322634
:1026D000892B39F481E090E090937102809370022D
:1026E000AFC049E050E06BEF71E086E399E00E94F3
:1026F0003226892B49F410927102109270021092C6
:102700006F0210926E029CC049E050E065E072E0FA
:1027100086E399E00E943226892B39F410927102E7
:102720001092700281E090E087C049E050E06FE0D5
:1027300072E086E399E00E943226892B39F41092E8
:1027400071021092700282E090E076C047E050E0A3
:1027500069E172E086E399E00E943226892B39F420
:10276000109271021092700283E090E065C047E021
:1027700050E061E272E086E399E00E943226892B04
:1027800039F4109271021092700284E090E054C00B
:1027900047E050E069E272E086E399E00E94322669
:1027A000892B39F4109271021092700285E090E04A
:1027B00043C048E050E061E372E086E399E00E94A4
:1027C0003226892B39F4109271021092700286E041
:1027D00090E032C048E050E06AE372E086E399E0BE
:1027E0000E943226892B39F41092710210927002E5
:1027F00087E090E021C048E050E063E472E086E3C7
:1028000099E00E943226892B39F4109271021092BD
:10281000700288E090E010C049E050E06CE472E0A3
:1028200086E399E00E943226892B51F410927102BE
:102830001092700289E090E090936F0280936E0294
:1028400060E971E002C066E572E080E091E064D585
:1028500080E2E6E3F9E0DF011D928A95E9F7109244
:10286000350910923409C457DF4F0FB6F894DEBF14
:102870000FBECDBFDF91CF911F910F91FF90EF90D1
:10288000DF90CF90BF90AF909F908F907F906F9090
:102890005F904F903F902F9008950E94410A6CE501
:1028A00072E080E091E015D678940E9482090E943F
:1028B000D4080E94D40860931B0170931C0180937C
:1028C0001D0190931E010E94060A9093730280934B
:1028D00072024FDA33DA80E091E0A7D5DED4E9CF97
:1028E00084B1866084B980E58CBD8DB581608DBD75
:1028F00008958EBD00000DB407FEFDCF8EB508957E
:10290000292F33272230310559F02330310569F062
:1029100021303105E9F482E190E022E33FE01CC080
:102920008EE390E024EF3EE017C0992781309105B7
:1029300049F028F0029761F4EAECFEE005C0E0EF10
:10294000FEE002C0E0EEFEE0849190E09F0104C052
:1029500080E090E020E030E0FA01318320830895A8
:10296000CF92DF92EF92FF920F931F93CF93DF935B
:10297000EC018B017A018DD1811132C0E114F10497
:1029800039F0F70180819181081B190BC80FD91FFD
:10299000C12CD12C0115110511F18091E80085FDA4
:1029A00015C08091E8008E778093E800E114F1046F
:1029B00049F0F70180819181C80ED91ED182C08271
:1029C00085E00EC066D1882329F30AC089918093DF
:1029D000F10001501109FFEFCF1ADF0ADBCF80E0D1
:1029E000DF91CF911F910F91FF90EF90DF90CF90EB
:1029F000089520916209309163092617370748F03E
:102A00006115710539F42091E8002E772093E800D4
:102A100001C0B901FC0120E06115710579F18091D7
:102A20005B098823F1F18530F1F18091E80083FDA5
:102A30003CC08091E80082FD2EC08091E80080FFBC
:102A4000EBCF2091F3008091F20090E0922B611582
:102A5000710551F08830910538F421912093F100EF
:102A6000615071090196F3CF21E0089709F020E049
:102A70008091E8008E778093E800CECF2111CFCFF0
:102A80000AC080915B09882361F0853061F08091F4
:102A9000E80083FD0AC08091E80082FFF2CF80E069
:102AA000089582E0089583E0089581E008952091DB
:102AB0006209309163092617370748F061157105DF
:102AC00039F42091E8002E772093E80001C0B90185
:102AD000FC0120E06115710591F180915B0988236B
:102AE00009F440C0853009F43FC08091E80083FDBF
:102AF0003DC08091E80082FD2FC08091E80080FFFA
:102B0000E9CF2091F3008091F20090E0922B6115C3
:102B1000710559F08830910540F424912093F1001B
:102B20003196615071090196F2CF21E0089709F0C2
:102B300020E08091E8008E778093E800CBCF2111D0
:102B4000CCCF0AC080915B09882361F0853061F0A9
:102B50008091E80083FD0AC08091E80082FFF2CFF7
:102B600080E0089582E0089583E0089581E008956B
:102B7000982F973068F59093E900981739F0709185
:102B8000EC002091ED005091F00003C0242F762F2F
:102B900050E021FD02C09F5FECCF3091EB003E7F03
:102BA0003093EB003091ED003D7F3093ED0030919C
:102BB000EB0031603093EB007093EC002093ED005C
:102BC0005093F0002091EE0027FDE5CF80E00895BE
:102BD0008F708093E90081E008950F931F93CF9346
:102BE000DF93062FEC0110E0101771F1688161117D
:102BF00003C01F5F2596F8CF2C81A981BA819B81E4
:102C0000862F8F70873010F080E01FC0223010F4C4
:102C100042E001C046E0E8E0F0E020E0EA17FB0710
:102C200020F42F5FEE0FFF1FF9CF2295207F422B5C
:102C300050E4959F90011124661F6627661F622B42
:102C400097DF8111D6CFE0CF81E0DF91CF911F9147
:102C50000F91089580915C0987FF11C08091E80071
:102C600082FD05C080915B098111F8CF11C0809170
:102C7000E8008B770BC080915B09882349F0809135
:102C8000E80080FFF8CF8091E8008E778093E8001D
:102C900008952091E4003091E50095E64091EC0024
:102CA000842F817040FF23C08091E80080FD1DC00B
:102CB00080915B09882399F0853099F08091EB0031
:102CC00085FD11C04091E4005091E50024173507BF
:102CD00029F3915011F09A01E1CF84E0089582E048
:102CE000089583E0089581E0089580E0089540917B
:102CF000E80042FFDDCF08950F931F93CF93DF933A
:102D00004BD052D0C8EDD0E088818F7788838881FE
:102D10008068888388818F7D888319BC10925B09C5
:102D200010925709109259091092580900EE10E0BC
:102D3000F80180818B7F808388818160888342E075
:102D400060E080E015DFE1EEF0E080818E7F80833F
:102D5000E2EEF0E080818160808380818860808302
:102D6000F80180818E7F8083888180618883DF91F4
:102D7000CF911F910F910895E8EDF0E080818F7E53
:102D80008083E7EDF0E080818160808384E082BF12
:102D900081E080935A09B0CFE8EDF0E080818E7F2A
:102DA00080831092E20008951092DA001092E10000
:102DB00008951F920F920FB60F9211242F933F93F5
:102DC0004F935F936F937F938F939F93AF93BF9333
:102DD000EF93FF938091E10082FF0AC08091E200AF
:102DE00082FF06C08091E1008B7F8093E10054D286
:102DF0008091DA0080FF1FC08091D80080FF1BC047
:102E00008091DA008E7F8093DA008091D90080FF74
:102E10000DC080E189BD82E189BD09B400FEFDCF0E
:102E200081E080935B090E94C30805C019BC109221
:102E30005B090E94C4088091E10080FF18C0809166
:102E4000E20080FF14C08091E2008E7F8093E20058
:102E50008091E20080618093E2008091D8008062DE
:102E60008093D80019BC85E080935B0915D28091CE
:102E7000E10084FF2FC08091E20084FF2BC080E13D
:102E800089BD82E189BD09B400FEFDCF8091D800E3
:102E90008F7D8093D8008091E1008F7E8093E10048
:102EA0008091E2008F7E8093E2008091E200816059
:102EB0008093E20080915709882311F084E007C0D5
:102EC0008091E30087FD02C081E001C083E0809330
:102ED0005B09E2D18091E10083FF27C08091E2008D
:102EE00083FF23C08091E100877F8093E10082E02F
:102EF00080935B09109257098091E1008E7F809347
:102F0000E1008091E2008E7F8093E2008091E200F8
:102F100080618093E20042E060E080E029DE809101
:102F2000F00088608093F000B7D1FF91EF91BF91DE
:102F3000AF919F918F917F916F915F914F913F9151
:102F40002F910F900FBE0F901F9018951F920F9208
:102F50000FB60F9211242F933F934F935F936F936C
:102F60007F938F939F93AF93BF93CF93DF93EF9311
:102F7000FF93C091E900CF708091EC00D82FD17001
:102F800080FDD0E81092E9008091F000877F809367
:102F9000F00078941ED01092E9008091F0008860D3
:102FA0008093F000CD2BCF70C093E900FF91EF919B
:102FB000DF91CF91BF91AF919F918F917F916F9151
:102FC0005F914F913F912F910F900FBE0F901F90E7
:102FD00018951F93CF93DF93CDB7DEB7AA970FB69F
:102FE000F894DEBF0FBECDBFECE5F9E08091F100B3
:102FF000819329E0E436F207C9F70E94C90880915D
:10300000E80083FF31C180915C0990915D099530A2
:1030100009F483C030F49130A9F168F0933091F154
:1030200023C1983009F4EFC0993009F4FBC0963001
:1030300009F01AC194C0803821F0823809F014C117
:1030400008C08091580990915909992389F08260AC
:103050000FC0809160098F70873008F005C18093A0
:10306000E9008091EB0085FB882780F91092E90048
:103070009091E800977F9093E8008093F100109280
:10308000F100CCC0282F2D7F09F0EEC0882319F065
:10309000823061F0E9C080915E09813009F0E4C0BE
:1030A000933009F080E0809359092EC080915E0929
:1030B00081112AC0809160098F702FEF280F263070
:1030C00008F0D2C08093E9002091EB0020FF1CC0E3
:1030D000933021F48091EB00806214C09091EB005A
:1030E00090619093EB0021E030E0A90102C0440F11
:1030F000551F8A95E2F74093EA001092EA0080910A
:10310000EB0088608093EB001092E9008091E8006A
:10311000877F8093E8009EDDA7C08111A5C0109134
:103120005E091F778091E3008078812B8093E30014
:103130008091E800877F8093E8008CDD8091E80033
:1031400080FFFCCF8091E30080688093E300111141
:1031500002C082E001C083E080935B0985C0805893
:10316000823008F081C080915E0990915F098C3DAA
:1031700053E0950771F583E08A838AE289834FB72C
:10318000F894DE01139620E03EE051E2E32FF0E0F8
:1031900050935700E49120FF03C0E295EF703F5F2A
:1031A000EF708E2F90E0EA3010F0C79601C0C09605
:1031B0008D939D932F5F243149F74FBF8091E80095
:1031C000877F8093E8006AE270E0CE01019611DC0F
:1031D00014C06091600970916109AE014F5F5F4F4B
:1031E0008FDBBC01892B09F43FC09091E800977FE9
:1031F0009093E80089819A815ADC8091E8008B776E
:103200008093E80031C0803879F58091E800877FAD
:103210008093E800809157098093F1008091E80045
:103220008E7777CF811120C080915E0990915F09E0
:1032300099270297CCF48091E800877F8093E8007B
:1032400080915E098093570905DD809157098111AE
:1032500006C08091E30087FD02C081E001C084E0E8
:1032600080935B090E94C5088091E80083FF0AC033
:103270008091E800877F8093E8008091EB00806276
:103280008093EB00AA960FB6F894DEBF0FBECDBFB9
:10329000DF91CF911F9108950895CF9380915B099D
:1032A000882399F0C091E900CF709091EC00892FAC
:1032B000817090FD80E8C82B1092E9008091E800B1
:1032C00083FD87DECF70C093E900CF910895CF933F
:1032D000DF93EC01FC0170968BE0DF011D928A9573
:1032E000E9F782E08C83898783E08E8761E0CE01F5
:1032F000019673DC882361F061E0CE0106966DDCF7
:10330000882331F061E0CE010B96DF91CF9165CC3F
:1033100080E0DF91CF910895DB0120915B0924309B
:10332000C9F4FC014489558966897789452B462B68
:10333000472B81F081818F708093E900FD0101901E
:103340000020E9F73197BF016A1B7B0B40E050E09A
:10335000CD0106CB82E008950F931F93CF93209168
:103360005B092430F9F4FC01048915892689378921
:10337000012B022B032BB1F0C62F81818F7080931C
:10338000E9008091E80085FF04C0C093F10080E06F
:103390000AC08091E8008E778093E8007ADC882369
:1033A000A1F301C082E0CF911F910F910895FB011D
:1033B000682F84859585D0DF21E030E0811102C03F
:1033C00020E030E088279927821B930B08952091F5
:1033D0005B09243041F5FC01448955896689778968
:1033E000452B462B472BF9F081818F708093E900A4
:1033F0002091F3008091F20090E0922B892B89F0CC
:103400009091E8008091E8008E778093E80095FD28
:1034100008C03FDC811108C08091E8008E7780935E
:10342000E80080E0089582E0089520915B0924304F
:1034300089F4FC014489558966897789452B462B97
:10344000472B41F021812F702093E9002091E80063
:1034500020FDBDCF089520915B09243019F08FEF36
:103460009FEF0895FC014489558966897789452B2A
:10347000462B472BA1F386818F708093E9008091C2
:10348000E80082FFECCF2091F3008091F20090E001
:10349000922B892B21F02091F10030E002C02FEF18
:1034A0003FEF4091F3008091F20090E0942B892B44
:1034B00029F48091E8008B778093E800C901089592
:1034C000FC0184859585C7DF97FF02C08EEF9FEFD3
:1034D0000895FB012EE0DB011D922A95E9F723E018
:1034E000238327ED39E13187208720E63AE13387CE
:1034F00022879587848708950895CF93DF93EC0101
:103500008091E80083FFA7C0888190E02091600946
:10351000309161092817390709F09DC080915D0934
:10352000813261F020F4803209F43EC094C08232CE
:1035300009F46CC0833209F47EC08DC080915C09AF
:10354000813A09F088C08091E800877F8093E80085
:103550008091E80080FFFCCF8C899D89AE89BF896E
:103560008093F100492F5A2F6B2F77274093F1005A
:10357000AD01662777274093F1008B2F9927AA2763
:10358000BB278093F100888D8093F100898D809313
:10359000F1008A8D8093F1008091E8008E7780930E
:1035A000E800DF91CF9156CB80915C09813209F020
:1035B00052C08091E800877F8093E8008091E80006
:1035C00082FD05C080915B098111F8CF44C0309124
:1035D000F1002091F1009091F1008091F1003C8B7D
:1035E0002D8B9E8B8F8B8091F100888F8091F100C5
:1035F000898F8091F1008A8F8091E8008B7780938A
:10360000E80028DBCE01DF91CF9176CF80915C0975
:10361000813209F58091E800877F8093E8001ADB0A
:1036200080915E0990915F09998B888BCE01DF9123
:10363000CF910C94CD0880915C09813261F4809126
:10364000E800877F8093E80005DB60915E09CE018A
:10365000DF91CF9151CFDF91CF9108955058BB2783
:10366000AA270ED075C166D130F06BD120F031F4AD
:103670009F3F11F41EF45BC10EF4E095E7FB51C1CE
:10368000E92F77D180F3BA1762077307840795078C
:1036900018F071F49EF58FC10EF4E0950B2EBA2F41
:1036A000A02D0B01B90190010C01CA01A001112448
:1036B000FF27591B99F0593F50F4503E68F11A16F4
:1036C000F040A22F232F342F4427585FF3CF469585
:1036D00037952795A795F0405395C9F77EF41F16A7
:1036E000BA0B620B730B840BBAF09150A1F0FF0F71
:1036F000BB1F661F771F881FC2F70EC0BA0F621F5D
:10370000731F841F48F4879577956795B795F7954C
:103710009E3F08F0B3CF9395880F08F09927EE0FDE
:10372000979587950895D9D008F481E008950CD035
:103730000FC107D140F0FED030F021F45F3F19F007
:10374000F0C0511139C1F3C014D198F39923C9F3D2
:103750005523B1F3951B550BBB27AA276217730797
:10376000840738F09F5F5F4F220F331F441FAA1F4B
:10377000A9F333D00E2E3AF0E0E830D0915050400B
:10378000E695001CCAF729D0FE2F27D0660F771FB9
:10379000881FBB1F261737074807AB07B0E809F09B
:1037A000BB0B802DBF01FF2793585F4F2AF09E3F30
:1037B000510568F0B6C000C15F3FECF3983EDCF302
:1037C000869577956795B795F7959F5FC9F7880FA9
:1037D000911D9695879597F90895E1E0660F771FFB
:1037E000881FBB1F621773078407BA0720F0621B8C
:1037F000730B840BBA0BEE1F88F7E095089504D085
:103800006894B111D9C00895BCD088F09F5790F04A
:10381000B92F9927B751A0F0D1F0660F771F881FF5
:10382000991F1AF0BA95C9F712C0B13081F0C3D010
:10383000B1E00895C0C0672F782F8827B85F39F0AE
:10384000B93FCCF3869577956795B395D9F73EF454
:1038500090958095709561957F4F8F4F9F4F0895FC
:10386000E89409C097FB3EF490958095709561951A
:103870007F4F8F4F9F4F9923A9F0F92F96E9BB27D0
:103880009395F695879577956795B795F111F8CF4C
:10389000FAF4BB0F11F460FF1BC06F5F7F4F8F4FB7
:1038A0009F4F16C0882311F096E911C0772321F0AD
:1038B0009EE8872F762F05C0662371F096E8862F45
:1038C00070E060E02AF09A95660F771F881FDAF79C
:1038D000880F9695879597F90895990F0008550FC9
:1038E000AA0BE0E8FEEF16161706E807F907C0F086
:1038F00012161306E407F50798F0621B730B840B8E
:10390000950B39F40A2661F0232B242B252B21F467
:1039100008950A2609F4A140A6958FEF811D811D07
:10392000089597F99F6780E870E060E008959FEF41
:1039300080EC089500240A94161617061806090646
:10394000089500240A941216130614060506089515
:10395000092E0394000C11F4882352F0BB0F40F49D
:10396000BF2B11F460FF04C06F5F7F4F8F4F9F4FDD
:10397000089557FD9058440F551F59F05F3F71F05F
:103980004795880F97FB991F61F09F3F79F08795C6
:103990000895121613061406551FF2CF4695F1DF4F
:1039A00008C0161617061806991FF1CF86957105DF
:1039B000610508940895E894BB2766277727CB0113
:1039C00097F908958ADF08F48FEF08950EF0A6C0E6
:1039D000AECF6894A6CFD5DFC8F39923D1F3C6F351
:1039E000DF93CF931F930F93FF92C92FDD27882377
:1039F0002AF02197660F771F881FDAF720E030E062
:103A000040E85FEB9FE3883920F0803E30F021965C
:103A10008F7725DEECEAF0E003C021DEE9EDF0E08F
:103A20008BD08B01BE01EC01FB2E6F577109759590
:103A3000771F880B990B16DF28E132E741E35FE33C
:103A400016D0AF2D9801AE01FF900F911F91CF912D
:103A5000DF9116DE7DCF0BD07BCF6CDF28F071DFDE
:103A600018F0952309F05DCF62CF1124A5CF81DF37
:103A7000A0F3959FD1F3950F50E0551F629FF00181
:103A8000729FBB27F00DB11D639FAA27F00DB11DDA
:103A9000AA1F649F6627B00DA11D661F829F222763
:103AA000B00DA11D621F739FB00DA11D621F839FEA
:103AB000A00D611D221F749F3327A00D611D231FC0
:103AC000849F600D211D822F762F6A2F11249F570E
:103AD00050408AF0E1F088234AF0EE0FFF1FBB1F31
:103AE000661F771F881F91505040A9F79E3F5105D0
:103AF00070F017CF61CF5F3FECF3983EDCF3869513
:103B000077956795B795F795E7959F5FC1F7FE2B7A
:103B1000880F911D9695879597F908959F3F31F0ED
:103B2000915020F4879577956795B795880F911DEB
:103B30009695879597F90895DF93CF931F930F93E9
:103B4000FF92EF92DF927B018C01689405C0DA2E20
:103B5000EF018DDFFE01E894A59125913591459106
:103B60005591AEF3EF018CDDFE019701A801DA94C7
:103B700079F7DF90EF90FF900F911F91CF91DF9138
:103B80000895A0E1B0E0E6ECFDE137C77C011B0140
:103B90006A01FC0117821682838181FF2BC39E017B
:103BA0002F5F3F4F3901F7019381F10193FD85911B
:103BB00093FF81911F01882309F418C3853239F4DA
:103BC00093FD859193FF81911F01853239F4B701EF
:103BD00090E00E94892656016501E5CF10E0512C46
:103BE000912CFFE1F915D8F08B3279F038F480325E
:103BF00079F08332A1F4F92DF0612EC08D3261F09D
:103C0000803369F4292D21602DC0392D3260932E27
:103C1000892D8460982E2AC0E92DE86015C097FC94
:103C20002DC020ED280F2A3088F496FE06C03AE019
:103C3000139F200D1124122F19C08AE0589E200DC9
:103C40001124522EE92DE0629E2E10C08E3231F4E6
:103C500096FCCCC2F92DF0649F2E08C08C3621F45E
:103C6000292D2068922E02C0883641F4F10193FD7F
:103C7000859193FF81911F018111B3CF9BEB980F29
:103C8000933020F4992D9061805E07C09BE9980FD6
:103C9000933008F059C1992D9F7E96FF16E09F73CF
:103CA000992E853619F49064992E08C0863621F431
:103CB000392F3068932E02C01111115097FE07C0A2
:103CC0001C3350F444244394410E27E00BC01830B9
:103CD00038F027E017E005C027E09CE3492E02C03A
:103CE000212F412C560184E0A80EB11CF601608101
:103CF000718182819381042DA301B6D66C01F98173
:103D0000FC87F0FF02C0F3FF06C091FC06C092FEE4
:103D100006C000E205C00DE203C00BE201C000E0F6
:103D20008C858C7019F0011143C280C297FE10C0BF
:103D30004C0CFC85F4FF04C08A81813309F44A9459
:103D4000141474F528E0241578F588E0482E2CC06A
:103D500096FC2AC0812F90E08C159D059CF03CEFCD
:103D6000C3163FEFD30674F0892D8068982E0AC0E1
:103D7000E2E0F0E0EC0FFD1FE10FF11D80818033E8
:103D800019F411501111F4CF97FE0EC0442443943E
:103D9000410E812F90E0C816D9062CF41C1904C0DE
:103DA0004424439401C010E097FE06C01C141D0477
:103DB00034F4C601019605C085E090E002C081E0C0
:103DC00090E001110196112331F0212F30E02F5F97
:103DD0003F4F820F931F252D30E08217930714F475
:103DE000581A01C0512C892D897041F4552031F0A9
:103DF000B70180E290E08DD75A94F8CF002321F0EC
:103E0000B701802F90E085D793FC08C0552031F092
:103E1000B70180E390E07DD75A94F8CF97FE4AC06F
:103E20004601D7FE02C0812C912CC6018819990940
:103E3000F301E80FF91FFE87ED8796012419310978
:103E4000388B2F87012F10E01195019511093FEF55
:103E50008316930621F4B7018EE290E05AD7C81476
:103E6000D9044CF08F8598898815990524F4ED853F
:103E7000FE85818101C080E3F1E08F1A91082D85D4
:103E80003E852F5F3F4F3E872D878016910624F099
:103E9000B70190E03ED7DBCFC814D90441F49A8132
:103EA000963320F4953319F43C8534FF81E3B70150
:103EB00090E048C08A81813319F09C859F7E9C8761
:103EC000B70190E026D7111105C094FC16C085E615
:103ED00090E015C0B7018EE290E01BD71E5F82E034
:103EE00001E0080FF301E80FF11D8081B70190E0B8
:103EF00010D7802F0113F4CFE8CF85E490E0B7010D
:103F000008D7D7FC06C0C114D10441F4EC85E4FF06
:103F100005C0D194C194D1088DE201C08BE2B701F4
:103F200090E0F7D680E32AE0C216D1042CF08F5F30
:103F3000FAE0CF1AD108F7CFB70190E0EAD6B7017F
:103F4000C601C096E6D649C1833631F0833779F091
:103F5000833509F052C01FC0560132E0A30EB11CD8
:103F6000F6018081898301E010E0630111C05601F0
:103F7000F2E0AF0EB11CF601C080D18096FE03C006
:103F8000612F70E002C06FEF7FEFC60179D68C0120
:103F9000F92DFF7713C0560122E0A20EB11CF601E5
:103FA000C080D18096FE03C0612F70E002C06FEF29
:103FB0007FEFC6014CD68C01F92DF0689F2EF3FDE2
:103FC00018C0852D90E00817190798F4B70180E212
:103FD00090E09FD65A94F5CFF60197FC859197FE15
:103FE00081916F01B70190E094D651105A9401501D
:103FF00011090115110581F7F0C0843611F08936D9
:1040000059F5560197FE09C024E0A20EB11CF60135
:1040100060817181828193810AC0F2E0AF0EB11C90
:10402000F60160817181072E000C880B990BF92D28
:10403000FF769F2E97FF09C09095809570956195AA
:104040007F4F8F4F9F4FF0689F2E2AE030E0A301F3
:10405000D5D6C82EC6183EC0092D853721F40F7E4F
:104060002AE030E01DC0097F8F3691F018F48835C2
:1040700059F0BCC0803719F0883711F0B7C0006123
:1040800004FF09C0046007C094FE08C0066006C0B3
:1040900028E030E005C020E130E002C020E132E05D
:1040A000560107FF09C084E0A80EB11CF60160812B
:1040B00071818281938108C0F2E0AF0EB11CF601DC
:1040C0006081718180E090E0A30198D6C82EC61867
:1040D0000F77902E96FE0BC0092D0E7FC11650F45F
:1040E00094FE0AC092FC08C0092D0E7E05C0DC2C8F
:1040F000092D03C0DC2C01C0D12E04FF0DC0FE0130
:10410000EC0DF11D8081803311F4097E09C002FF9E
:1041100006C0D394D39404C0802F867809F0D3943A
:1041200003FD10C000FF06C01C2DD51478F4150D3A
:104130001D190CC0D51450F4B70180E290E0E9D508
:10414000D394F8CFD51410F45D1801C0512C04FF9E
:104150000FC0B70180E390E0DCD502FF16C001FD7F
:1041600003C088E790E002C088E590E0B7010CC08A
:10417000802F867851F001FF02C08BE201C080E2FF
:1041800007FD8DE2B70190E0C4D5C11630F4B70148
:1041900080E390E0BED51150F8CFCA94F301EC0D46
:1041A000F11D8081B70190E0B4D5C110F6CF15C0E4
:1041B000F4E0F51550F584E0581A93FE1EC0011185
:1041C00025C02C8523FF27C006E011E0392D307172
:1041D000932EF8018491811121C0552009F4FCCC63
:1041E000B70180E290E095D55A94F7CFF701868128
:1041F000978123C08FEF9FEF20C0B70180E290E04E
:1042000088D55A945110F9CFDACF512CB701802FAD
:1042100090E07FD5D6CF0AE011E0D8CF9110805240
:10422000B70190E076D50F5F1F4FD3CF23E0251560
:1042300010F483E0C1CF512CC4CF6096E2E1F9C302
:1042400020FD09C0FC0123FD05C022FF02C07383CD
:10425000628351834083089544FD17C046FD17C013
:10426000AB01BC01DA01FB01AA0FBB1FEE1FFF1F50
:104270001094D1F74A0F5B1F6E1F7F1FCB01BA014D
:10428000660F771F881F991F09C033E001C034E013
:10429000660F771F881F991F3150D1F7620F711D6C
:1042A000811D911D08950F931F93CF93DF938C0170
:1042B000C801F1D4EC0197FD06C0AED4892BC1F73B
:1042C000B801CE0182D5CE01DF91CF911F910F9120
:1042D0000895A0E0B0E0EEE6F1E295C37C018B0129
:1042E0006A01D22FD8D49C0133272B32310521F01B
:1042F0002D32310551F4D0680150110911F480E0DC
:1043000064C0C701C8D497FDFACFCD2FCD7F2D2F24
:10431000207309F58033F9F4580181E0A81AB10837
:1043200009F440C0C701B7D497FD3CC09C012F7D64
:1043300033272835310549F4C2640250110991F13F
:10434000C701A9D497FF07C02DC0D6FF02C0C26025
:1043500001C0C2618501812C912C540120ED280FF0
:10436000283078F0C4FF03C0B7012FD518C02A3019
:1043700040F0C6FFF9CF2F7D3FEE320F3630A0F769
:1043800027504C2FC501B40167DF4B015C01C260AF
:104390000150110951F0C7017ED497FFDFCFC1FD55
:1043A00004C0ADCF812C912C5401C7FF08C0B0943C
:1043B000A09490948094811C911CA11CB11C2C2F62
:1043C000B501A401C6013CDF81E0CDB7DEB7ECE06A
:1043D00036C3A0E2B0E0EEEEF1E211C35C014B01A6
:1043E0007A018E010F5F1F4F680180E2F801119280
:1043F0008A95E9F7F501538040E050E0612C90E0A8
:10440000712CA1E0B0E0F90153FC859153FE81913C
:104410008F01482E9F01811103C080E090E094C07D
:104420008E3519F44115510551F1672D70E064176F
:1044300075073CF48D3561F18D3219F4992311F132
:1044400003C0992309F46BC0842D869586958695C3
:10445000F601E80FF11D842D87708D0102C0000F59
:10446000111F8A95E2F7C8019081892B808364141B
:1044700059F0461410F44394E7CF4A94E5CF7724DB
:10448000739403C091E001C090E04F5F5F4FBBCFDA
:10449000992319F08E8180628E83711003C0772476
:1044A000739419C0F6019E012F5D3F4F8081809566
:1044B00081932E173F07D1F7F2CFE114F10431F0C9
:1044C000F7018083B7016F5F7F4F7B0171E0871A2F
:1044D0009108712CE9F0C501DED397FD17C0FC01EE
:1044E000FF2723E0F595E7952A95E1F7EC0DFD1DF3
:1044F000208130E0AC014770552702C035952795E3
:104500004A95E2F720FDD9CFB5015FD4711085CF70
:10451000E114F10411F0F7011082C80115C0682FF1
:10452000669566956695F601E60FF11D682F677032
:104530008D0102C0000F111F6A95E2F7B80170816A
:10454000672B6083682EA1CFA096E0E174C22F9202
:104550003F924F925F926F927F929F92AF92BF92E3
:10456000CF92DF92EF92FF920F931F93CF93DF933F
:104570006C018B011A018FD3EC0199278B329105C5
:1045800029F08D9779F430E8932E01C0912C0150D9
:10459000110911F480E0FEC0C6017DD3EC0197FF44
:1045A00002C0F8CF912CCE013FD38936910531F06E
:1045B0008E36910581F5C6E5DFE002C0C9E5DFE092
:1045C0002196FE013197B490BB20B1F00150110942
:1045D00079F0C60160D37C0197FD0AC025D39927E5
:1045E000EB2DF0E08E179F0759F3B601C701EDD30D
:1045F000CC55DF4079F603C0C955DF4029F080E093
:1046000090E0A0E8BFE704C080E090E0A0ECBFE746
:10461000BC01CD01AFC0412C512C3201E12CF12C59
:104620002C2F20532A3008F5E92DE260BE2E892D6B
:10463000887092FE06C081111FC0FFEFEF1AFF0ABB
:104640001BC0882319F081E0E81AF10840E2C30199
:10465000B20102DE2B013C0168397949894999414F
:1046600058F0F92DF660BF2E07C02E3F81F493FC61
:104670000EC0292D2860B22E0150110939F0C60153
:104680000AD3EC019B2C97FFCBCF01C09B2C91FE52
:1046900081CFCE018F7D99278534910509F03EC0E9
:1046A000580181E0A81AB10809F474CFC601F3D209
:1046B000EC0197FD6FCF99278B32910529F08D97EB
:1046C00061F4E92DE0619E2E5801F2E0AF1AB108C5
:1046D00009F460CFC601DFD2EC01CE01C0970A9782
:1046E00008F058CF8501A12CB12CB501BB0C880B6B
:1046F000990B2C2F205340E2AFDD5B0101501109D3
:1047000031F0C601C8D2EC01C0970A9770F394FE4D
:1047100003C0B194A194B108EA0CFB1C012B29F051
:10472000D7FD03C0B601CE0150D3C301B20198D862
:10473000F7FE06C0F194E194F108C5E7DFE002C09E
:10474000CDE8DFE06E0128E1C21AD10800E210E0F6
:10475000E016F10648F0FE012591359145915491FE
:104760007AD9E01AF10AF4CF249716950795CC165A
:10477000DD0671F797FE05C0DC01CB01B058BC0126
:10478000CD012114310429F0F1016083718382830A
:10479000938381E0DF91CF911F910F91FF90EF9074
:1047A000DF90CF90BF90AF909F907F906F905F9081
:1047B0004F903F902F900895A0E0B0E0E1EEF3E23B
:1047C00020C15C01EB014A01FC0117821682612CB9
:1047D000F5010381FE0103FD859103FF8191182FEF
:1047E000EF01882309F400C190E016D2892B19F05B
:1047F000C50159DDEDCF153241F4FE0103FD1591E0
:1048000003FF1191EF01153271F4C50144D297FDF8
:10481000E9C0412F50E09C01332724173507C1F22E
:10482000B501D3D2E1C01A3241F403FD159103FF63
:104830001191EF017724739401C0712CE12CF12CBC
:1048400020ED210F2A3080F4F72DF2607F2EB70182
:1048500080E090E040E200DD7B01FE0103FD159168
:1048600003FF1191EF01ECCF71FE04C0E114F104DC
:1048700021F4BAC0EE24EA94FE2C183619F01C3646
:1048800061F014C0FE0103FD159103FF1191EF01CA
:10489000183661F4872D8860782E972D9460792ED4
:1048A000FE0103FD159103FF1191EF01112309F49E
:1048B0009BC0612F70E084E49FE0BED1892B09F496
:1048C00093C070FC07C0F401C080D180C40102967F
:1048D0004C0102C0C12CD12C1E3649F4F501468191
:1048E000578160E070E0272DC601AADC71CF133636
:1048F000B1F471FC03C0EE24E394F12CC501CBD1DB
:1049000097FD70C0C114D10429F0F6018083C6015F
:1049100001966C0191E0E91AF10881F75FC01B353F
:1049200051F49E01A601B701C50153DDEC01892BAD
:1049300009F054C04EC0C501B6DC97FD53C01F3608
:10494000C9F140F4143691F11936B9F1183509F06E
:104950003AC028C01337A9F018F4103719F133C042
:10496000153721F11837F1F02EC0C114D10429F008
:10497000F6010083C60101966C0191E0E91AF10885
:1049800059F0C50188D18C0197FD06C045D1892B0E
:1049900061F3B501C80119D2C114D104F9F0F601CF
:1049A00010821CC0F72DF0647F2E07C0872D806217
:1049B000782E03C0972D9061792E272DA601B7017F
:1049C000C50187DC04C0A601B701C501C0DD8111A6
:1049D00005C0F5018381807329F406C070FCF8CE10
:1049E0006394F6CE662019F0862D90E002C08FEF1A
:1049F0009FEFCDB7DEB7EEE020C02F923F924F92EF
:104A00005F926F927F928F929F92AF92BF92CF925E
:104A1000DF92EF92FF920F931F93CF93DF93CDB767
:104A2000DEB7CA1BDB0B0FB6F894DEBF0FBECDBFDF
:104A300009942A88398848885F846E847D848C84B0
:104A40009B84AA84B984C884DF80EE80FD800C81B9
:104A50001B81AA81B981CE0FD11D0FB6F894DEBF9C
:104A60000FBECDBFED010895283008F027E03327B1
:104A7000DA01990F311D87FD91600096610571057E
:104A800039F432602E5F3D9330E32A95E1F70895C3
:104A90009F3F30F080387105610509F03C5F3C5F55
:104AA0003D93913008F08068911DDF93CF931F9361
:104AB0000F93FF92EF92192F987F9695E92F969575
:104AC0009695E90FFF27E859FE4F99273327EE24E3
:104AD000FF24A701E70105900894079428F4360FF6
:104AE000E71EF81E491F511D660F771F881F991F6B
:104AF0000694A1F70590079428F4E70EF81E491FC5
:104B0000561FC11D770F881F991F661F0694A1F7B6
:104B10000590079428F4F80E491F561FC71FD11D92
:104B2000880F991F661F771F0694A1F705900794B9
:104B300020F4490F561FC71FD81F990F661F771FF4
:104B4000881F0694A9F784911095177041F0D695A7
:104B5000C79557954795F794E7941A95C1F7EEE0F6
:104B6000F1E06894159015913591659195910590B6
:104B70007FE27395E118F10A430B560BC90BD0097C
:104B8000C0F7E10CF11E431F561FC91FD01D7EF454
:104B9000703311F48A95E6CFE894015030F0080F95
:104BA0000AF40027021708F4202F2395022F7A33E6
:104BB00028F079E37D932A95E9F710C07D932A9533
:104BC00089F6069497956795379517951794E11888
:104BD000F10A430B560BC90BD00998F023957E912F
:104BE00073957A3308F070E37C932013B8F77E91C5
:104BF00070617D9330F0839571E37D9370E32A9526
:104C0000E1F71124EF90FF900F911F91CF91DF9169
:104C1000992787FD9095089591114EC1803219F022
:104C200089508550D0F708959111089581548A5183
:104C300008F4805E855A0895FC010590061621F05F
:104C40000020D9F7C00108953197CF010895FC01E4
:104C50000590615070400110D8F7809590958E0FA7
:104C60009F1F0895FB01DC014150504030F08D91B1
:104C70000190801919F40020B9F7881B990B089549
:104C8000FC016150704001900110D8F7809590951B
:104C90008E0F9F1F0895CF93DF93EC012B8120FF90
:104CA00033C026FF0AC02F7B2B838E819F81019604
:104CB0009F838E838A8190E029C022FF0FC0E88104
:104CC000F9818081082E000C990B009719F420625D
:104CD0002B831AC03196F983E8830EC0EA85FB85E1
:104CE000099597FF09C02B81019611F080E201C060
:104CF00080E1822B8B8308C02E813F812F5F3F4F45
:104D00003F832E83992702C08FEF9FEFDF91CF91D2
:104D100008950F931F93CF93DF93FB01238121FD10
:104D200003C08FEF9FEF2CC022FF16C04681578132
:104D3000248135814217530744F4A081B1819D013C
:104D40002F5F3F4F318320838C93268137812F5FE4
:104D50003F4F3783268314C08B01EC01FB01008495
:104D6000F185E02D0995892BE1F6D80116968D91F4
:104D70009C911797019617969C938E931697CE0148
:104D8000DF91CF911F910F910895AEE0B0E0EAEC72
:104D9000F6E241CE0D891E8986E08C831A83098351
:104DA0008FEF9FE79E838D83AE01475E5F4F6F89D4
:104DB000788DCE0101960E94C11DEF81F885E00F2C
:104DC000F11F10822E96E4E042CEFB01238120FFEA
:104DD00012C026FD10C08F3F3FEF930761F0828322
:104DE0002F7D206423832681378121503109378329
:104DF0002683992708958FEF9FEF0895FA01AA2738
:104E0000283051F1203181F1E8946F936E7F6E5F0D
:104E10007F4F8F4F9F4FAF4FB1E03ED0B4E03CD0BB
:104E2000670F781F891F9A1FA11D680F791F8A1F9E
:104E3000911DA11D6A0F711D811D911DA11D20D005
:104E400009F468943F912AE0269F11243019305DBF
:104E50003193DEF6CF010895462F4770405D4193B0
:104E6000B3E00FD0C9F7F6CF462F4F70405D4A33FD
:104E700018F0495D31FD4052419302D0A9F7EACFC5
:104E8000B4E0A6959795879577956795BA95C9F7F4
:104E900000976105710508959B01AC010A2E0694E7
:104EA0005795479537952795BA95C9F7620F731FA0
:104EB000841F951FA01D0895992788270895F894A9
:024EC000FFCF22
:104EC20000831000000104100000018208000001AC
:104ED20000000000802500000000080000C84134E6
:104EE2000000000000803F00000000000000000001
:104EF20000000000000000000000000000000000B0
:104F02000000000000000000000000980000C40142
:104F120000B80300A00700581300E02600F04D007F
:104F220098AF007086014D4541530A0025663A2527
:104F3200670D004D454153316E6D0A0025643A25D7
:104F4200670D005241570025640D004441524B0049
:104F520041434B0A004D4F44454C3F004D4F4445A1
:104F62004C2F25730A004E414D453F004E414D45A1
:104F72002F25730A00534E3F00534E2F25730A000C
:104F82005743434600574343462F25673A25673A1E
:104F920025673A25673A25673A25670A0053543F41
:104FA2000053542F25633A252E33660A0045585084
:104FB2002F004558502F4155544F004558502F311E
:104FC20030307573004558502F32303075730045BC
:104FD20058502F3530307573004558502F316D734E
:104FE200004558502F326D73004558502F356D7360
:104FF200004558502F31306D73004558502F3230D4
:105002006D73004558502F35306D73004558502F41
:0C5012003130306D73004E414B0A00003D
:00000001FF
