:10000000CBC60000E6C60000E4C60000E2C6000061
:10001000E0C60000DEC60000DCC60000DAC6000054
:10002000D8C60000D6C600000C94DC150C94A916A6
:10003000D0C60000CEC60000CCC60000CAC6000074
:10004000C8C60000C6C60000C4C60000C2C6000084
:10005000C0C60000BEC60000BCC60000BAC6000094
:10006000B8C60000B6C60000B4C60000B2C60000A4
:10007000B0C60000AEC60000ACC60000AAC60000B4
:10008000A8C60000A6C60000A4C60000A2C60000C4
:10009000A0C600009EC600009CC600009AC60000D4
:1000A00098C6000096C6000094C600000800000034
:1000B000BE922449123EABAAAA2ABECDCCCC4C3E5D
:1000C00000000080BEABAAAAAA3E00000000BF004C
:1000D0000000803F0000000000084178D3BB438748
:1000E000D1133D190E3CC3BD4282AD2B3E68EC825C
:1000F00076BED98FE1A93E4C80EFFFBE01C4FF7FE1
:100100003F00000000006E616E00696E66000040F6
:100110007A10F35A00A0724E18090010A5D4E80016
:1001200000E87648170000E40B54020000CA9A3B2E
:10013000000000E1F50500008096980000004042B4
:100140000F000000A0860100000010270000000042
:10015000E803000000006400000000000A00000046
:1001600000000100000000002C76D888DC674F08F2
:1001700023DFC1DFAE59E1B1B796E5E3E453C63AF8
:10018000E651997696E8E6C28426EB898C9B62ED6F
:10019000407C6FFCEFBC9C9F40F2BAA56FA5F49029
:1001A000055A2AF75C936B6CF9676DC11BFCE0E4A0
:1001B0000D47FEF520E6B500D0ED902E03009435F6
:1001C00077050080841E080000204E0A000000C849
:1001D0000C333333330F986E12831141EF8D21149A
:1001E000893BE65516CFFEE6DB18D1844B381BF76A
:1001F0007C1D901DA4BBE424203284725E22810009
:10020000C9F124ECA1E53D277700780079007A0058
:100210007B007C007C007D007E007F0080008100F0
:1002200082008300840084008500860087008800A7
:1002300089008A008B008C008D008E008F0090005A
:100240009000910092009300940095009600970012
:10025000980099009A009B009C009D009E009F00C2
:10026000A000A100A200A300A400A500A600A70072
:10027000A800A900AA00AB00AC00AD00AE00AF0022
:10028000B000B100B200B300B400B500B600B800D1
:10029000B900BA00BB00BC00BD00BE00BF00C0007A
:1002A000C100C200C400C500C600C700C800C90024
:1002B000CA00CB00CD00CE00CF00D000D100D200CC
:1002C000D400D500D600D700D800DA00DB00DC006F
:1002D000DD00DF00E000E100E200E400E500E60010
:1002E000E700E900EA00EB00ED00EE00EF00F000AF
:1002F000F200F300F400F600F700F900FA00FB004A
:10030000FD00FE00FF0001010201040105010701DB
:10031000080109010B010C010E010F01110112016D
:1003200014011601170119011A011C011D011F01F9
:100330003A003B003B003B003C003C003D003D00E0
:100340003D003E003E003F003F003F0040004000B7
:10035000410041004100420042004300430043008D
:100360004400440045004500450046004600470063
:100370004700480048004800490049004A004A0038
:100380004A004B004B004C004C004C004D004D000F
:100390004E004E004F004F004F00500050005100E3
:1003A00051005100520052005300530054005400B9
:1003B000540055005500560056005700570057008E
:1003C00058005800590059005A005A005A005B0062
:1003D0005B005C005C005D005D005D005E005E0037
:1003E0005F005F006000600060006100610062000B
:1003F00062006300630063006400640065006500E0
:1004000066006600670067006700680068006900B2
:1004100069006A006A006B006B006B006C006C0086
:100420006D006D006E006E006F006F006F00700059
:10043000700071007100720072007300730074002C
:100440007400740075007500760076007700770000
:1004500078007800790079007A007A007A007B00D1
:100460007B007C007C007D007D007E007E007F00A4
:100470007F00800080008100810082008200820075
:100480008300830084008400850085008600860048
:100490008700870088008800890089008A008A0018
:1004A0008B008B008C008C008D008D008E008E00E8
:1004B0008F008F00900090009100910092009200B8
:1004C0009300930094009400950095009600960088
:1004D0009700970098009800990099009A009A0058
:1004E0009B009B009C009C009D009D009E009E0028
:1004F0009F009F00A000A000A100A100A200A300F7
:10050000A300A400A400A500A500A600A600A700C3
:10051000A700A800A800A900A900AA00AB00AB0092
:10052000AC00AC00AD00AD00AE00AE00AF00AF005F
:10053000B000B100B100B200B200B300B300B4002B
:10054000B400B500B600B600B700B700B800B800F8
:10055000B900BA00BA00BB00BB00BC00BC00BD00C3
:10056000BE00BE00BF00BF00C000C000C100C2008E
:10057000C200C300C300C400C500C500C600C60059
:10058000C700C800C800C900C900CA00CB00CB0022
:10059000CC00CC00CD00CE00CE00CF00D000D000EB
:1005A000D100D100D200D300D300D400D500D500B3
:1005B000D600D600D700D800D800D900DA00DA007B
:1005C000DB00DC00DC00DD00DE00DE00DF00DF0041
:1005D000E000E100E100E200E300E300E400925803
:1005E000114B9258114B9258114B9258114B9258F3
:1005F000114B9258114B9258114B9258114B9258E3
:10060000114B9258114B9258114B9258114B9258D2
:10061000114B9258114B9258114B9258114B9258C2
:10062000114B9258114B9258114B9258114B9258B2
:10063000114B9258114B9258114B9258114B9258A2
:10064000114B9258114B9258114B9258114B925892
:10065000114B9258114B9258114B9258114B925882
:10066000114B9258114B9258114B9258114B925872
:10067000114B9258114B9258114B9258114B33BD5C
:10068000174B520B174B2202164BB4A1144B1CEA0A
:10069000124B70DB104BC9750E4BA9A80B4B5EFCBF
:1006A000074B660C044B58D3FF4AEE49F74AD09DDE
:1006B000EE4AF1EFE54AF960DD4A24B3D54AC1B408
:1006C000CE4A4E08C84A13B2C14A46B6BB4A1019B0
:1006D000B64A8FDEB04AE611AC4A872FA84AC6ACAC
:1006E000A44A8E7FA14AE79D9E4AF1FD9B4AE89568
:1006F000994A1F5C974A8F34954A600B934AF4FAE3
:10070000904AE9FE8E4AEB128D4AB1328B4A025A68
:10071000894AB084874AAF8C854A897A834A996826
:10072000814AFAB07E4A93977A4A1F88764AB385FF
:10073000724A5B936E4A0BA06A4A01BA664ABAF1E2
:10074000624AE74C5F4A22D15B4AF183584AC56A44
:10075000554AF78A524ACA34504AA2514E4AC7A44F
:100760004C4ADD274B4AA1D4494AE4A4484A8E9218
:10077000474A9E97464A2CAD454AA1CC444A53F27B
:10078000434ADA18434ADF3A424A2553414A805CD9
:10079000404ADC513F4A3A2E3E4AF4933C4A94D8B0
:1007A0003A4A2505394AA31C374AFD21354A17180C
:1007B000334ACA01314AE2E12E4AD1B52C4A647B60
:1007C0002A4A3441284A1C0B264AE4DC234A46BA0A
:1007D000214AE7A61F4A60A61D4A36BC1B4AA0094B
:1007E0001A4A618E184AF82C174A6CE4154AC9B3A4
:1007F000144A1D9A134A7B96124AF7A7114AAACDAA
:10080000104A1408104A7D560F4A2BB60E4A0F267E
:100810000E4A1EA50D4A51320D4AA6CC0C4A217330
:100820000C4AC7240C4A47E00B4AEBA20B4A1B6E4A
:100830000B4A17410B4A261B0B4A8EFB0A4A9BE1C7
:100840000A4A9BCC0A4AE2BB0A4AC2AE0A4A70A3D1
:100850000A4A8A990A4A85910A4AE68A0A4A2F85EB
:100860000A4AEA7F0A4A9E7A0A4AD9740A4A276ED5
:100870000A4A1B660A4AF6540A4ADE3D0A4A4E25CF
:100880000A4A860B0A4AC6F0094A4DD5094A58B9A0
:10089000094A239D094AEA80094AE664094AD54B78
:1008A000094A4B37094A1823094A170F094A26FBF8
:1008B000084A21E7084AE7D2084A56BE084A4DA925
:1008C000084AAE93084A587D084A5265084A1E4CA9
:1008D000084AF631084ACA16084A8DFA074A31DD35
:1008E000074AAABE074AEA9E074AE57D074A8E5B89
:1008F000074ADA37074AD914074A25F1064AB2CB24
:10090000064A54A4064ADF7A064A274F064A0321BC
:10091000064A4AF0054AD4BC054A7B86054A184D6A
:10092000054AE70D054A5FC1044A1672044A76205B
:10093000044AE2CC034ABF77034A6C21034A48CAFF
:10094000024AB172024A011B024A91C3014AB76CC2
:10095000014A2919014A34D1004A278A004AD5435D
:10096000004A20FCFF495471FF49F0E6FE499C5CB7
:10097000FE4906D2FD49DA46FD49CABAFC49862D30
:10098000FC49C39EFB4919FEFA49C950FA49C5A260
:10099000F949B8F4F8494A47F8491E9BF749D5F098
:1009A000F6490B49F64958A4F5495103F5498766BC
:1009B000F44987CEF349DC3BF349176CEE49176CD9
:1009C000EE49176CEE49176CEE49176CEE49176C3F
:1009D000EE49176CEE49176CEE49176CEE49176C2F
:1009E000EE49176CEE49176CEE49176CEE49176C1F
:1009F000EE49176CEE49176CEE49176CEE49176C0F
:100A0000EE49176CEE49176CEE49176CEE49176CFE
:100A1000EE49176CEE49176CEE49176CEE49176CEE
:100A2000EE49176CEE49176CEE49176CEE49176CDE
:100A3000EE49176CEE49176CEE49176CEE49176CCE
:100A4000EE49176CEE49176CEE49176CEE49176CBE
:100A5000EE49176CEE49176CEE49176CEE496415B8
:100A60001A432833B23F0F676238A66318B72E8245
:100A7000C03272C9AEAD43503138303233533030AA
:100A80003030360055565649535350454300435075
:100A900031383000C800C900CA00CB00CC00CD00FE
:100AA000CE00CF00D000D100D200D300D400D500BA
:100AB000D600D700D800D900DA00DB00DC00DD006A
:100AC000DE00DF00E000E100E200E300E400E5001A
:100AD000E600E700E800E900EA00EB00EC00ED00CA
:100AE000EE00EF00F000F100F200F300F400F5007A
:100AF000F600F700F800F900FA00FB00FC00FD002A
:100B0000FE00FF00000101010201030104010501D3
:100B100006010701080109010A010B010C010D0181
:100B20000E010F0110011101120113011401150131
:100B300016011701180119011A011B011C011D01E1
:100B40001E011F0120012101220123012401250191
:100B500026012701280129012A012B012C012D0141
:100B60002E012F01300131013201330134013501F1
:100B700036013701380139013A013B013C013D01A1
:100B80003E013F0140014101420143014401450151
:100B900046014701480149014A014B014C014D0101
:100BA0004E014F01500151015201530154015501B1
:100BB00056015701580159015A015B015C015D0161
:100BC0005E015F0160016101620163016401650111
:100BD00066016701680169016A016B016C016D01C1
:100BE0006E016F0170017101720173017401750171
:100BF00076017701780179017A017B017C017D0121
:100C00007E017F01800181018201830184018501D0
:100C100086018701880189018A018B018C018D0180
:100C20008E018F0190019101920193019401950130
:100C300096019701980199019A019B019C019D01E0
:100C40009E019F01A001A101A201A301A401A50190
:100C5000A601A701A801A901AA01AB01AC01AD0140
:100C6000AE01AF01B001B101B201B301B401B501F0
:100C7000B601B701B801C800D200DC00E600F00000
:100C8000FA0004010E01180122012C013601400175
:100C90004A0154015E01680172017C0186019001E4
:100CA0009A01A401AE01B80117B7D13817B751396D
:100CB0006F12033A6F12833A6F12033B0AD7A33BBA
:100CC0000AD7233C0AD7A33CCDCC4C3DCDCCCC3D60
:100CD00014035500560056004900530053005000BD
:100CE0004500430000000E034F0050005400430035
:100CF0004F004D0000000403090409023E000201F8
:100D000000C03209040000010202010005240010A5
:100D100001042402060524060001070582030800D9
:100D2000FF09040100020A00000007050402100088
:100D300005070583021000051201100102000008DA
:100D4000A321012001000102DC016364696E6F7060
:100D5000737578585B65666745464700616E006E3F
:100D600066696E69747900CDCCCC3D0AD7233C17F7
:100D7000B7D13877CC2B329595E6241FB14F0A00B6
:100D80000020410000C84200401C4620BCBE4CCAA6
:100D90001B0E5AAEC59D740011241FBECFEFDAE0C2
:100DA000DEBFCDBF12E0A0E0B1E0E8ECFCE402C0A1
:100DB00005900D92AC35B107D9F729E0ACE5B2E06A
:100DC00001C01D92A436B207E1F70E9450130C94A3
:100DD000622616C94F925F926F927F928F929F9276
:100DE000AF92BF92CF92DF92EF92FF92CF93DF93B9
:100DF000CDB7DEB760970FB6F894DEBF0FBECDBF9C
:100E0000EEE5FAE085909590A590B490E2E6FAE0E0
:100E10004590559065907490E6E6FAE025913591FD
:100E20004591549129833A834B835C83EAE6FAE047
:100E300025913591459154912D833E834F83588759
:100E4000EEE6FAE0259135914591549129873A874C
:100E50004B875C87E2E7FAE0259135914591549103
:100E60002D873E874F87588BBC016F5F7F4F072EC2
:100E7000000C880B990B0E94351B6B017C019B01B8
:100E8000AC01C301B2010E942E1CA50194010E9475
:100E9000321A4B015C01A701960169817A818B812D
:100EA0009C810E942E1CA70196010E942E1C9B0172
:100EB000AC01C501B4010E94321A4B015C01A701CB
:100EC00096016D817E818F8198850E942E1CA701DD
:100ED00096010E942E1CA70196010E942E1C9B01C8
:100EE000AC01C501B4010E94321A4B015C01A7019B
:100EF000960169857A858B859C850E942E1CA701A9
:100F000096010E942E1CA70196010E942E1CA7018B
:100F100096010E942E1C9B01AC01C501B4010E94E8
:100F2000321A4B015C01A70196016D857E858F8584
:100F300098890E942E1CA70196010E942E1CA701D1
:100F400096010E942E1CA70196010E942E1CA7014B
:100F500096010E942E1C9B01AC01C501B4010E94A8
:100F6000321A60960FB6F894DEBF0FBECDBFDF9188
:100F7000CF91FF90EF90DF90CF90BF90AF909F9078
:100F80008F907F906F905F904F900895089508958F
:100F900080E091E00C946A1880E091E00C94801954
:100FA00008950000000000000000000008958F92E6
:100FB0009F92AF92BF92CF92DF92EF92FF9280E426
:100FC00080937C0080917C00876080937C001092ED
:100FD0007B0080917B0080937B0087EC80937A007C
:100FE00080917A0086FDFCCF609178008091790035
:100FF00070E0782B7370072E000C880B990B0E9401
:10100000351B20E030EC4FE754E40E949A1A20E0B0
:1010100030E040EA50E40E942E1C4B015C019B0131
:10102000AC0160E070E080EA90E40E94311A6B014C
:101030007C0120E030E0A9010E94961A882369F023
:1010400020E030E44CE156E4C501B4010E942E1CBE
:10105000A70196010E949A1A03C060E070E0CB01DC
:1010600020E030E44CE156E40E949A1A0E94EE1B04
:1010700020E030EB46E555E40E949A1A2FE03FEC61
:101080004BE55BE30E94321A9B01AC0160E070E02B
:1010900080E89FE30E949A1A23E333E948E853E487
:1010A0000E94311AFF90EF90DF90CF90BF90AF90E9
:1010B0009F908F9008950E947313209A289A089504
:1010C000CF932898000080E00E947C13C82F80E016
:1010D0000E947C13289ACF7140E8C49F900111248C
:1010E0008695A901482BCA01CF910895819A8998C4
:1010F000859A8D98E4EBF4E011921192119211927D
:1011000089E0E433F807C1F70895CF92DF92EF92B8
:10111000FF920F931F93CF93DF93C4EBD4E004E3CC
:1011200019E0FE0111921192119211920E171F07F0
:10113000C9F7899836DF899A34DF89988D9A31DF2B
:10114000C12CD12C760180911F0190912001A0919A
:101150002101B0912201C816D906EA06FB0654F413
:10116000899A1FDF89981DDF8FEFC81AD80AE80A0D
:10117000F80AE9CF8D9828E5E22EF12C899A11DF43
:1011800089980FDFE1E0EE1AF108C1F794EBE92E40
:1011900094E0F92E95DFBC0180E090E00E94331BC3
:1011A000F70161937193819391937F01899AF9DE9D
:1011B0008998F7DE0E151F0569F780E2E82EF12CFD
:1011C000899AEFDE8998EDDEF1E0EF1AF108C1F7B8
:1011D00020E030E243E755E4688179818A819B8190
:1011E0000E94E51B181644F480E090E2A3E7B5E402
:1011F00088839983AA83BB8324960C171D0741F724
:10120000DF91CF911F910F91FF90EF90DF90CF90E2
:101210000895CF92DF92EF92FF92CF93DF93C09029
:101220001B01D0901C01E0901D01F0901E0120E0F8
:1012300030E040E252E4C701B6010E94E51B1816F7
:10124000D4F0A701960160916A0270916B028091BF
:101250006C0290916D020E94311A9F77D1E0C0E03C
:1012600020E030E040E050E40E94E51B87FDD0E044
:101270008D2F9C2F02C082E090E0DF91CF91FF90F4
:10128000EF90DF90CF90089531DF15DF84B7877F2F
:1012900084BF0FB6F894A895809160008861809310
:1012A0006000109260000FBE90E080E80FB6F894E6
:1012B00080936100909361000FBE0C94BF152F9234
:1012C0003F924F925F926F927F928F929F92AF92D6
:1012D000BF92CF92DF92EF92FF920F931F93CF9323
:1012E000DF9300D000D0CDB7DEB780906E02909033
:1012F0006F02880C991C880C991CC4018855934F67
:101300005C01EEEDF5E0FC83EB832EE5622E2AE036
:10131000722E8F01312C212CF0E8F9838FE38A8320
:10132000F5012591359145915491F801C590D590DD
:10133000E590F49060E070E283E795E40E949A1AE9
:10134000A70196010E949A1A232D322D49815A81B4
:101350000E94E51B1816C4F0F501259135914591C1
:101360005491F801C590D590E590F49060E070E25A
:1013700083E795E40E949A1AA70196010E949A1A9F
:10138000362E272E89839A830C5F1F4F60167106B5
:1013900009F0C6CFF401ED5DFE4F408051806280C0
:1013A000738084E7882E82E0982E04EB14E0F40129
:1013B000619171914F01F501C590D590E590F49040
:1013C000072E000C880B990B0E94351BA30192017C
:1013D0000E942E1C9B01AC01F80160817181828109
:1013E00093810E94311AA70196010E949A1AEB81FB
:1013F000FC8125913591459154910E949A1A6B0177
:101400007C012FE530E749E850E30E94961A87FFF8
:1014100003C0C12CD12C7601232D322D49815A8154
:10142000C701B6010E94E51B181624F4C32CD22C68
:10143000E980FA80F801C192D192E192F1928F0194
:101440008B819C8104969C838B8394EB891694E01A
:10145000990609F0ACCF0F900F900F900F90DF918D
:10146000CF911F910F91FF90EF90DF90CF90BF90A1
:10147000AF909F908F907F906F905F904F903F9034
:101480002F90089501978930910598F4FC01EE0F93
:10149000FF1F8E0F9F1FFC01E55BFE4F8081918136
:1014A000A2819C014A2F042E000C550BCA01B901E0
:1014B000089564E370E080E090E008956F927F9279
:1014C0008F929F92AF92BF92CF92DF92EF92FF9254
:1014D0000F931F93CF93DF938091700290917102CD
:1014E000892B09F43DC0C0E0D0E004E319E0CE014F
:1014F000C9DF60931F0170932001809321019093B5
:101500002201D0936F02C0936E02FFDD84EB882E20
:1015100084E0982E612C712CA12CB12CF401C19087
:10152000D190E190F1904F019301A501C701B6015F
:101530000E94961A87FD02C0360157010815190549
:1015400069F720E030E04FEA54E4B301C5010E949E
:10155000E51B87FF21C02196CA30D10541F61CC08A
:1015600080916E0290916F028DDF60931F017093E6
:1015700020018093210190932201DF91CF911F914F
:101580000F91FF90EF90DF90CF90BF90AF909F9022
:101590008F907F906F90B9CDDF91CF911F910F9178
:1015A000FF90EF90DF90CF90BF90AF909F908F9083
:1015B0007F906F9008952F923F924F925F926F921B
:1015C0007F928F929F92AF92BF92CF92DF92EF92D3
:1015D000FF920F931F93CF93DF9383E2C82E81E096
:1015E000D82E1601E12CF12CC7014CDF60931F01AE
:1015F00070932001809321019093220186DDCCEA33
:10160000D4E000E010E00115110509F06BC08090F6
:10161000B4049090B504A090B604B090B70420E054
:1016200030E040E450ECC501B4010E942E1C2B01B7
:101630003C0120E030E040E451E4C501B4010E94E7
:101640002E1C9B01AC01C301B2010E94321A2B0176
:101650003C0120E030E048E851E4C501B4010E94BB
:101660002E1C9B01AC01C301B2010E94321A4B0136
:101670005C0120E030E040E451E46091B8047091F6
:10168000B9048091BA049091BB040E942E1C9B0166
:10169000AC01C501B4010E94321A4B015C0120E08B
:1016A00030E040E450E46091BC047091BD0480914E
:1016B000BE049091BF040E942E1C9B01AC01C50189
:1016C000B4010E94311A20E030E04CE052E40E9464
:1016D0009A1A6093B4047093B5048093B6049093FF
:1016E000B704B7C10130110509F071C08090B4048E
:1016F0009090B504A090B604B090B70420E030E01C
:1017000040E450ECC501B4010E942E1C2B013C01A9
:1017100020E030E040E451E4C501B4010E942E1CF9
:101720009B01AC01C301B2010E94321A4B015C0162
:1017300020E030E048E851E46091B8047091B904C9
:101740008091BA049091BB040E942E1C9B01AC01B5
:10175000C501B4010E94321A4B015C0120E030E067
:1017600040E451E46091BC047091BD048091BE04DA
:101770009091BF040E942E1C9B01AC01C501B401D5
:101780000E94321A4B015C0120E030E040E450E45A
:101790006091C0047091C1048091C2049091C3040F
:1017A0000E942E1C9B01AC01C501B4010E94311A9C
:1017B00020E030E04CE052E40E949A1A6093B804B2
:1017C0007093B9048093BA049093BB0442C10E3164
:1017D00081E0180709F071C08090300990903109BC
:1017E000A0903209B090330920E030E040E450ECA2
:1017F000609124097091250980912609909127090B
:101800000E942E1C2B013C0120E030E040E451E41A
:10181000609128097091290980912A0990912B09DA
:101820000E942E1C9B01AC01C301B2010E94321A1E
:101830002B013C0120E030E048E851E460912C09A4
:1018400070912D0980912E0990912F090E942E1CD4
:101850009B01AC01C301B2010E94321A2B013C0171
:1018600020E030E040E451E4C501B4010E942E1CA8
:101870009B01AC01C301B2010E94321A2B013C0151
:1018800020E030E040E450E4C501B4010E942E1C89
:101890009B01AC01C301B2010E94311A20E030E08B
:1018A0004CE052E40E949A1A60932C0970932D091F
:1018B00080932E0990932F09CCC00F3191E0190726
:1018C00009F06BC08090300990903109A0903209E6
:1018D000B090330920E030E040E450EC60912809FA
:1018E0007091290980912A0990912B090E942E1C40
:1018F0002B013C0120E030E040E451E460912C09F0
:1019000070912D0980912E0990912F090E942E1C13
:101910009B01AC01C301B2010E94321A2B013C01B0
:1019200020E030E048E851E4C501B4010E942E1CDB
:101930009B01AC01C301B2010E94321A2B013C0190
:1019400020E030E040E451E4C501B4010E942E1CC7
:101950009B01AC01C301B2010E94321A2B013C0170
:1019600020E030E040E450E4C501B4010E942E1CA8
:101970009B01AC01C301B2010E94311A20E030E0AA
:101980004CE052E40E949A1A609330097093310936
:1019900080933209909333095CC020E030E040E44A
:1019A00050EC688179818A819B810E942E1C4B01B9
:1019B0005C0120E030E040E451E46C817D818E8167
:1019C0009F810E942E1C9B01AC01C501B4010E94A5
:1019D000321A4B015C0120E030E048E851E46885B0
:1019E00079858A859B850E942E1C9B01AC01C501CF
:1019F000B4010E94321A4B015C0120E030E040E467
:101A000051E46C857D858E859F850E942E1C9B01EF
:101A1000AC01C501B4010E94321A4B015C0120E007
:101A200030E040E450E4688979898A899B890E9482
:101A30002E1C9B01AC01C501B4010E94311A20E0AB
:101A400030E04CE052E40E949A1A688779878A87CE
:101A50009B870F5F1F4F24960032E1E01E0709F0BD
:101A6000D2CDF1011082118212821382C4EBD4E034
:101A700004E712E0812C912C5401F3E0EF16F104FD
:101A800049F4688179818A819B810E94021BF80157
:101A9000718360832991399149915991C501B401AC
:101AA0000E94321A4B015C010E5F1F4F84E399E0E4
:101AB0008C179D0711F7F10181929192A192B19239
:101AC0001F01FFEFEF1AFF0A8AE0E816F10409F0A0
:101AD0008BCD80902F0190903001A0903101B0907B
:101AE0003201CBE4D1E0A5019401F601608171815E
:101AF000828193810E949A1AF60161937193819376
:101B000091936F01CE17DF0771F751DA60936A0284
:101B100070936B0280936C0290936D02DF91CF9172
:101B20001F910F91FF90EF90DF90CF90BF90AF90FB
:101B30009F908F907F906F905F904F903F902F90ED
:101B4000089580E091E00E942E19181619069CF461
:101B50002091340930913509F901EA5CF64F808310
:101B60002F5F3F4F30933509209334090A9719F4BA
:101B700081E08093560908952F923F924F925F9291
:101B80006F927F928F929F92AF92BF92CF92DF928D
:101B9000EF92FF920F931F93CF93DF93CDB7DEB7F2
:101BA000CC58D1090FB6F894DEBF0FBECDBF8091DF
:101BB0005609882309F45AC51092560945E050E0A9
:101BC00066E671E086E399E00E943525892B09F0ED
:101BD00060C074DC74DB64EBE62E64E0F62E00E09B
:101BE00010E078E0672E72E0772EE4E18E2EE4E0DC
:101BF0009E2EF0E25F2ECE0101966C01ACE6AA2E7D
:101C0000A1E0BA2EF3018591949101970817190765
:101C100080F1F401859194918017910750F1C801EA
:101C2000D9D8D601E52D1D92EA95E9F7D70113968B
:101C30002C9113972F9312962C9112972F93119604
:101C40002C9111972F932C912F939F938F937F9388
:101C50006F93BF92AF92DF92CF920E94C825B601D8
:101C600080E091E00E948F180FB6F894DEBF0FBE9F
:101C7000CDBF0F5F1F4FF4E0EF0EF11C003221E0EB
:101C8000120709F0BFCF6AE080E091E00E94AF1830
:101C9000E2C449E050E063E771E086E399E00E9426
:101CA0003525892B09F0C5C209DC09DB84E99AE0F6
:101CB000E9969FAF8EAFE997A8E0B2E0ED96BFAF8F
:101CC000AEAFED97EB961FAE1EAEEB97FE013196D1
:101CD000A796FFAFEEAFA797E996EEADFFADE997F8
:101CE00065917491ED96EEADFFADED972590349032
:101CF000EB968EAD9FADEB9702974CF46091B404D8
:101D00007091B5040091B604F090B70443C280E02E
:101D100090E00E94331B6B017C018101025011098C
:101D2000C80158D8AB966CAF7DAF8EAF9FAFAB9765
:101D3000D1011197CB57DF4FB983A883C558D04045
:101D4000CD0148D8AF966CAF7DAF8EAF9FAFAF9748
:101D5000C10140D8E3966CAF7DAF8EAF9FAFE397E4
:101D6000F1013196C957DF4FF983E883C758D04056
:101D7000CF0130D8E7966CAF7DAF8EAF9FAFE797BE
:101D8000AF962CAD3DAD4EAD5FADAF97C701B6017F
:101D90000E94311A4B015C01E3962CAD3DAD4EAD76
:101DA0005FADE397C701B6010E94311AC358DF4FF8
:101DB000688379838A839B83CD57D040E7962CAD87
:101DC0003DAD4EAD5FADE797C701B6010E94311A38
:101DD000CF57DF4F688379838A839B83C158D04074
:101DE000AB962CAD3DAD4EAD5FADAB97C701B60127
:101DF0000E94311A6B017C019B01AC01C501B40149
:101E00000E942E1CC757DF4F688379838A839B8388
:101E1000C958D040C358DF4F288139814A815B813E
:101E2000CD57D040C501B4010E942E1CCF57DF4FC3
:101E3000288139814A815B81C158D0400E942E1C83
:101E40004B015C01AF962CAD3DAD4EAD5FADAF9794
:101E5000AB966CAD7DAD8EAD9FADAB970E94311A48
:101E60002B013C01E3962CAD3DAD4EAD5FADE3974C
:101E7000AB966CAD7DAD8EAD9FADAB970E94311A28
:101E80009B01AC01C301B2010E942E1C2B013C013D
:101E9000E7962CAD3DAD4EAD5FADE797AB966CAD23
:101EA0007DAD8EAD9FADAB970E94311A9B01AC0109
:101EB000C301B2010E942E1C9B01AC01C501B401FB
:101EC0000E949A1A000F111F000F111FF801EC5405
:101ED000FB4F20813181428153810E942E1C4B0196
:101EE0005C01A7019601C358DF4F688179818A811F
:101EF0009B81CD57D0400E942E1CCF57DF4F2881A9
:101F000039814A815B81C158D0400E942E1C6B01EF
:101F10007C01AB962CAD3DAD4EAD5FADAB97AF96B2
:101F20006CAD7DAD8EAD9FADAF970E94311A2B0188
:101F30003C01E3962CAD3DAD4EAD5FADE397AF9662
:101F40006CAD7DAD8EAD9FADAF970E94311A9B01F8
:101F5000AC01C301B2010E942E1C2B013C01E7968B
:101F60002CAD3DAD4EAD5FADE797AF966CAD7DADA1
:101F70008EAD9FADAF970E94311A9B01AC01C3019A
:101F8000B2010E942E1C9B01AC01C701B6010E9448
:101F90009A1ACB57DF4FE881F981C558D040EE0F30
:101FA000FF1FEE0FFF1FEC54FB4F20813181428158
:101FB00053810E942E1C9B01AC01C501B4010E94FB
:101FC000321A6B017C01C757DF4F288139814A8162
:101FD0005B81C958D040CF57DF4F688179818A81B2
:101FE0009B81C158D0400E942E1C4B015C01AB96D6
:101FF0002CAD3DAD4EAD5FADAB97E3966CAD7DAD19
:102000008EAD9FADE3970E94311A2B013C01AF9634
:102010002CAD3DAD4EAD5FADAF97E3966CAD7DADF4
:102020008EAD9FADE3970E94311A9B01AC01C301B5
:10203000B2010E942E1C2B013C01E7962CAD3DAD58
:102040004EAD5FADE797E3966CAD7DAD8EAD9FADC8
:10205000E3970E94311A9B01AC01C301B2010E94B7
:102060002E1C9B01AC01C501B4010E949A1AF1011A
:10207000EE0FFF1FEE0FFF1FEC54FB4F208131814D
:10208000428153810E942E1C9B01AC01C701B60105
:102090000E94321A6B017C01C757DF4F28813981BA
:1020A0004A815B81C958D040C358DF4F688179812C
:1020B0008A819B81CD57D0400E942E1C4B015C0130
:1020C000AB962CAD3DAD4EAD5FADAB97E7966CAD2D
:1020D0007DAD8EAD9FADE7970E94311A2B013C017B
:1020E000AF962CAD3DAD4EAD5FADAF97E7966CAD05
:1020F0007DAD8EAD9FADE7970E94311A9B01AC017B
:10210000C301B2010E942E1C2B013C01E3962CADB1
:102110003DAD4EAD5FADE397E7966CAD7DAD8EAD59
:102120009FADE7970E94311A9B01AC01C301B20138
:102130000E942E1C9B01AC01C501B4010E949A1A99
:10214000C957DF4FE881F981C758D040EE0FFF1F14
:10215000EE0FFF1FEC54FB4F2081318142815381F0
:102160000E942E1C9B01AC01C701B6010E94321ACD
:10217000162FE72E082FF92E20E030E0A9010E944B
:10218000961A87FF05C060E070E000E0F12C02C005
:10219000612F7E2DE996EEADFFADE9978591949183
:1021A000A796AEADBFADA797E0E21D92EA95E9F71D
:1021B000FF920F937F936F939F938F938CE791E0A0
:1021C0009F938F93E1E0F0E0EC0FFD1FFF93EF93FF
:1021D0000E94C825BE016F5F7F4F80E091E09FD7CE
:1021E000EB968EAD9FADEB970196EB969FAF8EAFC2
:1021F000EB97E996AEADBFADE9971296E996BFAF02
:10220000AEAFE997ED96EEADFFADED973296ED9658
:10221000FFAFEEAFED970FB6F894DEBF0FBECDBFA8
:10222000EB96AEADBFADEB97AB3EB14009F054CDF0
:102230002ACD43E050E063E871E086E399E00E9434
:102240003525892B81F53AD904EB14E080E1B82ECD
:10225000CE0101967C0197E8C92E91E0D92ED701D5
:10226000EB2D1D92EA95E9F7D8016D917D918D9145
:102270009D918D010E94021B7F936F93DF92CF92FD
:10228000FF92EF920E94C825B70180E091E047D706
:102290000F900F900F900F900F900F90B9E00433B4
:1022A0001B07E9F6F0CC44E050E06BE871E086E310
:1022B00099E00E943525892B11F47DD9C4C146E0EF
:1022C00050E065E971E086E399E00E943525892BAD
:1022D00089F48E010F5F1F4F80E2F80111928A95F9
:1022E000E9F7EEE8FAE0859194919F938F938CE95A
:1022F00091E035C045E050E066EA71E086E399E0A0
:102300000E943525892B89F48E010F5F1F4F80E2D3
:10231000D8011D928A95E9F7E4E8FAE08591949155
:102320009F938F938CEA91E01AC043E050E065EBF5
:1023300071E086E399E00E943525892B09F58E012D
:102340000F5F1F4F80E2F80111928A95E9F7E6E7E7
:10235000FAE0859194919F938F9389EB91E09F93FD
:102360008F931F930F930E94C825B80180E091E0DE
:10237000D6D60F900F900F900F900F900F906BC1CB
:1023800043E050E060EC71E086E399E00E9435257F
:10239000892B09F04EC0CE0101961C0184E6D101C3
:1023A0001D928A95E9F7E2E7FAE0059115912591EA
:1023B0003491EEE6FAE04590559065907490EAE627
:1023C000FAE085909590A590B490E6E6FAE0C59085
:1023D000D590E590F490E2E6FAE04591559165914B
:1023E0007491EEE5FAE085919591A591B4913F93B2
:1023F0002F931F930F937F926F925F924F92BF9292
:10240000AF929F928F92FF92EF92DF92CF927F9343
:102410006F935F934F93BF93AF939F938F9385EC8D
:1024200091E09F938F933F922F920E94C825B10114
:1024300036C043E050E06DED71E086E399E00E9424
:102440003525892BA9F58E010F5F1F4F80E4D80138
:102450001D928A95E9F7809172029091730200971C
:1024600021F0019721F085E403C082E501C087E5F2
:1024700090911E019F9390911D019F9390911C013B
:102480009F9390911B019F931F928F9381EE91E0F8
:102490009F938F931F930F930E94C825B80180E0EC
:1024A00091E03DD60FB6F894DEBF0FBECDBFD3C0CE
:1024B00044E050E06DEE71E086E399E00E9435253E
:1024C000892B09F0C3C048E050E062EF71E086E379
:1024D00099E00E943525892B39F481E090E09093B2
:1024E000710280937002AFC049E050E06BEF71E081
:1024F00086E399E00E943525892B49F410927102F8
:102500001092700210926F0210926E029CC049E00D
:1025100050E065E072E086E399E00E943525892B62
:1025200039F4109271021092700281E090E087C03D
:1025300049E050E06FE072E086E399E00E943525C3
:10254000892B39F4109271021092700282E090E0AF
:1025500076C047E050E069E172E086E399E00E94CE
:102560003525892B39F4109271021092700283E0A4
:1025700090E065C047E050E061E272E086E399E0F8
:102580000E943525892B39F4109271021092700245
:1025900084E090E054C047E050E069E272E086E3F6
:1025A00099E00E943525892B39F41092710210921E
:1025B000700285E090E043C048E050E061E372E0E3
:1025C00086E399E00E943525892B39F41092710237
:1025D0001092700286E090E032C048E050E06AE37A
:1025E00072E086E399E00E943525892B39F4109238
:1025F00071021092700287E090E021C048E050E044
:1026000063E472E086E399E00E943525892B39F472
:10261000109271021092700288E090E010C049E0C0
:1026200050E06CE472E086E399E00E943525892B46
:1026300051F4109271021092700289E090E0909330
:102640006F0280936E0260E971E002C066E572E09D
:1026500080E091E064D580E2E6E3F9E0DF011D92DD
:102660008A95E9F71092350910923409C457DF4F63
:102670000FB6F894DEBF0FBECDBFDF91CF911F9193
:102680000F91FF90EF90DF90CF90BF90AF909F9011
:102690008F907F906F905F904F903F902F90089514
:1026A0000E9444096CE572E080E091E015D67894D0
:1026B0000E9485080E94D7070E94D70760931B01DC
:1026C00070931C0180931D0190931E010E940909C3
:1026D00090937302809372024FDA33DA80E091E0D4
:1026E000A7D5DED4E9CF84B1866084B980E58CBDFE
:1026F0008DB581608DBD08958EBD00000DB407FEBF
:10270000FDCF8EB50895292F33272230310559F09A
:102710002330310569F021303105E9F482E190E0A0
:1027200028E33DE01CC08EE390E02AEF3CE017C0B8
:1027300099278130910549F028F0029761F4E0ED86
:10274000FCE005C0E6EFFCE002C0E6EEFCE08491B0
:1027500090E09F0104C080E090E020E030E0FA01CA
:10276000318320830895CF92DF92EF92FF920F93EF
:102770001F93CF93DF93EC018B017A018DD18111EF
:1027800032C0E114F10439F0F70180819181081B16
:10279000190BC80FD91FC12CD12C0115110511F12E
:1027A0008091E80085FD15C08091E8008E778093C8
:1027B000E800E114F10449F0F70180819181C80E2D
:1027C000D91ED182C08285E00EC066D1882329F34C
:1027D0000AC089918093F10001501109FFEFCF1ACF
:1027E000DF0ADBCF80E0DF91CF911F910F91FF9047
:1027F000EF90DF90CF9008952091620930916309A6
:102800002617370748F06115710539F42091E80063
:102810002E772093E80001C0B901FC0120E061158A
:10282000710579F180915B098823F1F18530F1F12F
:102830008091E80083FD3CC08091E80082FD2EC0BD
:102840008091E80080FFEBCF2091F3008091F200AF
:1028500090E0922B6115710551F08830910538F4A4
:1028600021912093F100615071090196F3CF21E08D
:10287000089709F020E08091E8008E778093E800C7
:10288000CECF2111CFCF0AC080915B09882361F0A0
:10289000853061F08091E80083FD0AC08091E800F6
:1028A00082FFF2CF80E0089582E0089583E00895EA
:1028B00081E0089520916209309163092617370756
:1028C00048F06115710539F42091E8002E772093C6
:1028D000E80001C0B901FC0120E06115710591F12A
:1028E00080915B09882309F440C0853009F43FC01A
:1028F0008091E80083FD3DC08091E80082FD2FC0FB
:102900008091E80080FFE9CF2091F3008091F200F0
:1029100090E0922B6115710559F08830910540F4D3
:1029200024912093F1003196615071090196F2CF04
:1029300021E0089709F020E08091E8008E778093ED
:10294000E800CBCF2111CCCF0AC080915B0988234E
:1029500061F0853061F08091E80083FD0AC08091CC
:10296000E80082FFF2CF80E0089582E0089583E0DE
:10297000089581E00895982F973068F59093E900C5
:10298000981739F07091EC002091ED005091F00013
:1029900003C0242F762F50E021FD02C09F5FECCFB3
:1029A0003091EB003E7F3093EB003091ED003D7FA6
:1029B0003093ED003091EB0031603093EB00709379
:1029C000EC002093ED005093F0002091EE0027FDE5
:1029D000E5CF80E008958F708093E90081E008954D
:1029E0000F931F93CF93DF93062FEC0110E0101786
:1029F00071F16881611103C01F5F2596F8CF2C81AA
:102A0000A981BA819B81862F8F70873010F080E07A
:102A10001FC0223010F442E001C046E0E8E0F0E0E0
:102A200020E0EA17FB0720F42F5FEE0FFF1FF9CF1E
:102A30002295207F422B50E4959F90011124661F20
:102A40006627661F622B97DF8111D6CFE0CF81E02A
:102A5000DF91CF911F910F91089580915C0987FFBD
:102A600011C08091E80082FD05C080915B09811151
:102A7000F8CF11C08091E8008B770BC080915B0983
:102A8000882349F08091E80080FFF8CF8091E8002A
:102A90008E778093E80008952091E4003091E5005E
:102AA00095E64091EC00842F817040FF23C0809117
:102AB000E80080FD1DC080915B09882399F0853076
:102AC00099F08091EB0085FD11C04091E400509198
:102AD000E5002417350729F3915011F09A01E1CF51
:102AE00084E0089582E0089583E0089581E00895E8
:102AF00080E008954091E80042FFDDCF08950F93F4
:102B00001F93CF93DF934BD052D0C8EDD0E0888194
:102B10008F77888388818068888388818F7D888388
:102B200019BC10925B091092570910925909109222
:102B3000580900EE10E0F80180818B7F8083888146
:102B40008160888342E060E080E015DFE1EEF0E044
:102B500080818E7F8083E2EEF0E0808181608083DF
:102B6000808188608083F80180818E7F8083888166
:102B700080618883DF91CF911F910F910895E8EDD7
:102B8000F0E080818F7E8083E7EDF0E080818160DE
:102B9000808384E082BF81E080935A09B0CFE8ED62
:102BA000F0E080818E7F80831092E2000895109281
:102BB000DA001092E10008951F920F920FB60F9263
:102BC00011242F933F934F935F936F937F938F9332
:102BD0009F93AF93BF93EF93FF938091E10082FFA8
:102BE0000AC08091E20082FF06C08091E1008B7FE5
:102BF0008093E10054D28091DA0080FF1FC0809161
:102C0000D80080FF1BC08091DA008E7F8093DA00AD
:102C10008091D90080FF0DC080E189BD82E189BD2E
:102C200009B400FEFDCF81E080935B090E94C607D6
:102C300005C019BC10925B090E94C7078091E10092
:102C400080FF18C08091E20080FF14C08091E200F4
:102C50008E7F8093E2008091E20080618093E200A9
:102C60008091D80080628093D80019BC85E0809361
:102C70005B0915D28091E10084FF2FC08091E200B2
:102C800084FF2BC080E189BD82E189BD09B400FECB
:102C9000FDCF8091D8008F7D8093D8008091E10096
:102CA0008F7E8093E1008091E2008F7E8093E2002E
:102CB0008091E20081608093E2008091570988232F
:102CC00011F084E007C08091E30087FD02C081E03D
:102CD00001C083E080935B09E2D18091E10083FF32
:102CE00027C08091E20083FF23C08091E100877FAD
:102CF0008093E10082E080935B09109257098091F4
:102D0000E1008E7F8093E1008091E2008E7F8093CE
:102D1000E2008091E20080618093E20042E060E0A6
:102D200080E029DE8091F00088608093F000B7D1C8
:102D3000FF91EF91BF91AF919F918F917F916F9193
:102D40005F914F913F912F910F900FBE0F901F9069
:102D500018951F920F920FB60F9211242F933F9345
:102D60004F935F936F937F938F939F93AF93BF9393
:102D7000CF93DF93EF93FF93C091E900CF708091E1
:102D8000EC00D82FD17080FDD0E81092E90080913E
:102D9000F000877F8093F00078941ED01092E900B5
:102DA0008091F00088608093F000CD2BCF70C093AD
:102DB000E900FF91EF91DF91CF91BF91AF919F918A
:102DC0008F917F916F915F914F913F912F910F90D4
:102DD0000FBE0F901F9018951F93CF93DF93CDB721
:102DE000DEB7AA970FB6F894DEBF0FBECDBFECE5F5
:102DF000F9E08091F100819329E0E436F207C9F708
:102E00000E94CC078091E80083FF31C180915C096A
:102E100090915D09953009F483C030F49130A9F1A7
:102E200068F0933091F123C1983009F4EFC09930E4
:102E300009F4FBC0963009F01AC194C0803821F023
:102E4000823809F014C108C080915809909159093D
:102E5000992389F082600FC0809160098F7087305C
:102E600008F005C18093E9008091EB0085FB88277D
:102E700080F91092E9009091E800977F9093E80024
:102E80008093F1001092F100CCC0282F2D7F09F023
:102E9000EEC0882319F0823061F0E9C080915E09AC
:102EA000813009F0E4C0933009F080E08093590943
:102EB0002EC080915E0981112AC0809160098F70B7
:102EC0002FEF280F263008F0D2C08093E900209120
:102ED000EB0020FF1CC0933021F48091EB00806256
:102EE00014C09091EB0090619093EB0021E030E0F2
:102EF000A90102C0440F551F8A95E2F74093EA00EA
:102F00001092EA008091EB0088608093EB001092B1
:102F1000E9008091E800877F8093E8009EDDA7C0EC
:102F20008111A5C010915E091F778091E300807820
:102F3000812B8093E3008091E800877F8093E800F5
:102F40008CDD8091E80080FFFCCF8091E3008068F9
:102F50008093E300111102C082E001C083E08093FE
:102F60005B0985C08058823008F081C080915E097D
:102F700090915F098C3D53E0950771F583E08A835A
:102F80008AE289834FB7F894DE01139620E03EE091
:102F900051E2E32FF0E050935700E49120FF03C08B
:102FA000E295EF703F5FEF708E2F90E0EA3010F007
:102FB000C79601C0C0968D939D932F5F243149F72A
:102FC0004FBF8091E800877F8093E8006AE270E05D
:102FD000CE01019611DC14C0609160097091610905
:102FE000AE014F5F5F4F8FDBBC01892B09F43FC0FF
:102FF0009091E800977F9093E80089819A815ADC4C
:103000008091E8008B778093E80031C0803879F5B3
:103010008091E800877F8093E80080915709809332
:10302000F1008091E8008E7777CF811120C08091E8
:103030005E0990915F0999270297CCF48091E8008E
:10304000877F8093E80080915E098093570905DDB2
:1030500080915709811106C08091E30087FD02C06D
:1030600081E001C084E080935B090E94C8078091E1
:10307000E80083FF0AC08091E800877F8093E80022
:103080008091EB0080628093EB00AA960FB6F894D3
:10309000DEBF0FBECDBFDF91CF911F910895089580
:1030A000CF9380915B09882399F0C091E900CF709C
:1030B0009091EC00892F817090FD80E8C82B1092D0
:1030C000E9008091E80083FD87DECF70C093E900BE
:1030D000CF910895CF93DF93EC01FC0170968BE0C4
:1030E000DF011D928A95E9F782E08C83898783E06E
:1030F0008E8761E0CE01019673DC882361F061E088
:10310000CE0106966DDC882331F061E0CE010B968E
:10311000DF91CF9165CC80E0DF91CF910895DB0105
:1031200020915B092430C9F4FC01448955896689E2
:103130007789452B462B472B81F081818F708093B7
:10314000E900FD0101900020E9F73197BF016A1BFA
:103150007B0B40E050E0CD0106CB82E008950F9359
:103160001F93CF9320915B092430F9F4FC0104896B
:10317000158926893789012B022B032BB1F0C62F25
:1031800081818F708093E9008091E80085FF04C001
:10319000C093F10080E00AC08091E8008E778093B0
:1031A000E8007ADC8823A1F301C082E0CF911F916F
:1031B0000F910895FB01682F84859585D0DF21E06C
:1031C00030E0811102C020E030E088279927821B7F
:1031D000930B089520915B09243041F5FC0144894B
:1031E000558966897789452B462B472BF9F08181D4
:1031F0008F708093E9002091F3008091F20090E0BD
:10320000922B892B89F09091E8008091E8008E77CD
:103210008093E80095FD08C03FDC811108C08091D3
:10322000E8008E778093E80080E0089582E00895BA
:1032300020915B09243089F4FC0144895589668911
:103240007789452B462B472B41F021812F70209306
:10325000E9002091E80020FDBDCF089520915B0991
:10326000243019F08FEF9FEF0895FC0144895589B0
:1032700066897789452B462B472BA1F386818F7072
:103280008093E9008091E80082FFECCF2091F30069
:103290008091F20090E0922B892B21F02091F10097
:1032A00030E002C02FEF3FEF4091F3008091F20039
:1032B00090E0942B892B29F48091E8008B77809300
:1032C000E800C9010895FC0184859585C7DF97FF53
:1032D00002C08EEF9FEF0895FB012EE0DB011D92EF
:1032E0002A95E9F723E023832AED38E13187208707
:1032F00023E639E1338722879587848708950895E7
:10330000CF93DF93EC018091E80083FFA7C0888111
:1033100090E020916009309161092817390709F080
:103320009DC080915D09813261F020F4803209F402
:103330003EC094C0823209F46CC0833209F47EC06E
:103340008DC080915C09813A09F088C08091E800C5
:10335000877F8093E8008091E80080FFFCCF8C8914
:103360009D89AE89BF898093F100492F5A2F6B2F19
:1033700077274093F100AD01662777274093F1004E
:103380008B2F9927AA27BB278093F100888D8093E4
:10339000F100898D8093F1008A8D8093F1008091F6
:1033A000E8008E778093E800DF91CF9156CB809133
:1033B0005C09813209F052C08091E800877F8093D8
:1033C000E8008091E80082FD05C080915B098111D1
:1033D000F8CF44C03091F1002091F1009091F100BC
:1033E0008091F1003C8B2D8B9E8B8F8B8091F10017
:1033F000888F8091F100898F8091F1008A8F809170
:10340000E8008B778093E80028DBCE01DF91CF9135
:1034100076CF80915C09813209F58091E800877F41
:103420008093E8001ADB80915E0990915F09998B87
:10343000888BCE01DF91CF910C94D00780915C09ED
:10344000813261F48091E800877F8093E80005DB9A
:1034500060915E09CE01DF91CF9151CFDF91CF9185
:1034600008955058BB27AA270ED075C166D130F0F9
:103470006BD120F031F49F3F11F41EF45BC10EF4C8
:10348000E095E7FB51C1E92F77D180F3BA176207C6
:1034900073078407950718F071F49EF58FC10EF439
:1034A000E0950B2EBA2FA02D0B01B90190010C0154
:1034B000CA01A0011124FF27591B99F0593F50F46C
:1034C000503E68F11A16F040A22F232F342F4427C4
:1034D000585FF3CF469537952795A795F0405395BC
:1034E000C9F77EF41F16BA0B620B730B840BBAF08C
:1034F0009150A1F0FF0FBB1F661F771F881FC2F7F7
:103500000EC0BA0F621F731F841F48F4879577950A
:103510006795B795F7959E3F08F0B3CF9395880FC1
:1035200008F09927EE0F979587950895D9D008F45C
:1035300081E008950CD00FC107D140F0FED030F0EB
:1035400021F45F3F19F0F0C0511139C1F3C014D11B
:1035500098F39923C9F35523B1F3951B550BBB275A
:10356000AA2762177307840738F09F5F5F4F220F07
:10357000331F441FAA1FA9F333D00E2E3AF0E0E800
:1035800030D091505040E695001CCAF729D0FE2F4C
:1035900027D0660F771F881FBB1F261737074807DE
:1035A000AB07B0E809F0BB0B802DBF01FF27935894
:1035B0005F4F2AF09E3F510568F0B6C000C15F3FE3
:1035C000ECF3983EDCF3869577956795B795F7957C
:1035D0009F5FC9F7880F911D9695879597F9089574
:1035E000E1E0660F771F881FBB1F62177307840710
:1035F000BA0720F0621B730B840BBA0BEE1F88F71F
:10360000E095089504D06894B111D9C00895BCD054
:1036100088F09F5790F0B92F9927B751A0F0D1F0BB
:10362000660F771F881F991F1AF0BA95C9F712C045
:10363000B13081F0C3D0B1E00895C0C0672F782FBA
:103640008827B85F39F0B93FCCF3869577956795B1
:10365000B395D9F73EF490958095709561957F4F1D
:103660008F4F9F4F0895E89409C097FB3EF49095C3
:103670008095709561957F4F8F4F9F4F9923A9F04B
:10368000F92F96E9BB279395F695879577956795DA
:10369000B795F111F8CFFAF4BB0F11F460FF1BC01E
:1036A0006F5F7F4F8F4F9F4F16C0882311F096E9B1
:1036B00011C0772321F09EE8872F762F05C066235F
:1036C00071F096E8862F70E060E02AF09A95660F18
:1036D000771F881FDAF7880F9695879597F90895D1
:1036E000990F0008550FAA0BE0E8FEEF1616170613
:1036F000E807F907C0F012161306E407F50798F07B
:10370000621B730B840B950B39F40A2661F0232B93
:10371000242B252B21F408950A2609F4A140A6950F
:103720008FEF811D811D089597F99F6780E870E0F4
:1037300060E008959FEF80EC089500240A94161627
:10374000170618060906089500240A94121613068F
:10375000140605060895092E0394000C11F488231D
:1037600052F0BB0F40F4BF2B11F460FF04C06F5F39
:103770007F4F8F4F9F4F089557FD9058440F551F0F
:1037800059F05F3F71F04795880F97FB991F61F0E3
:103790009F3F79F087950895121613061406551F5A
:1037A000F2CF4695F1DF08C0161617061806991FC6
:1037B000F1CF86957105610508940895E894BB27BB
:1037C00066277727CB0197F908958ADF08F48FEFF2
:1037D00008950EF0A6C0AECF6894A6CFD5DFC8F38B
:1037E0009923D1F3C6F3DF93CF931F930F93FF92E7
:1037F000C92FDD2788232AF02197660F771F881F9E
:10380000DAF720E030E040E85FEB9FE3883920F012
:10381000803E30F021968F7725DEECEAF0E003C0A1
:1038200021DEE9EDF0E08BD08B01BE01EC01FB2E37
:103830006F5771097595771F880B990B16DF28E173
:1038400032E741E35FE316D0AF2D9801AE01FF9060
:103850000F911F91CF91DF9116DE7DCF0BD07BCFE3
:103860006CDF28F071DF18F0952309F05DCF62CF8F
:103870001124A5CF81DFA0F3959FD1F3950F50E0E0
:10388000551F629FF001729FBB27F00DB11D639F12
:10389000AA27F00DB11DAA1F649F6627B00DA11DB8
:1038A000661F829F2227B00DA11D621F739FB00D5E
:1038B000A11D621F839FA00D611D221F749F3327CE
:1038C000A00D611D231F849F600D211D822F762F67
:1038D0006A2F11249F5750408AF0E1F088234AF064
:1038E000EE0FFF1FBB1F661F771F881F91505040B0
:1038F000A9F79E3F510570F017CF61CF5F3FECF302
:10390000983EDCF3869577956795B795F795E7959B
:103910009F5FC1F7FE2B880F911D9695879597F9AC
:1039200008959F3F31F0915020F4879577956795E2
:10393000B795880F911D9695879597F90895DF9310
:10394000CF931F930F93FF92EF92DF927B018C0135
:10395000689405C0DA2EEF018DDFFE01E894A59191
:103960002591359145915591AEF3EF018CDDFE0126
:103970009701A801DA9479F7DF90EF90FF900F910B
:103980001F91CF91DF910895A0E1B0E0E9ECFCE157
:1039900037C77C011B016A01FC01178216828381F3
:1039A00081FF2BC39E012F5F3F4F3901F7019381A8
:1039B000F10193FD859193FF81911F01882309F403
:1039C00018C3853239F493FD859193FF81911F01CE
:1039D000853239F4B70190E00E948C2556016501CB
:1039E000E5CF10E0512C912CFFE1F915D8F08B3286
:1039F00079F038F4803279F08332A1F4F92DF06156
:103A00002EC08D3261F0803369F4292D21602DC0E4
:103A1000392D3260932E892D8460982E2AC0E92D8D
:103A2000E86015C097FC2DC020ED280F2A3088F4DF
:103A300096FE06C03AE0139F200D1124122F19C0E4
:103A40008AE0589E200D1124522EE92DE0629E2E10
:103A500010C08E3231F496FCCCC2F92DF0649F2E4A
:103A600008C08C3621F4292D2068922E02C0883699
:103A700041F4F10193FD859193FF81911F01811123
:103A8000B3CF9BEB980F933020F4992D9061805E1B
:103A900007C09BE9980F933008F059C1992D9F7E7C
:103AA00096FF16E09F73992E853619F49064992E2F
:103AB00008C0863621F4392F3068932E02C01111C8
:103AC000115097FE07C01C3350F444244394410E18
:103AD00027E00BC0183038F027E017E005C027E0DA
:103AE0009CE3492E02C0212F412C560184E0A80EF0
:103AF000B11CF6016081718182819381042DA30143
:103B0000B6D66C01F981FC87F0FF02C0F3FF06C056
:103B100091FC06C092FE06C000E205C00DE203C0A3
:103B20000BE201C000E08C858C7019F0011143C2DA
:103B300080C297FE10C04C0CFC85F4FF04C08A8143
:103B4000813309F44A94141474F528E0241578F5A7
:103B500088E0482E2CC096FC2AC0812F90E08C155E
:103B60009D059CF03CEFC3163FEFD30674F0892D02
:103B70008068982E0AC0E2E0F0E0EC0FFD1FE10F34
:103B8000F11D8081803319F411501111F4CF97FE8B
:103B90000EC044244394410E812F90E0C816D906EC
:103BA0002CF41C1904C04424439401C010E097FE77
:103BB00006C01C141D0434F4C601019605C085E03E
:103BC00090E002C081E090E001110196112331F0F4
:103BD000212F30E02F5F3F4F820F931F252D30E0C4
:103BE0008217930714F4581A01C0512C892D89703B
:103BF00041F4552031F0B70180E290E08DD75A941E
:103C0000F8CF002321F0B701802F90E085D793FCF7
:103C100008C0552031F0B70180E390E07DD75A9479
:103C2000F8CF97FE4AC04601D7FE02C0812C912CE6
:103C3000C60188199909F301E80FF91FFE87ED877E
:103C4000960124193109388B2F87012F10E0119527
:103C5000019511093FEF8316930621F4B7018EE217
:103C600090E05AD7C814D9044CF08F8598898815EC
:103C7000990524F4ED85FE85818101C080E3F1E0A2
:103C80008F1A91082D853E852F5F3F4F3E872D87E8
:103C90008016910624F0B70190E03ED7DBCFC81420
:103CA000D90441F49A81963320F4953319F43C8574
:103CB00034FF81E3B70190E048C08A81813319F075
:103CC0009C859F7E9C87B70190E026D7111105C087
:103CD00094FC16C085E690E015C0B7018EE290E036
:103CE0001BD71E5F82E001E0080FF301E80FF11D12
:103CF0008081B70190E010D7802F0113F4CFE8CF77
:103D000085E490E0B70108D7D7FC06C0C114D10400
:103D100041F4EC85E4FF05C0D194C194D1088DE253
:103D200001C08BE2B70190E0F7D680E32AE0C2162B
:103D3000D1042CF08F5FFAE0CF1AD108F7CFB7018A
:103D400090E0EAD6B701C601C096E6D649C18336EF
:103D500031F0833779F0833509F052C01FC0560126
:103D600032E0A30EB11CF6018081898301E010E0EE
:103D7000630111C05601F2E0AF0EB11CF601C08024
:103D8000D18096FE03C0612F70E002C06FEF7FEF1D
:103D9000C60179D68C01F92DFF7713C0560122E0B8
:103DA000A20EB11CF601C080D18096FE03C0612F27
:103DB00070E002C06FEF7FEFC6014CD68C01F92D89
:103DC000F0689F2EF3FD18C0852D90E008171907A5
:103DD00098F4B70180E290E09FD65A94F5CFF601AF
:103DE00097FC859197FE81916F01B70190E094D681
:103DF00051105A94015011090115110581F7F0C0B5
:103E0000843611F0893659F5560197FE09C024E031
:103E1000A20EB11CF60160817181828193810AC07A
:103E2000F2E0AF0EB11CF60160817181072E000C2B
:103E3000880B990BF92DFF769F2E97FF09C090955F
:103E40008095709561957F4F8F4F9F4FF0689F2EA3
:103E50002AE030E0A301D5D6C82EC6183EC0092DF1
:103E6000853721F40F7E2AE030E01DC0097F8F36B0
:103E700091F018F4883559F0BCC0803719F08837B4
:103E800011F0B7C0006104FF09C0046007C094FED0
:103E900008C0066006C028E030E005C020E130E040
:103EA00002C020E132E0560107FF09C084E0A80EFD
:103EB000B11CF601608171818281938108C0F2E0BA
:103EC000AF0EB11CF6016081718180E090E0A3012A
:103ED00098D6C82EC6180F77902E96FE0BC0092DC7
:103EE0000E7FC11650F494FE0AC092FC08C0092D42
:103EF0000E7E05C0DC2C092D03C0DC2C01C0D12EA8
:103F000004FF0DC0FE01EC0DF11D8081803311F422
:103F1000097E09C002FF06C0D394D39404C0802F49
:103F2000867809F0D39403FD10C000FF06C01C2D55
:103F3000D51478F4150D1D190CC0D51450F4B70123
:103F400080E290E0E9D5D394F8CFD51410F45D1851
:103F500001C0512C04FF0FC0B70180E390E0DCD515
:103F600002FF16C001FD03C088E790E002C088E5AB
:103F700090E0B7010CC0802F867851F001FF02C09D
:103F80008BE201C080E207FD8DE2B70190E0C4D56D
:103F9000C11630F4B70180E390E0BED51150F8CFE0
:103FA000CA94F301EC0DF11D8081B70190E0B4D506
:103FB000C110F6CF15C0F4E0F51550F584E0581A9D
:103FC00093FE1EC0011125C02C8523FF27C006E0EB
:103FD00011E0392D3071932EF8018491811121C0A7
:103FE000552009F4FCCCB70180E290E095D55A94B5
:103FF000F7CFF7018681978123C08FEF9FEF20C015
:10400000B70180E290E088D55A945110F9CFDACF09
:10401000512CB701802F90E07FD5D6CF0AE011E078
:10402000D8CF91108052B70190E076D50F5F1F4F27
:10403000D3CF23E0251510F483E0C1CF512CC4CF9A
:104040006096E2E1F9C320FD09C0FC0123FD05C033
:1040500022FF02C07383628351834083089544FD2D
:1040600017C046FD17C0AB01BC01DA01FB01AA0F66
:10407000BB1FEE1FFF1F1094D1F74A0F5B1F6E1F6F
:104080007F1FCB01BA01660F771F881F991F09C0D8
:1040900033E001C034E0660F771F881F991F31504D
:1040A000D1F7620F711D811D911D08950F931F930C
:1040B000CF93DF938C01C801F1D4EC0197FD06C0CA
:1040C000AED4892BC1F7B801CE0182D5CE01DF91E4
:1040D000CF911F910F910895A0E0B0E0E1E7F0E2E9
:1040E00095C37C018B016A01D22FD8D49C01332760
:1040F0002B32310521F02D32310551F4D0680150B9
:10410000110911F480E064C0C701C8D497FDFACF4B
:10411000CD2FCD7F2D2F207309F58033F9F4580171
:1041200081E0A81AB10809F440C0C701B7D497FDCF
:104130003CC09C012F7D33272835310549F4C264EA
:104140000250110991F1C701A9D497FF07C02DC0F2
:10415000D6FF02C0C26001C0C2618501812C912CD2
:10416000540120ED280F283078F0C4FF03C0B701B8
:104170002FD518C02A3040F0C6FFF9CF2F7D3FEE73
:10418000320F3630A0F727504C2FC501B40167DF3E
:104190004B015C01C2600150110951F0C7017ED48E
:1041A00097FFDFCFC1FD04C0ADCF812C912C54010E
:1041B000C7FF08C0B094A09490948094811C911C77
:1041C000A11CB11C2C2FB501A401C6013CDF81E06C
:1041D000CDB7DEB7ECE036C3A0E2B0E0E1EFF0E24D
:1041E00011C35C014B017A018E010F5F1F4F680103
:1041F00080E2F80111928A95E9F7F501538040E0D9
:1042000050E0612C90E0712CA1E0B0E0F90153FC8A
:10421000859153FE81918F01482E9F01811103C02A
:1042200080E090E094C08E3519F44115510551F1AC
:10423000672D70E0641775073CF48D3561F18D32A0
:1042400019F4992311F103C0992309F46BC0842D4B
:10425000869586958695F601E80FF11D842D877069
:104260008D0102C0000F111F8A95E2F7C8019081ED
:10427000892B8083641459F0461410F44394E7CFDB
:104280004A94E5CF7724739403C091E001C090E095
:104290004F5F5F4FBBCF992319F08E8180628E8371
:1042A000711003C07724739419C0F6019E012F5D2D
:1042B0003F4F8081809581932E173F07D1F7F2CF32
:1042C000E114F10431F0F7018083B7016F5F7F4F94
:1042D0007B0171E0871A9108712CE9F0C501DED3EA
:1042E00097FD17C0FC01FF2723E0F595E7952A9578
:1042F000E1F7EC0DFD1D208130E0AC014770552742
:1043000002C0359527954A95E2F720FDD9CFB50132
:104310005FD4711085CFE114F10411F0F701108220
:10432000C80115C0682F669566956695F601E60F7B
:10433000F11D682F67708D0102C0000F111F6A9573
:10434000E2F7B8017081672B6083682EA1CFA09639
:10435000E0E174C22F923F924F925F926F927F92F0
:104360009F92AF92BF92CF92DF92EF92FF920F9304
:104370001F93CF93DF936C018B011A018FD3EC0154
:1043800099278B32910529F08D9779F430E8932E97
:1043900001C0912C0150110911F480E0FEC0C6014A
:1043A0007DD3EC0197FF02C0F8CF912CCE013FD313
:1043B0008936910531F08E36910581F5CCE5DDE049
:1043C00002C0CFE5DDE02196FE013197B490BB201D
:1043D000B1F00150110979F0C60160D37C0197FD5D
:1043E0000AC025D39927EB2DF0E08E179F0759F3CC
:1043F000B601C701EDD3C256DD4079F603C0CF55F3
:10440000DD4029F080E090E0A0E8BFE704C080E054
:1044100090E0A0ECBFE7BC01CD01AFC0412C512C16
:104420003201E12CF12C2C2F20532A3008F5E92DF4
:10443000E260BE2E892D887092FE06C081111FC0D9
:10444000FFEFEF1AFF0A1BC0882319F081E0E81A7A
:10445000F10840E2C301B20102DE2B013C016839E0
:1044600079498949994158F0F92DF660BF2E07C066
:104470002E3F81F493FC0EC0292D2860B22E0150EE
:10448000110939F0C6010AD3EC019B2C97FFCBCF61
:1044900001C09B2C91FE81CFCE018F7D9927853461
:1044A000910509F03EC0580181E0A81AB10809F44D
:1044B00074CFC601F3D2EC0197FD6FCF99278B32F1
:1044C000910529F08D9761F4E92DE0619E2E580148
:1044D000F2E0AF1AB10809F460CFC601DFD2EC01F7
:1044E000CE01C0970A9708F058CF8501A12CB12CB6
:1044F000B501BB0C880B990B2C2F205340E2AFDD8C
:104500005B010150110931F0C601C8D2EC01C0971E
:104510000A9770F394FE03C0B194A194B108EA0C19
:10452000FB1C012B29F0D7FD03C0B601CE0150D3EF
:10453000C301B20198D8F7FE06C0F194E194F108E6
:10454000CBE7DDE002C0C3E9DDE06E0128E1C21A7D
:10455000D10800E210E0E016F10648F0FE012591D6
:104560003591459154917AD9E01AF10AF4CF249704
:1045700016950795CC16DD0671F797FE05C0DC0190
:10458000CB01B058BC01CD012114310429F0F10157
:10459000608371838283938381E0DF91CF911F9148
:1045A0000F91FF90EF90DF90CF90BF90AF909F90D2
:1045B0007F906F905F904F903F902F900895A0E074
:1045C000B0E0E4EEF2E220C15C01EB014A01FC0143
:1045D00017821682612CF5010381FE0103FD85918E
:1045E00003FF8191182FEF01882309F400C190E0A7
:1045F00016D2892B19F0C50159DDEDCF153241F4E2
:10460000FE0103FD159103FF1191EF01153271F4C5
:10461000C50144D297FDE9C0412F50E09C013327EA
:1046200024173507C1F2B501D3D2E1C01A3241F4E3
:1046300003FD159103FF1191EF017724739401C0DD
:10464000712CE12CF12C20ED210F2A3080F4F72D74
:10465000F2607F2EB70180E090E040E200DD7B0158
:10466000FE0103FD159103FF1191EF01ECCF71FEE7
:1046700004C0E114F10421F4BAC0EE24EA94FE2C43
:10468000183619F01C3661F014C0FE0103FD1591B7
:1046900003FF1191EF01183661F4872D8860782EA1
:1046A000972D9460792EFE0103FD159103FF119162
:1046B000EF01112309F49BC0612F70E08AE49DE0B3
:1046C000BED1892B09F493C070FC07C0F401C080EF
:1046D000D180C40102964C0102C0C12CD12C1E36DF
:1046E00049F4F5014681578160E070E0272DC6014D
:1046F000AADC71CF1336B1F471FC03C0EE24E3944D
:10470000F12CC501CBD197FD70C0C114D10429F0A3
:10471000F6018083C60101966C0191E0E91AF10867
:1047200081F75FC01B3551F49E01A601B701C50199
:1047300053DDEC01892B09F054C04EC0C501B6DC35
:1047400097FD53C01F36C9F140F4143691F1193664
:10475000B9F1183509F03AC028C01337A9F018F498
:10476000103719F133C0153721F11837F1F02EC089
:10477000C114D10429F0F6010083C60101966C0131
:1047800091E0E91AF10859F0C50188D18C0197FD33
:1047900006C045D1892B61F3B501C80119D2C114F6
:1047A000D104F9F0F60110821CC0F72DF0647F2EC1
:1047B00007C0872D8062782E03C0972D9061792ED7
:1047C000272DA601B701C50187DC04C0A601B701EA
:1047D000C501C0DD811105C0F5018381807329F415
:1047E00006C070FCF8CE6394F6CE662019F0862DD4
:1047F00090E002C08FEF9FEFCDB7DEB7EEE020C0B4
:104800002F923F924F925F926F927F928F929F92E0
:10481000AF92BF92CF92DF92EF92FF920F931F93CE
:10482000CF93DF93CDB7DEB7CA1BDB0B0FB6F8947F
:10483000DEBF0FBECDBF09942A88398848885F84BF
:104840006E847D848C849B84AA84B984C884DF8030
:10485000EE80FD800C811B81AA81B981CE0FD11D14
:104860000FB6F894DEBF0FBECDBFED01089528301E
:1048700008F027E03327DA01990F311D87FD916099
:1048800000966105710539F432602E5F3D9330E387
:104890002A95E1F708959F3F30F080387105610552
:1048A00009F03C5F3C5F3D93913008F08068911DBA
:1048B000DF93CF931F930F93FF92EF92192F987F5F
:1048C0009695E92F96959695E90FFF27E859FE4FA3
:1048D00099273327EE24FF24A701E70105900894C8
:1048E000079428F4360FE71EF81E491F511D660F66
:1048F000771F881F991F0694A1F70590079428F445
:10490000E70EF81E491F561FC11D770F881F991FFC
:10491000661F0694A1F70590079428F4F80E491F26
:10492000561FC71FD11D880F991F661F771F06943A
:10493000A1F70590079420F4490F561FC71FD81FF1
:10494000990F661F771F881F0694A9F78491109509
:10495000177041F0D695C79557954795F794E7940A
:104960001A95C1F7EEE0F1E0689415901591359134
:104970006591959105907FE27395E118F10A430BDB
:10498000560BC90BD009C0F7E10CF11E431F561F8F
:10499000C91FD01D7EF4703311F48A95E6CFE894D8
:1049A000015030F0080F0AF40027021708F4202FF6
:1049B0002395022F7A3328F079E37D932A95E9F73E
:1049C00010C07D932A9589F606949795679537953B
:1049D00017951794E118F10A430B560BC90BD00930
:1049E00098F023957E9173957A3308F070E37C9369
:1049F0002013B8F77E9170617D9330F0839571E359
:104A00007D9370E32A95E1F71124EF90FF900F91C9
:104A10001F91CF91DF91992787FD9095089591116E
:104A20004EC1803219F089508550D0F70895911108
:104A3000089581548A5108F4805E855A0895FC01D6
:104A40000590061621F00020D9F7C001089531978E
:104A5000CF010895FC010590615070400110D8F716
:104A6000809590958E0F9F1F0895FB01DC014150AA
:104A7000504030F08D910190801919F40020B9F761
:104A8000881B990B0895FC01615070400190011042
:104A9000D8F7809590958E0F9F1F0895CF93DF9341
:104AA000EC012B8120FF33C026FF0AC02F7B2B8314
:104AB0008E819F8101969F838E838A8190E029C099
:104AC00022FF0FC0E881F9818081082E000C990B2C
:104AD000009719F420622B831AC03196F983E8837A
:104AE0000EC0EA85FB85099597FF09C02B810196C9
:104AF00011F080E201C080E1822B8B8308C02E81FF
:104B00003F812F5F3F4F3F832E83992702C08FEF56
:104B10009FEFDF91CF9108950F931F93CF93DF9372
:104B2000FB01238121FD03C08FEF9FEF2CC022FFEB
:104B300016C046815781248135814217530744F4BA
:104B4000A081B1819D012F5F3F4F318320838C93E2
:104B5000268137812F5F3F4F3783268314C08B0117
:104B6000EC01FB010084F185E02D0995892BE1F62C
:104B7000D80116968D919C911797019617969C9344
:104B80008E931697CE01DF91CF911F910F910895CB
:104B9000AEE0B0E0EDECF5E241CE0D891E8986E095
:104BA0008C831A8309838FEF9FE79E838D83AE01E9
:104BB000475E5F4F6F89788DCE0101960E94C41CBD
:104BC000EF81F885E00FF11F10822E96E4E042CECF
:104BD000FB01238120FF12C026FD10C08F3F3FEF55
:104BE000930761F082832F7D2064238326813781A0
:104BF0002150310937832683992708958FEF9FEF3E
:104C00000895FA01AA27283051F1203181F1E89462
:104C10006F936E7F6E5F7F4F8F4F9F4FAF4FB1E0AF
:104C20003ED0B4E03CD0670F781F891F9A1FA11DAA
:104C3000680F791F8A1F911DA11D6A0F711D811DAB
:104C4000911DA11D20D009F468943F912AE0269F70
:104C500011243019305D3193DEF6CF010895462FCF
:104C60004770405D4193B3E00FD0C9F7F6CF462FB0
:104C70004F70405D4A3318F0495D31FD4052419319
:104C800002D0A9F7EACFB4E0A695979587957795D6
:104C90006795BA95C9F700976105710508959B015D
:104CA000AC010A2E06945795479537952795BA95E6
:104CB000C9F7620F731F841F951FA01D08959927C0
:084CC00088270895F894FFCF46
:104CC80000831000000104100000018208000001A8
:104CD80000000000802500000000080000C84134E2
:104CE8000000000000803F000000000000000000FD
:104CF80000000000000000000000000000000000AC
:104D08000000000000000000000000980000C4013E
:104D180000B80300A00700581300E02600F04D007B
:104D280098AF007086014D4541530A0025663A2523
:104D3800670D004D454153316E6D0A0025643A25D3
:104D4800670D005241570025640D004441524B0045
:104D580041434B0A004D4F44454C3F004D4F44459D
:104D68004C2F25730A004E414D453F004E414D459D
:104D78002F25730A00534E3F00534E2F25730A0008
:104D88005743434600574343462F25673A25673A1A
:104D980025673A25673A25673A25670A0053543F3D
:104DA8000053542F25633A252E33660A0045585080
:104DB8002F004558502F4155544F004558502F311A
:104DC80030307573004558502F32303075730045B8
:104DD80058502F3530307573004558502F316D734A
:104DE800004558502F326D73004558502F356D735C
:104DF800004558502F31306D73004558502F3230D0
:104E08006D73004558502F35306D73004558502F3D
:0C4E18003130306D73004E414B0A000039
:00000001FF
