:10000000DEC70000F9C70000F7C70000F5C7000011
:10001000F3C70000F1C70000EFC70000EDC7000004
:10002000EBC70000E9C700000C94BD160C948A17BA
:10003000E3C70000E1C70000DFC70000DDC7000024
:10004000DBC70000D9C70000D7C70000D5C7000034
:10005000D3C70000D1C70000CFC70000CDC7000044
:10006000CBC70000C9C70000C7C70000C5C7000054
:10007000C3C70000C1C70000BFC70000BDC7000064
:10008000BBC70000B9C70000B7C70000B5C7000074
:10009000B3C70000B1C70000AFC70000ADC7000084
:1000A000ABC70000A9C70000A7C7000008000000F8
:1000B000BE922449123EABAAAA2ABECDCCCC4C3E5D
:1000C00000000080BEABAAAAAA3E00000000BF004C
:1000D0000000803F0000000000084178D3BB438748
:1000E000D1133D190E3CC3BD4282AD2B3E68EC825C
:1000F00076BED98FE1A93E4C80EFFFBE01C4FF7FE1
:100100003F00000000006E616E00696E66000040F6
:100110007A10F35A00A0724E18090010A5D4E80016
:1001200000E87648170000E40B54020000CA9A3B2E
:10013000000000E1F50500008096980000004042B4
:100140000F000000A0860100000010270000000042
:10015000E803000000006400000000000A00000046
:1001600000000100000000002C76D888DC674F08F2
:1001700023DFC1DFAE59E1B1B796E5E3E453C63AF8
:10018000E651997696E8E6C28426EB898C9B62ED6F
:10019000407C6FFCEFBC9C9F40F2BAA56FA5F49029
:1001A000055A2AF75C936B6CF9676DC11BFCE0E4A0
:1001B0000D47FEF520E6B500D0ED902E03009435F6
:1001C00077050080841E080000204E0A000000C849
:1001D0000C333333330F986E12831141EF8D21149A
:1001E000893BE65516CFFEE6DB18D1844B381BF76A
:1001F0007C1D901DA4BBE424203284725E22810009
:10020000C9F124ECA1E53D27010001000100010036
:1002100002000200030003000300040004000400C5
:10022000050005000600060006000700070007009D
:10023000080008000900090009000A000A000A0075
:100240000B000B000C000C000C000D000D000D004D
:100250000E000E000F000F000F0010001000100025
:1002600011001100120012001200130013001300FD
:1002700014001400150015001500160016001600D5
:1002800017001700180018001800190019001A00AC
:100290001A001A001B001B001B001C001C001D0084
:1002A0001D001D001E001E001E001F001F0020005C
:1002B0002000200021002100220022002200230033
:1002C000230023002400240025002500250026000B
:1002D00026002700270027002800280029002900E1
:1002E00029002A002A002A002B002B002C002C00B9
:1002F0002C002D002D002E002E002E002F002F0090
:100300003000300030003100310032003200320065
:10031000330033003300340034003500350035003D
:100320003600360037003700370038003800390013
:10033000390039003A003A003B003B003B003C00EA
:100340003C003D003D003D003E003E003F003F00C0
:100350003F00400040004100410042004200420096
:10036000430043004400440044004500450046006B
:100370004600460047004700480048004800490042
:1003800049004A004A004B004B004B004C004C0017
:100390004D004D004D004E004E004F004F005000EC
:1003A00050005000510051005200520052005300C2
:1003B0005300540054005500550055005600560097
:1003C00057005700580058005800590059005A006B
:1003D0005A005B005B005B005C005C005D005D0040
:1003E0005E005E005E005F005F0060006000610014
:1003F00061006100620062006300630064006400E9
:1004000065006500650066006600670067006800BB
:1004100068006800690069006A006A006B006B0090
:100420006C006C006D006D006D006E006E006F0062
:100430006F00700070007100710071007200720036
:100440007300730074007400750075007600760008
:1004500077007700770078007800790079007A00DB
:100460007A007B007B007C007C007D007D007D00AD
:100470007E007E007F007F00800080008100810080
:100480008200820083008300840084008500850050
:100490008600860087008700880088008800890021
:1004A00089008A008A008B008B008C008C008D00F4
:1004B0008D008E008E008F008F00900090009100C4
:1004C0009100920092009300930094009400950094
:1004D0009500960096009700970098009800990064
:1004E00099009A009A009B009C009C009D009D0032
:1004F0009E009E009F009F00A000A000A100A10000
:10050000A200A200A300A300A400A400A500A500CF
:10051000A600A700A700A800A800A900A900AA009B
:10052000AA00AB00AB00AC00AD00AD00AE00AE0069
:10053000AF00AF00B000B000B100B100B200B30036
:10054000B300B400B400B500B500B600B700B70002
:10055000B800B800B900B900BA00BB00BB00BC00CD
:10056000BC00BD00BD00BE00BF00BF00C000C00099
:10057000C100C200C200C300C300C400C500C50062
:10058000C600C600C700C800C800C900C900CA002C
:10059000CB00CB00CC00CC00CD00CE00CE00CF00F5
:1005A000CF00D000D100D100D200D300D300D400BE
:1005B000D500D500D600D600D700D800D800D90085
:1005C000DA00DA00DB00DC00DC00DD00DE00DE004B
:1005D000DF00E000E000E100E200E200E3001235AD
:1005E0000B4B12350B4B12350B4B12350B4B51305D
:1005F000204B3BF7244B7094294BF9012E4B8C91E7
:10060000314B81E4344BA0AC384BDB4E3D4BE3E344
:10061000454B2D024F4BAFA0574B77505E4BD5E269
:10062000604BBCAD614B8EF4604BBB9D5E4B05F7E0
:100630005A4B4D16574B7897534B1F53514B1DAD8B
:10064000504B89F2514B3892554BD0325E4BF38070
:10065000694B9357764BD300824BEDD9884B7C7016
:100660008F4BFF71954BC1669A4B0E8E9D4B6B91D4
:100670009F4B3E75A04BD903A04B8F199E4B767DA7
:100680009B4B477C984BB081954BBED5924BEE7CF3
:10069000904B69A48E4BC49C8D4BBD808D4B994073
:1006A0008E4B10ED8F4BC327934B509C974B5E9511
:1006B0009C4B24C4A14B065FA64B2E7BAA4B7A61B0
:1006C000AE4B1F11B24B16C8B54B3552B94B236612
:1006D000BC4B7DDEBE4B4714C04B2A47C04BF3EFEB
:1006E000BF4BBE37BF4BD5C3BE4BB16DBE4B90B1F8
:1006F000BD4B8A68BC4B71D6B94B7409B64B9FE0B1
:10070000B14BD7A1AD4B1CD0A94BF5BEA64B1115D3
:10071000A44B81DCA14B352FA04B80359F4BE7AC20
:100720009E4B4E879E4BA4B89E4B625B9F4B4A27C5
:10073000A04B5BFFA04BF8C6A14B8620A24B5C38B8
:10074000A24B2C1EA24BD9D1A14BFC37A14B845DEF
:10075000A04B3D6A9F4B556E9E4B5F839D4B7DCC5E
:100760009C4B672B9C4B04A29B4B33329B4BB8E9B1
:100770009A4B89BC9A4B18A69A4BD6A39A4BBFB4F6
:100780009A4B28D69A4BC0029B4B1A379B4BD76F7C
:100790009B4B17A79B4BE8DC9B4BDF0E9C4B963A81
:1007A0009C4B7E5E9C4B18789C4BC5839C4BCF7EAC
:1007B0009C4B8C669C4B452D9C4BA7DD9B4BD1796C
:1007C0009B4BBC029B4B0A769A4BAAD0994B0F1FAE
:1007D000994B4F65984B70A7974BC501974B186A7B
:1007E000964B25C8954BD114954B1D49944B1B3CFA
:1007F000934B6D0B924B2CC2904B6D648F4B50F60C
:100800008D4B52868C4BC20A8B4BA584894BFBF4D3
:10081000874B8058864B1895844B5FD5824B4A2373
:10082000814B37117F4B0E3D7C4B31727A4B3CD163
:10083000784B1938774B5785754B9C82734B6349BE
:10084000704BEFD56C4B5C42694B44A8654BC220A2
:10085000624B7D375F4B8E7D5C4B75E8594B8E74D8
:10086000574B431E554B7DB4524B5459504B39296D
:100870004E4B322E4C4B12724A4B6D42494B15BDBA
:10088000484BDD60484B3A14484B29BE474B28463D
:10089000474B3AF4454BE26D444B83C1424BEBF876
:1008A000404BB71D3F4B3D4E3D4B68943B4B81D673
:1008B000394BA514384BF24E364B8585344BB887EF
:1008C000324BFF83304B48912E4B83BA2C4B5F0A3F
:1008D0002B4B9992294B9AD2284B313E284BB1C7CA
:1008E000274BBB61274B37FF264BB587264BCBC524
:1008F000254B43EF244B2E03244BA300234BC0E690
:10090000214B33B9204B0F891F4BB5391E4BEEC518
:100910001C4BA7281B4BE75C194BD55C174B62C0DF
:10092000144BCCF7114B2E0E0F4B690E0C4B1C03C6
:10093000094BADF6054B32FE024B791B004BECA286
:10094000FA4ADD4EF54AFE48F04A2C9FEB4A123F28
:10095000D94A123FD94A123FD94A123FD94A123FC7
:10096000D94A123FD94A123FD94A123FD94A123FB7
:10097000D94A123FD94A123FD94A123FD94A123FA7
:10098000D94A123FD94A123FD94A123FD94A123F97
:10099000D94A123FD94A123FD94A123FD94A123F87
:1009A000D94A123FD94A123FD94A123FD94A123F77
:1009B000D94A123FD94A123FD94A123FD94A123F67
:1009C000D94A123FD94A123FD94A123FD94A123F57
:1009D000D94A123FD94A123FD94A123FD94A123F47
:1009E000D94A123FD94A123FD94A123FD94A123F37
:1009F000D94A123FD94A123FD94A123FD94A123F27
:100A0000D94A123FD94A123FD94A123FD94A123F16
:100A1000D94A123FD94A123FD94A123FD94A123F06
:100A2000D94A123FD94A123FD94A123FD94A123FF6
:100A3000D94A123FD94A123FD94A123FD94A123FE6
:100A4000D94A123FD94A123FD94A123FD94A123FD6
:100A5000D94A123FD94A123FD94A123FD94A27D61A
:100A600099437CA02C40EA1586BAF38713B77D0919
:100A70006032BF7A4F2B435031363032304C3030F9
:100A80003939350055565649535350454300435064
:100A90003136300036013701380139013A013B0166
:100AA0003C013D013E013F01400141014201430142
:100AB0004401450146014701480149014A014B01F2
:100AC0004C014D014E014F015001510152015301A2
:100AD0005401550156015701580159015A015B0152
:100AE0005C015D015E015F01600161016201630102
:100AF0006401650166016701680169016A016B01B2
:100B00006C016D016E016F01700171017201730161
:100B10007401750176017701780179017A017B0111
:100B20007C017D017E017F018001810182018301C1
:100B30008401850186018701880189018A018B0171
:100B40008C018D018E018F01900191019201930121
:100B50009401950196019701980199019A019B01D1
:100B60009C019D019E019F01A001A101A201A30181
:100B7000A401A501A601A701A801A901AA01AB0131
:100B8000AC01AD01AE01AF01B001B101B201B301E1
:100B9000B401B501B601B701B801B901BA01BB0191
:100BA000BC01BD01BE01BF01C001C101C201C30141
:100BB000C401C501C601C701C801C901CA01CB01F1
:100BC000CC01CD01CE01CF01D001D101D201D301A1
:100BD000D401D501D601D701D801D901DA01DB0151
:100BE000DC01DD01DE01DF01E001E101E201E30101
:100BF000E401E501E601E701E801E901EA01EB01B1
:100C0000EC01ED01EE01EF01F001F101F201F30160
:100C1000F401F501F601F701F801F901FA01FB0110
:100C2000FC01FD01FE01FF010002010202020302BC
:100C30000402050206020702080209020A020B0268
:100C40000C020D020E020F02100211021202130218
:100C50001402150216021702180219021A021B02C8
:100C60001C021D021E021F02200221022202230278
:100C70002402250226022702280229022A022B0228
:100C80002C022D022E022F023002310232023302D8
:100C90003402350236023702380239023A023B0288
:100CA0003C023D023E023F02400241024202430238
:100CB0004402450246024702480249024A024B02E8
:100CC0004C024D024E024F02500251025202530298
:100CD0005402550256025702580259025A025B0248
:100CE0005C025D025E025F026002610262026302F8
:100CF0006402650266026702680269026A026B02A8
:100D00006C026D026E026F02700271027202730257
:100D10007402750276027702780279027A027B0207
:100D20007C027D027E027F028002810282028302B7
:100D30008402850286028702880289028A028B0267
:100D40008C028D028E028F02900291029202930217
:100D50009402950296029702980299029A029B02C7
:100D60009C029D029E029F02A002A102A202A30277
:100D7000A402A502A602A702A802A902AA02AB0227
:100D8000AC02AD02AE02AF02B002B102B202B302D7
:100D9000B402B502B602B702B802B902BA02BB0287
:100DA000BC02BD02BE02BF02C002C102C202C30237
:100DB000C402C502C602C702C802C902CA02CB02E7
:100DC000CC02CD02CE02CF02D002D102D202D30297
:100DD000D402D502D602D702D802D902DA02DB0247
:100DE000DC02DD02DE02DF02E002E102E202E302F7
:100DF000E402E502E602E702E802E902EA02EB02A7
:100E0000EC02ED02EE02EF02F002F102F202F30256
:100E1000F402F502F602F702F802F902FA02FB0206
:100E2000FC02FD02FE02FF020003010302030303B2
:100E30000403050306030703080309030A030B035E
:100E40000C030D030E030F0310031103120313030E
:100E50001403150316031703180319031A031B03BE
:100E60001C031D031E031F032003360140014A011A
:100E700054015E01680172017C01860190019A01B2
:100E8000A401AE01B801C201CC01D601E001EA0122
:100E9000F401FE01080212021C02260230023A028C
:100EA00044024E02580262026C02760280028A02FA
:100EB00094029E02A802B202BC02C602D002DA026A
:100EC000E402EE02F80202030C031603200317B734
:100ED000D13817B751396F12033A6F12833A6F1234
:100EE000033B0AD7A33B0AD7233C0AD7A33CCDCC6C
:100EF0004C3DCDCCCC3D1403550056005600490066
:100F00005300530050004500430000000E034F0003
:100F10005000540043004F004D000000040309043A
:100F200009023E00020100C0320904000001020271
:100F30000100052400100104240206052406000116
:100F4000070582030800FF09040100020A000000EF
:100F500007050402100005070583021000051201B1
:100F6000100102000008A321012001000102DC01A0
:100F70006364696E6F70737578585B656667454624
:100F80004700616E006E66696E69747900CDCCCCE5
:100F90003D0AD7233C17B7D13877CC2B329595E64D
:100FA000241FB14F0A000020410000C84200401C2D
:100FB0004620BCBE4CCA1B0E5AAEC59D74001124FF
:100FC0001FBECFEFDAE0DEBFCDBF12E0A0E0B1E0A0
:100FD000EAE8FEE402C005900D92A235B107D9F708
:100FE00029E0A2E5B2E001C01D92AA35B207E1F7FF
:100FF0000E9431140C94432703C84F925F926F9262
:101000007F928F929F92AF92BF92CF92DF92EF9298
:10101000FF92CF93DF93CDB7DEB760970FB6F8940A
:10102000DEBF0FBECDBFEEE5FAE085909590A590AE
:10103000B490E2E6FAE04590559065907490E6E64B
:10104000FAE0259135914591549129833A834B8358
:101050005C83EAE6FAE025913591459154912D8320
:101060003E834F835887EEE6FAE02591359145910E
:10107000549129873A874B875C87E2E7FAE025910C
:101080003591459154912D873E874F87588BBC01F0
:101090006F5F7F4F072E000C880B990B0E94161C68
:1010A0006B017C019B01AC01C301B2010E940F1DC9
:1010B000A50194010E94131B4B015C01A70196013D
:1010C00069817A818B819C810E940F1DA701960105
:1010D0000E940F1D9B01AC01C501B4010E94131BAE
:1010E0004B015C01A70196016D817E818F819885FE
:1010F0000E940F1DA70196010E940F1DA7019601D6
:101100000E940F1D9B01AC01C501B4010E94131B7D
:101110004B015C01A701960169857A858B859C85C9
:101120000E940F1DA70196010E940F1DA7019601A5
:101130000E940F1DA70196010E940F1D9B01AC018B
:10114000C501B4010E94131B4B015C01A70196016C
:101150006D857E858F8598890E940F1DA701960158
:101160000E940F1DA70196010E940F1DA701960165
:101170000E940F1DA70196010E940F1D9B01AC014B
:10118000C501B4010E94131B60960FB6F894DEBF30
:101190000FBECDBFDF91CF91FF90EF90DF90CF904A
:1011A000BF90AF909F908F907F906F905F904F9087
:1011B00008950895089580E091E00C944B1980E023
:1011C00091E00C94611A08950000000000000000F6
:1011D000000008958F929F92AF92BF92CF92DF92BC
:1011E000EF92FF9280E480937C0080917C00876086
:1011F00080937C0010927B0080917B0080937B0029
:1012000087EC80937A0080917A0086FDFCCF609114
:1012100078008091790070E0782B7370072E000CB5
:10122000880B990B0E94161C20E030EC4FE754E429
:101230000E947B1B20E030E040EA50E40E940F1D3A
:101240004B015C019B01AC0160E070E080EA90E43E
:101250000E94121B6B017C0120E030E0A9010E947A
:10126000771B882369F020E030E44CE156E4C501A7
:10127000B4010E940F1DA70196010E947B1B03C0B1
:1012800060E070E0CB0120E030E44CE156E40E94E5
:101290007B1B0E94CF1C20E030EB46E555E40E940A
:1012A0007B1B2FE03FEC4BE55BE30E94131B9B0194
:1012B000AC0160E070E080E89FE30E947B1B23E3C9
:1012C00033E948E853E40E94121BFF90EF90DF904F
:1012D000CF90BF90AF909F908F9008950E9454142C
:1012E000209A289A0895CF932898000080E00E94C1
:1012F0005D14C82F80E00E945D14289ACF7140E8E9
:10130000C49F900111248695A901482BCA01CF9151
:101310000895819A8998859A8D98EAEAF4E0119265
:1013200011921192119289E0EA32F807C1F70895FB
:10133000CF92DF92EF92FF920F931F93CF93DF93A1
:10134000CAEAD4E0FE01119211921192119289E041
:10135000EA32F807C1F7899837DF899A35DF89982B
:101360008D9A32DF03E010E0899A2EDF89982CDF16
:1013700001501109C9F7C12CD12C760180911F01B0
:1013800090912001A0912101B0912201C816D906A7
:10139000EA06FB0654F4899A17DF899815DF8FEF68
:1013A000C81AD80AE80AF80AE9CF8D9808E510E0CB
:1013B000899A0ADF899808DF01501109C9F793DF7C
:1013C000BC0180E090E00E94141C6993799389939A
:1013D0009993899AF9DE8998F7DE89E0CA32D807AD
:1013E00071F7DF91CF911F910F91FF90EF90DF90F8
:1013F000CF900895CF93DF939BDF9ADF99DF98DF3B
:1014000097DFCAEAD4E020E030E040EA50E46881A7
:1014100079818A819B810E947B1B6993799389934F
:10142000999389E0CA32D80771F7DF91CF91089577
:10143000CF92DF92EF92FF92CF93DF93C0901B0188
:10144000D0901C01E0901D01F0901E0120E030E0E2
:1014500040E252E4C701B6010E94C61C1816D4F03F
:10146000A701960160916002709161028091620211
:10147000909163020E94121B9F77D1E0C0E020E0B0
:1014800030E040E050E40E94C61C87FDD0E08D2F84
:101490009C2F02C082E090E0DF91CF91FF90EF900F
:1014A000DF90CF90089535DF19DF84B7877F84BF41
:1014B0000FB6F894A89580916000886180936000D1
:1014C000109260000FBE90E080E80FB6F894809311
:1014D0006100909361000FBE0C94A0164F925F9232
:1014E0006F927F928F929F92AF92BF92CF92DF9234
:1014F000EF92FF920F931F93CF93DF93C0906402FC
:10150000D0906502C601880F991F880F991FFC01B2
:10151000ED5DFE4F40805180628073809C012253BC
:10152000314F6901CAE6D2E00EED15E03AEAE32E4A
:1015300034E0F32E69917991F60185909590A5900C
:10154000B490072E000C880B990B0E94161CA30167
:1015500092010E940F1D9B01AC01F7016081718116
:10156000828193810E94121BA50194010E947B1B22
:10157000F80125913591459154910E947B1B4B01B7
:101580005C012FE530E749E850E30E94771B87FFB5
:1015900003C0812C912C5401F70181929192A19268
:1015A000B1927F010C5F1F4FF4E0CA3ADF0709F0E8
:1015B000C1CFDF91CF911F910F91FF90EF90DF90FE
:1015C000CF90BF90AF909F908F907F906F905F90E3
:1015D0004F9008956F927F928F929F92AF92BF9299
:1015E000CF92DF92EF92FF920F931F93CF93DF93EF
:1015F0008091660290916702892B09F44EC009E43C
:1016000011E0C0E0D0E0CE010197099730F4F80175
:1016100080819181A0E0B0E004C082E090E0A0E091
:10162000B0E080931F0190932001A0932101B0931B
:101630002201D0936502C0936402DCDE3AEA832E75
:1016400034E0932E612C712CA12CB12CF401C190AB
:10165000D190E190F1904F019301A501C701B6012E
:101660000E94771B87FD02C036015701FAE28F16F0
:10167000F9E09F0659F720E030E04AE754E4B3016F
:10168000C5010E94C61C87FF35C021960E5F1F4F03
:10169000CA30D10509F0B7CF2DC080916402909176
:1016A000650201978930910550F4880F991FFC015C
:1016B000E55BFE4F80819181A0E0B0E004C082E054
:1016C00090E0A0E0B0E080931F0190932001A093F0
:1016D0002101B0932201DF91CF911F910F91FF90D3
:1016E000EF90DF90CF90BF90AF909F908F907F90C2
:1016F0006F9080CEDF91CF911F910F91FF90EF906F
:10170000DF90CF90BF90AF909F908F907F906F9021
:1017100008952F923F924F925F926F927F928F9295
:101720009F92AF92BF92CF92DF92EF92FF920F9370
:101730001F93CF93DF9300D000D0CDB7DEB783E205
:10174000282E81E0382E29E431E03A832983710183
:10175000C12CD12CC6010197099738F4A981BA810F
:101760008D919C91A0E0B0E004C082E090E0A0E008
:10177000B0E080931F0190932001A0932101B093CA
:10178000220138DEE2EAF4E0FC83EB8300E010E0C3
:101790000115110509F06BC08090AA049090AB046C
:1017A000A090AC04B090AD0420E030E040E450ECF8
:1017B000C501B4010E940F1D2B013C0120E030E067
:1017C00040E451E4C501B4010E940F1D9B01AC012E
:1017D000C301B2010E94131B2B013C0120E030E049
:1017E00048E851E4C501B4010E940F1D9B01AC0102
:1017F000C301B2010E94131B4B015C0120E030E0E9
:1018000040E451E46091AE047091AF048091B00463
:101810009091B1040E940F1D9B01AC01C501B40160
:101820000E94131B4B015C0120E030E040E450E4D7
:101830006091B2047091B3048091B4049091B504A6
:101840000E940F1D9B01AC01C501B4010E94121B37
:1018500020E030E04CE052E40E947B1B6093AA043D
:101860007093AB048093AC049093AD04C7C1013076
:10187000110509F071C08090AA049090AB04A0906B
:10188000AC04B090AD0420E030E040E450ECC50181
:10189000B4010E940F1D2B013C0120E030E040E428
:1018A00051E4C501B4010E940F1D9B01AC01C301AD
:1018B000B2010E94131B4B015C0120E030E048E8BC
:1018C00051E46091AE047091AF048091B0049091A6
:1018D000B1040E940F1D9B01AC01C501B4010E941F
:1018E000131B4B015C0120E030E040E451E46091C7
:1018F000B2047091B3048091B4049091B5040E9435
:101900000F1D9B01AC01C501B4010E94131B4B01CB
:101910005C0120E030E040E450E46091B604709156
:10192000B7048091B8049091B9040E940F1D9B01E7
:10193000AC01C501B4010E94121B20E030E04CE074
:1019400052E40E947B1B6093AE047093AF048093BB
:10195000B0049093B10452C10E31F1E01F0709F0B9
:1019600071C08090260990902709A0902809B09016
:10197000290920E030E040E450EC60911A097091B0
:101980001B0980911C0990911D090E940F1D2B01BC
:101990003C0120E030E040E451E460911E09709188
:1019A0001F0980912009909121090E940F1D9B0120
:1019B000AC01C301B2010E94131B2B013C0120E0CA
:1019C00030E048E851E46091220970912309809148
:1019D0002409909125090E940F1D9B01AC01C301B0
:1019E000B2010E94131B2B013C0120E030E040E4D7
:1019F00051E4C501B4010E940F1D9B01AC01C3015C
:101A0000B2010E94131B2B013C0120E030E040E4B6
:101A100050E4C501B4010E940F1D9B01AC01C3013C
:101A2000B2010E94121B20E030E04CE052E40E9420
:101A30007B1B609322097093230980932409909360
:101A40002509DCC00F3121E0120709F06BC080903E
:101A5000260990902709A0902809B090290920E034
:101A600030E040E450EC60911E0970911F098091B4
:101A70002009909121090E940F1D2B013C0120E0BB
:101A800030E040E451E46091220970912309809193
:101A90002409909125090E940F1D9B01AC01C301EF
:101AA000B2010E94131B2B013C0120E030E048E80A
:101AB00051E4C501B4010E940F1D9B01AC01C3019B
:101AC000B2010E94131B2B013C0120E030E040E4F6
:101AD00051E4C501B4010E940F1D9B01AC01C3017B
:101AE000B2010E94131B2B013C0120E030E040E4D6
:101AF00050E4C501B4010E940F1D9B01AC01C3015C
:101B0000B2010E94121B20E030E04CE052E40E943F
:101B10007B1B609326097093270980932809909373
:101B200029096CC020E030E040E450ECAB81BC817E
:101B30006D917D918D919C910E940F1D4B015C01D7
:101B400020E030E040E451E4EB81FC816481758168
:101B5000868197810E940F1D9B01AC01C501B401D4
:101B60000E94131B4B015C0120E030E048E851E487
:101B7000AB81BC8118966D917D918D919C911B9745
:101B80000E940F1D9B01AC01C501B4010E94131BF3
:101B90004B015C0120E030E040E451E4EB81FC814A
:101BA00064857585868597850E940F1D9B01AC0114
:101BB000C501B4010E94131B4B015C0120E030E021
:101BC00040E450E4AB81BC8150966D917D918D9144
:101BD0009C9153970E940F1D9B01AC01C501B4015C
:101BE0000E94121B20E030E04CE052E40E947B1B7C
:101BF000EB81FC8160877187828793870F5F1F4F1E
:101C00002B813C812C5F3F4F3C832B83003231E0A2
:101C1000130709F0BDCD80E090EFAFE7B5E4F70121
:101C200080839183A283B3832AEA34E03C832B83AD
:101C30000AE612E035E0C316D10459F4AB81BC8149
:101C40006D917D918D919C910E94E31BF8017183B0
:101C50006083AB81BC818D909D90AD90BD90BC8325
:101C6000AB83A5019401F701608171818281938129
:101C70000E94C61C181634F4D7018D929D92AD9225
:101C8000BC9213970E5F1F4FEAE2F9E02B813C8173
:101C9000E217F30779F63FEFC31AD30A84E0E80EA0
:101CA000F11CA981BA811296BA83A983BAE0CB1636
:101CB000D10409F04FCDC0903701D0903801E090A9
:101CC0003901F0903A01A7019601F101608171811B
:101CD000828193810E947B1BD1016D937D938D93B3
:101CE0009D931D01EBE4F1E0EA17FB0761F772DA5F
:101CF000609360027093610280936202909363022A
:101D00000F900F900F900F90DF91CF911F910F9137
:101D1000FF90EF90DF90CF90BF90AF909F908F900B
:101D20007F906F905F904F903F902F90089580E04C
:101D300091E00E940F1A181619069CF420912A09A6
:101D400030912B09F901E45DF64F80832F5F3F4FFF
:101D500030932B0920932A090A9719F481E0809384
:101D60004C0908952F923F924F925F926F927F920B
:101D70008F929F92AF92BF92CF92DF92EF92FF929B
:101D80000F931F93CF93DF93CDB7DEB7CA58D10916
:101D90000FB6F894DEBF0FBECDBF80914C098823EB
:101DA00009F445C510924C0945E050E06DE571E03D
:101DB0008CE299E00E941626892B09F061C00ADCAA
:101DC0008DDB1AEAE12E14E0F12E00E010E088E04D
:101DD000682E82E0782E9CED892E95E0992E20E2E7
:101DE000522ECE0101966C0133E6A32E31E0B32EC4
:101DF000F3018591949101970817190788F1F4016F
:101E00008591949101968017910750F1C801F5D8FA
:101E1000D601E52D1D92EA95E9F7D70113962C918D
:101E200013972F9312962C9112972F9311962C9112
:101E300011972F932C912F939F938F937F936F9351
:101E4000BF92AF92DF92CF920E94A926B60180E0A6
:101E500091E00E9470190FB6F894DEBF0FBECDBF9F
:101E60000F5F1F4FF4E0EF0EF11C003221E012076C
:101E700009F0BECF6AE080E091E00E949019CCC4E6
:101E800049E050E06AE671E08CE299E00E94162693
:101E9000892B09F0ACC29EDB21DB88E092E0E99659
:101EA0009FAF8EAFE997B4E92B2EBAE03B2EDE014F
:101EB0001196A796BFAFAEAFA797F1016591749148
:101EC000E996EEADFFADE997059114910230110549
:101ED0004CF4D090AE04C090AF04F090B004E09009
:101EE000B10443C280E090E00E94141C6B017C01AD
:101EF000F8013297CF57DF4FF983E883C158D040BC
:101F0000CF017BD8AB966CAF7DAF8EAF9FAFAB9759
:101F1000C8010197CD57DF4F99838883C358D040BC
:101F20006CD8AF966CAF7DAF8EAF9FAFAF97C80147
:101F300064D8E3966CAF7DAF8EAF9FAFE397D801C7
:101F40001196CB57DF4FB983A883C558D040CD0138
:101F500054D8E7966CAF7DAF8EAF9FAFE797AF9643
:101F60002CAD3DAD4EAD5FADAF97C701B6010E9440
:101F7000121B4B015C01E3962CAD3DAD4EAD5FAD48
:101F8000E397C701B6010E94121BED966CAF7DAFBF
:101F90008EAF9FAFED97E7962CAD3DAD4EAD5FADEB
:101FA000E797C701B6010E94121BC358DF4F688331
:101FB00079838A839B83CD57D040AB962CAD3DADC2
:101FC0004EAD5FADAB97C701B6010E94121B6B010E
:101FD0007C019B01AC01C501B4010E940F1DC957D2
:101FE000DF4F688379838A839B83C758D040ED96FF
:101FF0002CAD3DAD4EAD5FADED97C501B4010E9476
:102000000F1DC358DF4F288139814A815B81CD572D
:10201000D0400E940F1D4B015C01AF962CAD3DAD31
:102020004EAD5FADAF97AB966CAD7DAD8EAD9FAD58
:10203000AB970E94121B2B013C01E3962CAD3DADEA
:102040004EAD5FADE397AB966CAD7DAD8EAD9FAD04
:10205000AB970E94121B9B01AC01C301B2010E940D
:102060000F1D2B013C01E7962CAD3DAD4EAD5FAD94
:10207000E797AB966CAD7DAD8EAD9FADAB970E94F3
:10208000121B9B01AC01C301B2010E940F1D9B01F9
:10209000AC01C501B4010E947B1BCF57DF4FE88123
:1020A000F981C158D040EE0FFF1FEE0FFF1FE6551C
:1020B000FB4F20813181428153810E940F1D4B01D2
:1020C0005C01A7019601ED966CAD7DAD8EAD9FAD27
:1020D000ED970E940F1DC358DF4F288139814A8137
:1020E0005B81CD57D0400E940F1D6B017C01AB96E8
:1020F0002CAD3DAD4EAD5FADAB97AF966CAD7DAD4C
:102100008EAD9FADAF970E94121B2B013C01E39651
:102110002CAD3DAD4EAD5FADE397AF966CAD7DADF3
:102120008EAD9FADAF970E94121B9B01AC01C30106
:10213000B2010E940F1D2B013C01E7962CAD3DAD75
:102140004EAD5FADE797AF966CAD7DAD8EAD9FADFB
:10215000AF970E94121B9B01AC01C301B2010E9408
:102160000F1D9B01AC01C701B6010E947B1BCD571F
:10217000DF4FE881F981C358D040EE0FFF1FEE0F0B
:10218000FF1FE655FB4F20813181428153810E9420
:102190000F1D9B01AC01C501B4010E94131B6B0113
:1021A0007C01C957DF4F288139814A815B81C7583B
:1021B000D040C358DF4F688179818A819B81CD5798
:1021C000D0400E940F1D4B015C01AB962CAD3DAD84
:1021D0004EAD5FADAB97E3966CAD7DAD8EAD9FAD73
:1021E000E3970E94121B2B013C01AF962CAD3DAD35
:1021F0004EAD5FADAF97E3966CAD7DAD8EAD9FAD4F
:10220000E3970E94121B9B01AC01C301B2010E9423
:102210000F1D2B013C01E7962CAD3DAD4EAD5FADE2
:10222000E797E3966CAD7DAD8EAD9FADE3970E94D1
:10223000121B9B01AC01C301B2010E940F1D9B0147
:10224000AC01C501B4010E947B1B000F111F000FE0
:10225000111FF801E655FB4F2081318142815381E6
:102260000E940F1D9B01AC01C701B6010E94131B08
:102270006B017C01C957DF4F288139814A815B811D
:10228000C758D040ED966CAD7DAD8EAD9FADED974E
:102290000E940F1D4B015C01AB962CAD3DAD4EADC8
:1022A0005FADAB97E7966CAD7DAD8EAD9FADE7971B
:1022B0000E94121B2B013C01AF962CAD3DAD4EADE3
:1022C0005FADAF97E7966CAD7DAD8EAD9FADE797F7
:1022D0000E94121B9B01AC01C301B2010E940F1DA1
:1022E0002B013C01E3962CAD3DAD4EAD5FADE397C8
:1022F000E7966CAD7DAD8EAD9FADE7970E94121B4A
:102300009B01AC01C301B2010E940F1D9B01AC01F6
:10231000C501B4010E947B1BCB57DF4FE881F981D7
:10232000C558D040EE0FFF1FEE0FFF1FE655FB4FC5
:1023300020813181428153810E940F1D9B01AC019C
:10234000C701B6010E94131B162F072FF82EE92E86
:1023500020E030E0A9010E94771B87FF05C0D12C47
:10236000C12CF12CE12C01C0680181010E5F1F4FCF
:10237000F10160817181072E000C880B990B0E947E
:10238000161CA796AEADBFADA797E0E21D92EA95E9
:10239000E9F7EF92FF92CF92DF929F938F937F9313
:1023A0006F9383E791E09F938F93E1E0F0E0EC0F70
:1023B000FD1FFF93EF930E94A926BE016F5F7F4F21
:1023C00080E091E08DD7E9968EAD9FADE9970296BA
:1023D000E9969FAF8EAFE99718010FB6F894DEBF6C
:1023E0000FBECDBF0A561E4009F067CD43CD43E076
:1023F00050E06AE771E08CE299E00E941626892B92
:1024000099F5E8D80AEA14E08AE2A82E89E0B82E05
:1024100090E1992EFE0131967F012EE7C22E21E038
:10242000D22ED701E92D1D92EA95E9F7D8016D91D9
:102430007D918D919D918D010E94E31B7F936F9300
:10244000DF92CF92FF92EF920E94A926B70180E01F
:1024500091E046D70F900F900F900F900F900F9034
:10246000A016B106F1F606CD44E050E062E871E056
:102470008CE299E00E941626892B11F44AD9C4C136
:1024800046E050E06CE871E08CE299E00E9416268C
:10249000892B89F48E010F5F1F4F80E2F8011192A2
:1024A0008A95E9F7EEE8FAE0859194919F938F93EE
:1024B00083E991E035C045E050E06DE971E08CE2E0
:1024C00099E00E941626892B89F48E010F5F1F4F19
:1024D00080E2D8011D928A95E9F7E4E8FAE0859157
:1024E00094919F938F9383EA91E01AC043E050E068
:1024F0006CEA71E08CE299E00E941626892B09F5BE
:102500008E010F5F1F4F80E2F80111928A95E9F763
:10251000E6E7FAE0859194919F938F9380EB91E0A9
:102520009F938F931F930F930E94A926B80180E079
:1025300091E0D6D60F900F900F900F900F900F90C4
:102540006BC143E050E067EB71E08CE299E00E94E0
:102550001626892B09F04EC0CE0101961C0184E697
:10256000D1011D928A95E9F7E2E7FAE0059115910C
:1025700025913491EEE6FAE045905590659074907F
:10258000EAE6FAE085909590A590B490E6E6FAE048
:10259000C590D590E590F490E2E6FAE0459155912A
:1025A00065917491EEE5FAE085919591A591B491CC
:1025B0003F932F931F930F937F926F925F924F924F
:1025C000BF92AF929F928F92FF92EF92DF92CF9243
:1025D0007F936F935F934F93BF93AF939F938F932B
:1025E0008CEB91E09F938F933F922F920E94A926AC
:1025F000B10136C043E050E064ED71E08CE299E057
:102600000E941626892BA9F58E010F5F1F4F80E4CB
:10261000D8011D928A95E9F780916802909169022C
:10262000009721F0019721F085E403C082E501C005
:1026300087E590911E019F9390911D019F9390912A
:102640001C019F9390911B019F931F928F9388ED84
:1026500091E09F938F931F930F930E94A926B80137
:1026600080E091E03DD60FB6F894DEBF0FBECDBF3F
:10267000D3C044E050E064EE71E08CE299E00E9447
:102680001626892B09F0C3C048E050E069EE71E0DE
:102690008CE299E00E941626892B39F481E090E0C3
:1026A0009093670280936602AFC049E050E062EF0A
:1026B00071E08CE299E00E941626892B49F4109271
:1026C00067021092660210926502109264029CC02A
:1026D00049E050E06CEF71E08CE299E00E94162630
:1026E000892B39F4109267021092660281E090E023
:1026F00087C049E050E066E072E08CE299E00E9419
:102700001626892B39F4109267021092660282E035
:1027100090E076C047E050E060E172E08CE299E042
:102720000E941626892B39F41092670210926602D5
:1027300083E090E065C047E050E068E172E08CE241
:1027400099E00E941626892B39F4109267021092A4
:10275000660284E090E054C047E050E060E272E03E
:102760008CE299E00E941626892B39F410926702B8
:102770001092660285E090E043C048E050E068E2D5
:1027800072E08CE299E00E941626892B39F41092AF
:1027900067021092660286E090E032C048E050E0A6
:1027A00061E372E08CE299E00E941626892B39F4ED
:1027B000109267021092660287E090E021C048E024
:1027C00050E06AE372E08CE299E00E941626892BC1
:1027D00039F4109267021092660288E090E010C00F
:1027E00049E050E063E472E08CE299E00E94162632
:1027F000892B51F4109267021092660289E090E0F2
:10280000909365028093640267E871E002C06DE412
:1028100072E080E091E064D580E2ECE2F9E0DF0173
:102820001D928A95E9F710922B0910922A09C65732
:10283000DF4F0FB6F894DEBF0FBECDBFDF91CF9153
:102840001F910F91FF90EF90DF90CF90BF90AF90CE
:102850009F908F907F906F905F904F903F902F90C0
:1028600008950E94530A62E572E080E091E015D677
:1028700078940E9498090E94EA080E94EA086093EE
:102880001B0170931C0180931D0190931E010E94F7
:10289000180A909369028093680264DA48DA80E04B
:1028A00091E0A7D5DED4E9CF84B1866084B980E514
:1028B0008CBD8DB581608DBD08958EBD00000DB4B9
:1028C00007FEFDCF8EB50895292F3327223031051D
:1028D00059F02330310569F021303105E9F482E106
:1028E00090E02EE53FE01CC08EE390E020E23FE068
:1028F00017C099278130910549F028F0029761F4BB
:10290000E6EFFEE005C0ECE1FFE002C0ECE0FFE036
:10291000849190E09F0104C080E090E020E030E0EE
:10292000FA01318320830895CF92DF92EF92FF92D4
:102930000F931F93CF93DF93EC018B017A018DD11D
:10294000811132C0E114F10439F0F70180819181E5
:10295000081B190BC80FD91FC12CD12C011511054B
:1029600011F18091E80085FD15C08091E8008E7717
:102970008093E800E114F10449F0F701808191812E
:10298000C80ED91ED182C08285E00EC066D18823D0
:1029900029F30AC089918093F10001501109FFEFDA
:1029A000CF1ADF0ADBCF80E0DF91CF911F910F912B
:1029B000FF90EF90DF90CF900895209158093091CB
:1029C00059092617370748F06115710539F4209128
:1029D000E8002E772093E80001C0B901FC0120E057
:1029E0006115710579F1809151098823F1F18530E4
:1029F000F1F18091E80083FD3CC08091E80082FD08
:102A00002EC08091E80080FFEBCF2091F3008091F1
:102A1000F20090E0922B6115710551F0883091051C
:102A200038F421912093F100615071090196F3CFA0
:102A300021E0089709F020E08091E8008E778093EC
:102A4000E800CECF2111CFCF0AC080915109882351
:102A500061F0853061F08091E80083FD0AC08091CB
:102A6000E80082FFF2CF80E0089582E0089583E0DD
:102A7000089581E008952091580930915909261749
:102A8000370748F06115710539F42091E8002E7779
:102A90002093E80001C0B901FC0120E06115710537
:102AA00091F180915109882309F440C0853009F4DF
:102AB0003FC08091E80083FD3DC08091E80082FD29
:102AC0002FC08091E80080FFE9CF2091F300809132
:102AD000F20090E0922B6115710559F08830910554
:102AE00040F424912093F1003196615071090196D0
:102AF000F2CF21E0089709F020E08091E8008E777E
:102B00008093E800CBCF2111CCCF0AC0809151092E
:102B1000882361F0853061F08091E80083FD0AC070
:102B20008091E80082FFF2CF80E0089582E008956E
:102B300083E0089581E00895982F973068F5909389
:102B4000E900981739F07091EC002091ED00509158
:102B5000F00003C0242F762F50E021FD02C09F5FBC
:102B6000ECCF3091EB003E7F3093EB003091ED00E5
:102B70003D7F3093ED003091EB0031603093EB00FE
:102B80007093EC002093ED005093F0002091EE0044
:102B900027FDE5CF80E008958F708093E90081E004
:102BA00008950F931F93CF93DF93062FEC0110E04E
:102BB000101771F16881611103C01F5F2596F8CF6E
:102BC0002C81A981BA819B81862F8F70873010F06C
:102BD00080E01FC0223010F442E001C046E0E8E08F
:102BE000F0E020E0EA17FB0720F42F5FEE0FFF1F55
:102BF000F9CF2295207F422B50E4959F900111241C
:102C0000661F6627661F622B97DF8111D6CFE0CF44
:102C100081E0DF91CF911F910F910895809152092A
:102C200087FF11C08091E80082FD05C080915109A5
:102C30008111F8CF11C08091E8008B770BC0809193
:102C40005109882349F08091E80080FFF8CF8091F6
:102C5000E8008E778093E80008952091E400309199
:102C6000E50095E64091EC00842F817040FF23C081
:102C70008091E80080FD1DC080915109882399F062
:102C8000853099F08091EB0085FD11C04091E40002
:102C90005091E5002417350729F3915011F09A015E
:102CA000E1CF84E0089582E0089583E0089581E013
:102CB000089580E008954091E80042FFDDCF089537
:102CC0000F931F93CF93DF934BD052D0C8EDD0E03A
:102CD00088818F77888388818068888388818F7DC9
:102CE000888319BC1092510910924D0910924F0916
:102CF00010924E0900EE10E0F80180818B7F8083F6
:102D000088818160888342E060E080E015DFE1EE49
:102D1000F0E080818E7F8083E2EEF0E08081816050
:102D20008083808188608083F80180818E7F8083AA
:102D3000888180618883DF91CF911F910F910895E1
:102D4000E8EDF0E080818F7E8083E7EDF0E0808128
:102D50008160808384E082BF81E080935009B0CF9E
:102D6000E8EDF0E080818E7F80831092E20008958C
:102D70001092DA001092E10008951F920F920FB6A0
:102D80000F9211242F933F934F935F936F937F93F1
:102D90008F939F93AF93BF93EF93FF938091E10045
:102DA00082FF0AC08091E20082FF06C08091E100AC
:102DB0008B7F8093E10054D28091DA0080FF1FC0A6
:102DC0008091D80080FF1BC08091DA008E7F8093B5
:102DD000DA008091D90080FF0DC080E189BD82E1D9
:102DE00089BD09B400FEFDCF81E0809351090E94A6
:102DF000D90805C019BC109251090E94DA088091C7
:102E0000E10080FF18C08091E20080FF14C0809133
:102E1000E2008E7F8093E2008091E20080618093E7
:102E2000E2008091D80080628093D80019BC85E0D0
:102E30008093510915D28091E10084FF2FC08091C9
:102E4000E20084FF2BC080E189BD82E189BD09B425
:102E500000FEFDCF8091D8008F7D8093D8008091B7
:102E6000E1008F7E8093E1008091E2008F7E80936D
:102E7000E2008091E20081608093E20080914D0940
:102E8000882311F084E007C08091E30087FD02C031
:102E900081E001C083E080935109E2D18091E1009B
:102EA00083FF27C08091E20083FF23C08091E1006F
:102EB000877F8093E10082E08093510910924D0951
:102EC0008091E1008E7F8093E1008091E2008E7F0F
:102ED0008093E2008091E20080618093E20042E012
:102EE00060E080E029DE8091F00088608093F0004F
:102EF000B7D1FF91EF91BF91AF919F918F917F914A
:102F00006F915F914F913F912F910F900FBE0F9056
:102F10001F9018951F920F920FB60F9211242F93A6
:102F20003F934F935F936F937F938F939F93AF9351
:102F3000BF93CF93DF93EF93FF93C091E900CF70DE
:102F40008091EC00D82FD17080FDD0E81092E9007C
:102F50008091F000877F8093F00078941ED01092CB
:102F6000E9008091F00088608093F000CD2BCF7055
:102F7000C093E900FF91EF91DF91CF91BF91AF91A5
:102F80009F918F917F916F915F914F913F912F9181
:102F90000F900FBE0F901F9018951F93CF93DF9344
:102FA000CDB7DEB7AA970FB6F894DEBF0FBECDBF80
:102FB000E2E5F9E08091F100819329E0EA35F2073A
:102FC000C9F70E94DF088091E80083FF31C180913A
:102FD000520990915309953009F483C030F491302F
:102FE000A9F168F0933091F123C1983009F4EFC052
:102FF000993009F4FBC0963009F01AC194C08038AA
:1030000021F0823809F014C108C080914E099091D6
:103010004F09992389F082600FC0809156098F7003
:10302000873008F005C18093E9008091EB0085FBB3
:10303000882780F91092E9009091E800977F90939B
:10304000E8008093F1001092F100CCC0282F2D7F72
:1030500009F0EEC0882319F0823061F0E9C0809158
:103060005409813009F0E4C0933009F080E0809386
:103070004F092EC08091540981112AC080915609B0
:103080008F702FEF280F263008F0D2C08093E90010
:103090002091EB0020FF1CC0933021F48091EB00C5
:1030A000806214C09091EB0090619093EB0021E05E
:1030B00030E0A90102C0440F551F8A95E2F7409302
:1030C000EA001092EA008091EB0088608093EB00A8
:1030D0001092E9008091E800877F8093E8009EDDF0
:1030E000A7C08111A5C0109154091F778091E300FA
:1030F0008078812B8093E3008091E800877F809324
:10310000E8008CDD8091E80080FFFCCF8091E30037
:1031100080688093E300111102C082E001C083E067
:103120008093510985C08058823008F081C0809119
:103130005409909155098C3D53E0950771F583E052
:103140008A838AE289834FB7F894DE01139620E0E0
:103150003EE051E2E32FF0E050935700E49120FF6E
:1031600003C0E295EF703F5FEF708E2F90E0EA3082
:1031700010F0C79601C0C0968D939D932F5F2431A8
:1031800049F74FBF8091E800877F8093E8006AE2AB
:1031900070E0CE01019611DC14C060915609709167
:1031A0005709AE014F5F5F4F8FDBBC01892B09F4DC
:1031B0003FC09091E800977F9093E80089819A81C1
:1031C0005ADC8091E8008B778093E80031C080382A
:1031D00079F58091E800877F8093E80080914D0920
:1031E0008093F1008091E8008E7777CF811120C025
:1031F000809154099091550999270297CCF48091B8
:10320000E800877F8093E8008091540980934D09FE
:1032100005DD80914D09811106C08091E30087FD95
:1032200002C081E001C084E0809351090E94DB0864
:103230008091E80083FF0AC08091E800877F809337
:10324000E8008091EB0080628093EB00AA960FB6B5
:10325000F894DEBF0FBECDBFDF91CF911F910895CF
:103260000895CF9380915109882399F0C091E90086
:10327000CF709091EC00892F817090FD80E8C82B71
:103280001092E9008091E80083FD87DECF70C09343
:10329000E900CF910895CF93DF93EC01FC01709684
:1032A0008BE0DF011D928A95E9F782E08C838987A4
:1032B00083E08E8761E0CE01019673DC882361F0A4
:1032C00061E0CE0106966DDC882331F061E0CE012D
:1032D0000B96DF91CF9165CC80E0DF91CF9108957F
:1032E000DB01209151092430C9F4FC01448955893E
:1032F00066897789452B462B472B81F081818F701A
:103300008093E900FD0101900020E9F73197BF01AA
:103310006A1B7B0B40E050E0CD0106CB82E00895B4
:103320000F931F93CF93209151092430F9F4FC019E
:103330000489158926893789012B022B032BB1F0CB
:10334000C62F81818F708093E9008091E80085FF0E
:1033500004C0C093F10080E00AC08091E8008E773D
:103360008093E8007ADC8823A1F301C082E0CF914A
:103370001F910F910895FB01682F84859585D0DFFB
:1033800021E030E0811102C020E030E08827992759
:10339000821B930B089520915109243041F5FC01C3
:1033A0004489558966897789452B462B472BF9F047
:1033B00081818F708093E9002091F3008091F20069
:1033C00090E0922B892B89F09091E8008091E800A1
:1033D0008E778093E80095FD08C03FDC811108C01E
:1033E0008091E8008E778093E80080E0089582E085
:1033F000089520915109243089F4FC0144895589AC
:1034000066897789452B462B472B41F021812F7008
:103410002093E9002091E80020FDBDCF0895209180
:103420005109243019F08FEF9FEF0895FC01448972
:10343000558966897789452B462B472BA1F38681D1
:103440008F708093E9008091E80082FFECCF20919B
:10345000F3008091F20090E0922B892B21F02091D3
:10346000F10030E002C02FEF3FEF4091F300809178
:10347000F20090E0942B892B29F48091E8008B775F
:103480008093E800C9010895FC0184859585C7DF14
:1034900097FF02C08EEF9FEF0895FB012EE0DB0146
:1034A0001D922A95E9F723E023832BEB39E131873D
:1034B000208724E43AE1338722879587848708951B
:1034C0000895CF93DF93EC018091E80083FFA7C0BC
:1034D000888190E0209156093091570928173907C3
:1034E00009F09DC080915309813261F020F480324F
:1034F00009F43EC094C0823209F46CC0833209F4EE
:103500007EC08DC080915209813A09F088C08091B7
:10351000E800877F8093E8008091E80080FFFCCF7F
:103520008C899D89AE89BF898093F100492F5A2FDC
:103530006B2F77274093F100AD01662777274093E3
:10354000F1008B2F9927AA27BB278093F100888D44
:103550008093F100898D8093F1008A8D8093F10032
:103560008091E8008E778093E800DF91CF9156CB71
:1035700080915209813209F052C08091E800877F22
:103580008093E8008091E80082FD05C08091510998
:103590008111F8CF44C03091F1002091F100909159
:1035A000F1008091F1003C8B2D8B9E8B8F8B809155
:1035B000F100888F8091F100898F8091F1008A8FCE
:1035C0008091E8008B778093E80028DBCE01DF91C3
:1035D000CF9176CF80915209813209F58091E80030
:1035E000877F8093E8001ADB8091540990915509F8
:1035F000998B888BCE01DF91CF910C94E308809159
:103600005209813261F48091E800877F8093E8005D
:1036100005DB60915409CE01DF91CF9151CFDF914D
:10362000CF9108955058BB27AA270ED075C166D1F7
:1036300030F06BD120F031F49F3F11F41EF45BC1E8
:103640000EF4E095E7FB51C1E92F77D180F3BA176B
:10365000620773078407950718F071F49EF58FC110
:103660000EF4E0950B2EBA2FA02D0B01B90190019D
:103670000C01CA01A0011124FF27591B99F0593FE1
:1036800050F4503E68F11A16F040A22F232F342F29
:103690004427585FF3CF469537952795A795F04077
:1036A0005395C9F77EF41F16BA0B620B730B840B8C
:1036B000BAF09150A1F0FF0FBB1F661F771F881F44
:1036C000C2F70EC0BA0F621F731F841F48F487959C
:1036D00077956795B795F7959E3F08F0B3CF93958B
:1036E000880F08F09927EE0F979587950895D9D000
:1036F00008F481E008950CD00FC107D140F0FED04E
:1037000030F021F45F3F19F0F0C0511139C1F3C01E
:1037100014D198F39923C9F35523B1F3951B550B95
:10372000BB27AA2762177307840738F09F5F5F4F94
:10373000220F331F441FAA1FA9F333D00E2E3AF0D5
:10374000E0E830D091505040E695001CCAF729D0EF
:10375000FE2F27D0660F771F881FBB1F261737073E
:103760004807AB07B0E809F0BB0B802DBF01FF276E
:1037700093585F4F2AF09E3F510568F0B6C000C1D4
:103780005F3FECF3983EDCF3869577956795B795A8
:10379000F7959F5FC9F7880F911D9695879597F9C3
:1037A0000895E1E0660F771F881FBB1F621773073C
:1037B0008407BA0720F0621B730B840BBA0BEE1F51
:1037C00088F7E095089504D06894B111D9C00895A0
:1037D000BCD088F09F5790F0B92F9927B751A0F02F
:1037E000D1F0660F771F881F991F1AF0BA95C9F795
:1037F00012C0B13081F0C3D0B1E00895C0C0672FCE
:10380000782F8827B85F39F0B93FCCF38695779544
:103810006795B395D9F73EF490958095709561952D
:103820007F4F8F4F9F4F0895E89409C097FB3EF458
:1038300090958095709561957F4F8F4F9F4F9923FD
:10384000A9F0F92F96E9BB279395F695879577957B
:103850006795B795F111F8CFFAF4BB0F11F460FF3B
:103860001BC06F5F7F4F8F4F9F4F16C0882311F093
:1038700096E911C0772321F09EE8872F762F05C0A7
:10388000662371F096E8862F70E060E02AF09A9542
:10389000660F771F881FDAF7880F9695879597F937
:1038A0000895990F0008550FAA0BE0E8FEEF1616D1
:1038B0001706E807F907C0F012161306E407F50724
:1038C00098F0621B730B840B950B39F40A2661F098
:1038D000232B242B252B21F408950A2609F4A1403B
:1038E000A6958FEF811D811D089597F99F6780E848
:1038F00070E060E008959FEF80EC089500240A9442
:103900001616170618060906089500240A941216BA
:103910001306140605060895092E0394000C11F4ED
:10392000882352F0BB0F40F4BF2B11F460FF04C09A
:103930006F5F7F4F8F4F9F4F089557FD9058440FF3
:10394000551F59F05F3F71F04795880F97FB991FFE
:1039500061F09F3F79F087950895121613061406BB
:10396000551FF2CF4695F1DF08C016161706180648
:10397000991FF1CF86957105610508940895E89423
:10398000BB2766277727CB0197F908958ADF08F4CC
:103990008FEF08950EF0A6C0AECF6894A6CFD5DF06
:1039A000C8F39923D1F3C6F3DF93CF931F930F93FB
:1039B000FF92C92FDD2788232AF02197660F771FF2
:1039C000881FDAF720E030E040E85FEB9FE38839BA
:1039D00020F0803E30F021968F7725DEECEAF0E093
:1039E00003C021DEE9EDF0E08BD08B01BE01EC01DC
:1039F000FB2E6F5771097595771F880B990B16DF92
:103A000028E132E741E35FE316D0AF2D9801AE0124
:103A1000FF900F911F91CF91DF9116DE7DCF0BD0DC
:103A20007BCF6CDF28F071DF18F0952309F05DCFB4
:103A300062CF1124A5CF81DFA0F3959FD1F3950F1D
:103A400050E0551F629FF001729FBB27F00DB11D22
:103A5000639FAA27F00DB11DAA1F649F6627B00DB2
:103A6000A11D661F829F2227B00DA11D621F739F9B
:103A7000B00DA11D621F839FA00D611D221F749FA9
:103A80003327A00D611D231F849F600D211D822FF0
:103A9000762F6A2F11249F5750408AF0E1F0882337
:103AA0004AF0EE0FFF1FBB1F661F771F881F915044
:103AB0005040A9F79E3F510570F017CF61CF5F3F8F
:103AC000ECF3983EDCF3869577956795B795F79577
:103AD000E7959F5FC1F7FE2B880F911D96958795FF
:103AE00097F908959F3F31F0915020F4879577958D
:103AF0006795B795880F911D9695879597F90895C5
:103B0000DF93CF931F930F93FF92EF92DF927B018E
:103B10008C01689405C0DA2EEF018DDFFE01E89478
:103B2000A5912591359145915591AEF3EF018CDD2D
:103B3000FE019701A801DA9479F7DF90EF90FF90EA
:103B40000F911F91CF91DF910895A0E1B0E0EAEAD3
:103B5000FDE137C77C011B016A01FC011782168257
:103B6000838181FF2BC39E012F5F3F4F3901F701F6
:103B70009381F10193FD859193FF81911F0188232A
:103B800009F418C3853239F493FD859193FF81912F
:103B90001F01853239F4B70190E00E946D2656016D
:103BA0006501E5CF10E0512C912CFFE1F915D8F01B
:103BB0008B3279F038F4803279F08332A1F4F92D28
:103BC000F0612EC08D3261F0803369F4292D2160BF
:103BD0002DC0392D3260932E892D8460982E2AC0F5
:103BE000E92DE86015C097FC2DC020ED280F2A3084
:103BF00088F496FE06C03AE0139F200D1124122F80
:103C000019C08AE0589E200D1124522EE92DE06241
:103C10009E2E10C08E3231F496FCCCC2F92DF06489
:103C20009F2E08C08C3621F4292D2068922E02C0C8
:103C3000883641F4F10193FD859193FF81911F0135
:103C40008111B3CF9BEB980F933020F4992D9061A5
:103C5000805E07C09BE9980F933008F059C1992DF9
:103C60009F7E96FF16E09F73992E853619F4906417
:103C7000992E08C0863621F4392F3068932E02C061
:103C80001111115097FE07C01C3350F44424439483
:103C9000410E27E00BC0183038F027E017E005C0D0
:103CA00027E09CE3492E02C0212F412C560184E0DD
:103CB000A80EB11CF6016081718182819381042D6F
:103CC000A301B6D66C01F981FC87F0FF02C0F3FFB7
:103CD00006C091FC06C092FE06C000E205C00DE2DF
:103CE00003C00BE201C000E08C858C7019F001115B
:103CF00043C280C297FE10C04C0CFC85F4FF04C088
:103D00008A81813309F44A94141474F528E0241547
:103D100078F588E0482E2CC096FC2AC0812F90E0D0
:103D20008C159D059CF03CEFC3163FEFD30674F055
:103D3000892D8068982E0AC0E2E0F0E0EC0FFD1FAC
:103D4000E10FF11D8081803319F411501111F4CF6E
:103D500097FE0EC044244394410E812F90E0C81674
:103D6000D9062CF41C1904C04424439401C010E06B
:103D700097FE06C01C141D0434F4C601019605C04C
:103D800085E090E002C081E090E0011101961123EE
:103D900031F0212F30E02F5F3F4F820F931F252DF1
:103DA00030E08217930714F4581A01C0512C892D62
:103DB000897041F4552031F0B70180E290E08DD751
:103DC0005A94F8CF002321F0B701802F90E085D7D7
:103DD00093FC08C0552031F0B70180E390E07DD717
:103DE0005A94F8CF97FE4AC04601D7FE02C0812CF4
:103DF000912CC60188199909F301E80FF91FFE8774
:103E0000ED87960124193109388B2F87012F10E097
:103E10001195019511093FEF8316930621F4B7011F
:103E20008EE290E05AD7C814D9044CF08F85988957
:103E30008815990524F4ED85FE85818101C080E314
:103E4000F1E08F1A91082D853E852F5F3F4F3E8709
:103E50002D878016910624F0B70190E03ED7DBCF86
:103E6000C814D90441F49A81963320F4953319F497
:103E70003C8534FF81E3B70190E048C08A818133FB
:103E800019F09C859F7E9C87B70190E026D7111181
:103E900005C094FC16C085E690E015C0B7018EE21F
:103EA00090E01BD71E5F82E001E0080FF301E80FEE
:103EB000F11D8081B70190E010D7802F0113F4CF5E
:103EC000E8CF85E490E0B70108D7D7FC06C0C1145D
:103ED000D10441F4EC85E4FF05C0D194C194D1082C
:103EE0008DE201C08BE2B70190E0F7D680E32AE0D3
:103EF000C216D1042CF08F5FFAE0CF1AD108F7CFA9
:103F0000B70190E0EAD6B701C601C096E6D649C12E
:103F1000833631F0833779F0833509F052C01FC002
:103F2000560132E0A30EB11CF6018081898301E0C5
:103F300010E0630111C05601F2E0AF0EB11CF601B2
:103F4000C080D18096FE03C0612F70E002C06FEF89
:103F50007FEFC60179D68C01F92DFF7713C056018A
:103F600022E0A20EB11CF601C080D18096FE03C0F3
:103F7000612F70E002C06FEF7FEFC6014CD68C015D
:103F8000F92DF0689F2EF3FD18C0852D90E00817DD
:103F9000190798F4B70180E290E09FD65A94F5CFC4
:103FA000F60197FC859197FE81916F01B70190E032
:103FB00094D651105A94015011090115110581F739
:103FC000F0C0843611F0893659F5560197FE09C0C4
:103FD00024E0A20EB11CF60160817181828193817F
:103FE0000AC0F2E0AF0EB11CF60160817181072EAC
:103FF000000C880B990BF92DFF769F2E97FF09C0B7
:1040000090958095709561957F4F8F4F9F4FF06889
:104010009F2E2AE030E0A301D5D6C82EC6183EC098
:10402000092D853721F40F7E2AE030E01DC0097F7D
:104030008F3691F018F4883559F0BCC0803719F0EC
:10404000883711F0B7C0006104FF09C0046007C0E1
:1040500094FE08C0066006C028E030E005C020E1FC
:1040600030E002C020E132E0560107FF09C084E0E1
:10407000A80EB11CF601608171818281938108C014
:10408000F2E0AF0EB11CF6016081718180E090E03A
:10409000A30198D6C82EC6180F77902E96FE0BC097
:1040A000092D0E7FC11650F494FE0AC092FC08C080
:1040B000092D0E7E05C0DC2C092D03C0DC2C01C0AF
:1040C000D12E04FF0DC0FE01EC0DF11D8081803367
:1040D00011F4097E09C002FF06C0D394D39404C032
:1040E000802F867809F0D39403FD10C000FF06C02E
:1040F0001C2DD51478F4150D1D190CC0D51450F4D1
:10410000B70180E290E0E9D5D394F8CFD51410F44C
:104110005D1801C0512C04FF0FC0B70180E390E08F
:10412000DCD502FF16C001FD03C088E790E002C0A5
:1041300088E590E0B7010CC0802F867851F001FF30
:1041400002C08BE201C080E207FD8DE2B70190E082
:10415000C4D5C11630F4B70180E390E0BED511504C
:10416000F8CFCA94F301EC0DF11D8081B70190E006
:10417000B4D5C110F6CF15C0F4E0F51550F584E0C4
:10418000581A93FE1EC0011125C02C8523FF27C09D
:1041900006E011E0392D3071932EF80184918111E0
:1041A00021C0552009F4FCCCB70180E290E095D500
:1041B0005A94F7CFF7018681978123C08FEF9FEF45
:1041C00020C0B70180E290E088D55A945110F9CF11
:1041D000DACF512CB701802F90E07FD5D6CF0AE0FF
:1041E00011E0D8CF91108052B70190E076D50F5FE3
:1041F0001F4FD3CF23E0251510F483E0C1CF512CFE
:10420000C4CF6096E2E1F9C320FD09C0FC0123FDA3
:1042100005C022FF02C073836283518340830895E7
:1042200044FD17C046FD17C0AB01BC01DA01FB011C
:10423000AA0FBB1FEE1FFF1F1094D1F74A0F5B1F81
:104240006E1F7F1FCB01BA01660F771F881F991F52
:1042500009C033E001C034E0660F771F881F991F43
:104260003150D1F7620F711D811D911D08950F937B
:104270001F93CF93DF938C01C801F1D4EC0197FD1C
:1042800006C0AED4892BC1F7B801CE0182D5CE01CC
:10429000DF91CF911F910F910895A0E0B0E0E2E58A
:1042A000F1E295C37C018B016A01D22FD8D49C0125
:1042B00033272B32310521F02D32310551F4D068EE
:1042C0000150110911F480E064C0C701C8D497FD02
:1042D000FACFCD2FCD7F2D2F207309F58033F9F440
:1042E000580181E0A81AB10809F440C0C701B7D449
:1042F00097FD3CC09C012F7D33272835310549F4BB
:10430000C2640250110991F1C701A9D497FF07C0F7
:104310002DC0D6FF02C0C26001C0C2618501812CE0
:10432000912C540120ED280F283078F0C4FF03C0F1
:10433000B7012FD518C02A3040F0C6FFF9CF2F7D26
:104340003FEE320F3630A0F727504C2FC501B40195
:1043500067DF4B015C01C2600150110951F0C701D8
:104360007ED497FFDFCFC1FD04C0ADCF812C912C4F
:104370005401C7FF08C0B094A09490948094811C0D
:10438000911CA11CB11C2C2FB501A401C6013CDF5E
:1043900081E0CDB7DEB7ECE036C3A0E2B0E0E2EDFD
:1043A000F1E211C35C014B017A018E010F5F1F4FD7
:1043B000680180E2F80111928A95E9F7F5015380CE
:1043C00040E050E0612C90E0712CA1E0B0E0F901F8
:1043D00053FC859153FE81918F01482E9F018111DD
:1043E00003C080E090E094C08E3519F4411551056A
:1043F00051F1672D70E0641775073CF48D3561F15C
:104400008D3219F4992311F103C0992309F46BC07B
:10441000842D869586958695F601E80FF11D842DED
:1044200087708D0102C0000F111F8A95E2F7C80145
:104430009081892B8083641459F0461410F44394BE
:10444000E7CF4A94E5CF7724739403C091E001C08D
:1044500090E04F5F5F4FBBCF992319F08E81806250
:104460008E83711003C07724739419C0F6019E01E6
:104470002F5D3F4F8081809581932E173F07D1F7A5
:10448000F2CFE114F10431F0F7018083B7016F5FDF
:104490007F4F7B0171E0871A9108712CE9F0C5010B
:1044A000DED397FD17C0FC01FF2723E0F595E795C4
:1044B0002A95E1F7EC0DFD1D208130E0AC0147703D
:1044C000552702C0359527954A95E2F720FDD9CFAB
:1044D000B5015FD4711085CFE114F10411F0F7013B
:1044E0001082C80115C0682F669566956695F6011D
:1044F000E60FF11D682F67708D0102C0000F111FBC
:104500006A95E2F7B8017081672B6083682EA1CFAE
:10451000A096E0E174C22F923F924F925F926F9209
:104520007F929F92AF92BF92CF92DF92EF92FF92D3
:104530000F931F93CF93DF936C018B011A018FD3DD
:10454000EC0199278B32910529F08D9779F430E8A9
:10455000932E01C0912C0150110911F480E0FEC08E
:10456000C6017DD3EC0197FF02C0F8CF912CCE019C
:104570003FD38936910531F08E36910581F5C2E839
:10458000DFE002C0C5E8DFE02196FE013197B4907C
:10459000BB20B1F00150110979F0C60160D37C0154
:1045A00097FD0AC025D39927EB2DF0E08E179F07C2
:1045B00059F3B601C701EDD3C858DF4079F603C0FF
:1045C000C558DF4029F080E090E0A0E8BFE704C0D4
:1045D00080E090E0A0ECBFE7BC01CD01AFC0412C72
:1045E000512C3201E12CF12C2C2F20532A3008F5CC
:1045F000E92DE260BE2E892D887092FE06C08111E1
:104600001FC0FFEFEF1AFF0A1BC0882319F081E0DB
:10461000E81AF10840E2C301B20102DE2B013C01BD
:10462000683979498949994158F0F92DF660BF2ECA
:1046300007C02E3F81F493FC0EC0292D2860B22EB6
:104640000150110939F0C6010AD3EC019B2C97FFE8
:10465000CBCF01C09B2C91FE81CFCE018F7D9927BE
:104660008534910509F03EC0580181E0A81AB108CF
:1046700009F474CFC601F3D2EC0197FD6FCF9927EF
:104680008B32910529F08D9761F4E92DE0619E2E22
:104690005801F2E0AF1AB10809F460CFC601DFD2C9
:1046A000EC01CE01C0970A9708F058CF8501A12CE4
:1046B000B12CB501BB0C880B990B2C2F205340E279
:1046C000AFDD5B010150110931F0C601C8D2EC0128
:1046D000C0970A9770F394FE03C0B194A194B108F7
:1046E000EA0CFB1C012B29F0D7FD03C0B601CE015B
:1046F00050D3C301B20198D8F7FE06C0F194E194FB
:10470000F108C1EADFE002C0C9EBDFE06E0128E199
:10471000C21AD10800E210E0E016F10648F0FE01EE
:1047200025913591459154917AD9E01AF10AF4CF47
:10473000249716950795CC16DD0671F797FE05C0F0
:10474000DC01CB01B058BC01CD012114310429F0AA
:10475000F101608371838283938381E0DF91CF9144
:104760001F910F91FF90EF90DF90CF90BF90AF908F
:104770009F907F906F905F904F903F902F90089503
:10478000A0E0B0E0E5ECF3E220C15C01EB014A01FE
:10479000FC0117821682612CF5010381FE0103FDE5
:1047A000859103FF8191182FEF01882309F400C13F
:1047B00090E016D2892B19F0C50159DDEDCF1532E5
:1047C00041F4FE0103FD159103FF1191EF01153234
:1047D00071F4C50144D297FDE9C0412F50E09C011E
:1047E000332724173507C1F2B501D3D2E1C01A32FD
:1047F00041F403FD159103FF1191EF0177247394A8
:1048000001C0712CE12CF12C20ED210F2A3080F415
:10481000F72DF2607F2EB70180E090E040E200DDEE
:104820007B01FE0103FD159103FF1191EF01ECCF18
:1048300071FE04C0E114F10421F4BAC0EE24EA943C
:10484000FE2C183619F01C3661F014C0FE0103FD71
:10485000159103FF1191EF01183661F4872D8860DF
:10486000782E972D9460792EFE0103FD159103FF9C
:104870001191EF01112309F49BC0612F70E080E7D3
:104880009FE0BED1892B09F493C070FC07C0F401EE
:10489000C080D180C40102964C0102C0C12CD12C31
:1048A0001E3649F4F5014681578160E070E0272DFE
:1048B000C601AADC71CF1336B1F471FC03C0EE243B
:1048C000E394F12CC501CBD197FD70C0C114D10484
:1048D00029F0F6018083C60101966C0191E0E91A86
:1048E000F10881F75FC01B3551F49E01A601B701A5
:1048F000C50153DDEC01892B09F054C04EC0C50140
:10490000B6DC97FD53C01F36C9F140F4143691F15F
:104910001936B9F1183509F03AC028C01337A9F093
:1049200018F4103719F133C0153721F11837F1F0A9
:104930002EC0C114D10429F0F6010083C6010196EE
:104940006C0191E0E91AF10859F0C50188D18C0198
:1049500097FD06C045D1892B61F3B501C80119D275
:10496000C114D104F9F0F60110821CC0F72DF064D7
:104970007F2E07C0872D8062782E03C0972D90610F
:10498000792E272DA601B701C50187DC04C0A60139
:10499000B701C501C0DD811105C0F50183818073B8
:1049A00029F406C070FCF8CE6394F6CE662019F0A8
:1049B000862D90E002C08FEF9FEFCDB7DEB7EEE01F
:1049C00020C02F923F924F925F926F927F928F9270
:1049D0009F92AF92BF92CF92DF92EF92FF920F938E
:1049E0001F93CF93DF93CDB7DEB7CA1BDB0B0FB698
:1049F000F894DEBF0FBECDBF09942A883988488855
:104A00005F846E847D848C849B84AA84B984C884EA
:104A1000DF80EE80FD800C811B81AA81B981CE0FE1
:104A2000D11D0FB6F894DEBF0FBECDBFED010895C6
:104A3000283008F027E03327DA01990F311D87FD70
:104A4000916000966105710539F432602E5F3D93E7
:104A500030E32A95E1F708959F3F30F080387105E3
:104A6000610509F03C5F3C5F3D93913008F0806840
:104A7000911DDF93CF931F930F93FF92EF92192F06
:104A8000987F9695E92F96959695E90FFF27E85917
:104A9000FE4F99273327EE24FF24A701E701059055
:104AA0000894079428F4360FE71EF81E491F511D7D
:104AB000660F771F881F991F0694A1F7059007942A
:104AC00028F4E70EF81E491F561FC11D770F881FD7
:104AD000991F661F0694A1F70590079428F4F80E15
:104AE000491F561FC71FD11D880F991F661F771FAB
:104AF0000694A1F70590079420F4490F561FC71F8D
:104B0000D81F990F661F771F881F0694A9F78491F5
:104B10001095177041F0D695C79557954795F7941E
:104B2000E7941A95C1F7EEE0F1E0689415901591BD
:104B300035916591959105907FE27395E118F10AA1
:104B4000430B560BC90BD009C0F7E10CF11E431FF4
:104B5000561FC91FD01D7EF4703311F48A95E6CF1D
:104B6000E894015030F0080F0AF40027021708F407
:104B7000202F2395022F7A3328F079E37D932A950D
:104B8000E9F710C07D932A9589F606949795679565
:104B9000379517951794E118F10A430B560BC90B7B
:104BA000D00998F023957E9173957A3308F070E3DD
:104BB0007C932013B8F77E9170617D9330F08395DC
:104BC00071E37D9370E32A95E1F71124EF90FF9054
:104BD0000F911F91CF91DF91992787FD90950895AF
:104BE00091114EC1803219F089508550D0F7089547
:104BF0009111089581548A5108F4805E855A089570
:104C0000FC010590061621F00020D9F7C001089597
:104C10003197CF010895FC0105906150704001105B
:104C2000D8F7809590958E0F9F1F0895FB01DC01AA
:104C30004150504030F08D910190801919F40020BE
:104C4000B9F7881B990B0895FC01615070400190E1
:104C50000110D8F7809590958E0F9F1F0895CF93E0
:104C6000DF93EC012B8120FF33C026FF0AC02F7B8E
:104C70002B838E819F8101969F838E838A8190E012
:104C800029C022FF0FC0E881F9818081082E000C25
:104C9000990B009719F420622B831AC03196F9837F
:104CA000E8830EC0EA85FB85099597FF09C02B8133
:104CB000019611F080E201C080E1822B8B8308C055
:104CC0002E813F812F5F3F4F3F832E83992702C064
:104CD0008FEF9FEFDF91CF9108950F931F93CF93A5
:104CE000DF93FB01238121FD03C08FEF9FEF2CC0D9
:104CF00022FF16C046815781248135814217530710
:104D000044F4A081B1819D012F5F3F4F3183208307
:104D10008C93268137812F5F3F4F3783268314C0C2
:104D20008B01EC01FB010084F185E02D0995892BB5
:104D3000E1F6D80116968D919C91179701961796DA
:104D40009C938E931697CE01DF91CF911F910F9177
:104D50000895AEE0B0E0EEEAF6E241CE0D891E899C
:104D600086E08C831A8309838FEF9FE79E838D8370
:104D7000AE01475E5F4F6F89788DCE0101960E942C
:104D8000A51DEF81F885E00FF11F10822E96E4E05B
:104D900042CEFB01238120FF12C026FD10C08F3FB1
:104DA0003FEF930761F082832F7D20642383268168
:104DB00037812150310937832683992708958FEF52
:104DC0009FEF0895FA01AA27283051F1203181F18F
:104DD000E8946F936E7F6E5F7F4F8F4F9F4FAF4F03
:104DE000B1E03ED0B4E03CD0670F781F891F9A1F16
:104DF000A11D680F791F8A1F911DA11D6A0F711DCA
:104E0000811D911DA11D20D009F468943F912AE0D5
:104E1000269F11243019305D3193DEF6CF010895BD
:104E2000462F4770405D4193B3E00FD0C9F7F6CFEE
:104E3000462F4F70405D4A3318F0495D31FD4052B6
:104E4000419302D0A9F7EACFB4E0A695979587954C
:104E500077956795BA95C9F700976105710508952B
:104E60009B01AC010A2E06945795479537952795D7
:104E7000BA95C9F7620F731F841F951FA01D08956F
:0A4E8000992788270895F894FFCFC2
:104E8A0000831000000104100000018208000001E4
:104E9A0000000000802500000000080000C8410250
:104EAA000000000000803F00000000000000000039
:104EBA0000000000000000000000000000000000E8
:104ECA0000000000000000000000003400CA00C416
:104EDA0001B80394095813E026786120C34D45416F
:104EEA00530A0025663A25670D004D454153316E38
:104EFA006D0A0025643A25670D0052415700256462
:104F0A000D004441524B0041434B0A004D4F44456A
:104F1A004C3F004D4F44454C2F25730A004E414DDE
:104F2A00453F004E414D452F25730A00534E3F0021
:104F3A00534E2F25730A00574343460057434346AF
:104F4A002F25673A25673A25673A25673A25673A4A
:104F5A0025670A0053543F0053542F25633A252EE0
:104F6A0033660A004558502F004558502F41555472
:104F7A004F004558502F3130307573004558502F27
:104F8A003230307573004558502F35303075730004
:104F9A004558502F316D73004558502F326D7300AC
:104FAA004558502F356D73004558502F31306D7369
:104FBA00004558502F32306D73004558502F353008
:104FCA006D73004558502F3130306D73004E414B90
:024FDA000A00CB
:00000001FF
